:100000000C942A000C94C7190C94F4190C94211A1E
:100010000C9447000C9447000C9447000C94470044
:100020000C9447000C9447000C9447000C94470034
:100030000C9447000C9447000C9447000C94470024
:100040000C9447000C9447000C9447000C94470014
:100050000C94470011241FBECFE5D8E0DEBFCDBF12
:1000600010E0A0E6B0E0E4EAF7E402C005900D92EB
:10007000A43CB107D9F710E0A4ECB0E001C01D9298
:10008000A43EB107E1F70E942A200C94D0230C94DF
:100090000000EF92FF920F931F937B018C0120E0F1
:1000A00030E040E05FE40E94F50388238CF0C80153
:1000B000B70120E030E040E05FE40E94C1010E940F
:1000C00055049B01AC01205030404040504806C0D0
:1000D000C801B7010E9455049B01AC01B901CA01D6
:1000E0001F910F91FF90EF900895A0E0B0E0EBE733
:1000F000F0E00C949923DC012B01FA019C919230E1
:1001000008F439C1EB018881823008F433C194309E
:1001100069F4843009F02FC111969C91119789815F
:10012000981709F428C1ABEAB0E025C1843009F47E
:1001300021C18230A9F4923009F01DC19A01AD01AC
:1001400088E0EA010990AE01E90109929E0181501F
:10015000C1F7E201898111969C918923818308C1AD
:10016000923009F407C112962D903C901397EB0141
:100170008A819B811496AD90BD90CD90DC901797AD
:10018000EC80FD800E811F819101281B390BB90184
:1001900037FF04C066277727621B730B6032710537
:1001A0000CF061C0121613066CF537014801062EDB
:1001B00004C096948794779467940A94D2F721E0C8
:1001C00030E040E050E004C0220F331F441F551FB1
:1001D0006A95D2F721503040404050402E213F21B7
:1001E00040235123211531054105510521F021E01E
:1001F00030E040E050E079018A01E628F72808293C
:1002000019293CC0232BD1F1260E371E350146019A
:10021000062E04C096948794779467940A94D2F734
:1002200021E030E040E050E004C0220F331F441FC3
:10023000551F6A95D2F721503040404050402A2146
:100240003B214C215D21211531054105510521F04E
:1002500021E030E040E050E059016A01A628B728CB
:10026000C828D9280BC0821593052CF01C01AA249C
:10027000BB24650103C0EE24FF24870111969C91E5
:10028000D20111968C91981709F445C0992339F041
:10029000A80197012A193B094C095D0906C0A6016E
:1002A00095012E193F09400B510B57FD08C01182D3
:1002B0003382228224833583468357831DC081E0A5
:1002C00081833382228288279927DC01821B930B4A
:1002D000A40BB50B84839583A683B7830DC0220F2F
:1002E000331F441F551F24833583468357838281E0
:1002F000938101979383828324813581468157813D
:10030000DA01C9010197A109B1098F5F9F4FAF4F72
:10031000BF4328F30BC0918333822282EA0CFB1C7B
:100320000C1D1D1DE482F5820683178383E0808304
:10033000248135814681578157FF1AC0C901AA27F8
:1003400097FDA095BA2F81709070A070B0705695EF
:10035000479537952795822B932BA42BB52B848318
:100360009583A683B7838281938101969383828349
:10037000DF0101C0D201CD01CDB7DEB7E2E10C94BF
:10038000B523A0E2B0E0E7ECF1E00C94A52369838B
:100390007A838B839C832D833E834F835887E9E048
:1003A000EE2EF12CEC0EFD1ECE010196B7010E943F
:1003B0007E058E010F5E1F4FCE010596B8010E948B
:1003C0007E058A8991E089278A8BC701B801AE0131
:1003D000475E5F4F0E9475000E94A904A096E6E068
:1003E0000C94C123A0E2B0E0E8EFF1E00C94A52367
:1003F00069837A838B839C832D833E834F835887C5
:10040000F9E0EF2EF12CEC0EFD1ECE010196B701A6
:100410000E947E058E010F5E1F4FCE010596B8012A
:100420000E947E05C701B801AE01475E5F4F0E9482
:1004300075000E94A904A096E6E00C94C123A0E2F6
:10044000B0E0E5E2F2E00C94992369837A838B8330
:100450009C832D833E834F835887CE010196BE0136
:10046000675F7F4F0E947E05CE010596BE016F5EDD
:100470007F4F0E947E059985923088F0898982306D
:10048000C8F0943019F4823051F404C0843029F457
:10049000923081F48BEA90E0C6C0923049F420E0BB
:1004A0009A858A89981321E02A87CE010996BBC0D4
:1004B000823049F420E09A858A89981321E02A8BBA
:1004C000CE014196B0C02D843E844F8458886D88FB
:1004D0007E888F88988CEE24FF248701AA24BB2471
:1004E000650140E050E060E070E0E0E0F0E0C10174
:1004F00081709070892BE9F0E60CF71C081D191D1E
:100500009A01AB012A0D3B1D4C1D5D1D80E090E062
:10051000A0E0B0E0E614F7040805190520F481E036
:1005200090E0A0E0B0E0BA01A901480F591F6A1F8E
:100530007B1FAA0CBB1CCC1CDD1C97FE08C081E0F5
:1005400090E0A0E0B0E0A82AB92ACA2ADB2A3196B6
:10055000E032F10549F0660C771C881C991C569412
:10056000479437942794C3CFFA85EA892B893C892D
:100570008B859C85280F391F2E5F3F4F17C0CA01FE
:1005800081709070892B61F016950795F794E79428
:1005900080E090E0A0E0B0E8E82AF92A0A2B1B2BC3
:1005A00076956795579547952F5F3F4F77FDE7CF36
:1005B0000CC0440F551F661F771F17FD4160EE0CDE
:1005C000FF1C001F111F21503040403090E05907A0
:1005D00090E0690790E4790760F32B8F3C8FDB0193
:1005E000CA018F779070A070B07080349105A1051A
:1005F000B10561F447FD0AC0E114F10401051105DC
:1006000029F0405C5F4F6F4F7F4F40781A8EFE1786
:1006100011F081E08A8F4D8F5E8F6F8F78A383E01A
:10062000898FCE0149960E94A904A096E2E10C941C
:10063000B523A8E1B0E0EFE1F3E00C94A1236983D6
:100640007A838B839C832D833E834F835887B9E0C5
:10065000EB2EF12CEC0EFD1ECE010196B7010E948F
:100660007E058E010F5E1F4FCE010596B8010E94D8
:100670007E052985223008F47EC03989323010F495
:10068000B8017CC08A859A8989278A87243011F02D
:10069000223031F4231709F06EC06BEA70E06EC0AF
:1006A000343039F41D861E861F86188A1C861B86E8
:1006B00004C0323021F484E08987B7015FC02B8504
:1006C0003C858B899C89281B390B3C872B87ED84C3
:1006D000FE840F851889AD88BE88CF88D88CEA142F
:1006E000FB040C051D0540F4EE0CFF1C001F111F40
:1006F000215030403C872B8720E030E040E050E044
:1007000080E090E0A0E0B0E460E070E0EA14FB0478
:100710000C051D0540F0282B392B4A2B5B2BEA18C2
:10072000FB080C091D09B695A79597958795EE0CC2
:10073000FF1C001F111F6F5F7F4F6F31710531F775
:10074000DA01C9018F779070A070B0708034910584
:10075000A105B10561F427FD0AC0E114F10401050A
:10076000110529F0205C3F4F4F4F5F4F20782D87B8
:100770003E874F87588BBE01675F7F4FCB010E943A
:10078000A9046896EAE00C94BD23A8E1B0E0EBEC84
:10079000F3E00C94A52369837A838B839C832D8358
:1007A0003E834F83588789E0E82EF12CEC0EFD1E26
:1007B000CE010196B7010E947E058E010F5E1F4F8C
:1007C000CE010596B8010E947E058985823040F0F1
:1007D0008989823028F0C701B8010E94F60501C05E
:1007E0008FEF6896E6E00C94C123A8E1B0E0EBEF50
:1007F000F3E00C94A52369837A838B839C832D83F8
:100800003E834F83588789E0E82EF12CEC0EFD1EC5
:10081000CE010196B7010E947E058E010F5E1F4F2B
:10082000CE010596B8010E947E058985823040F090
:100830008989823028F0C701B8010E94F60501C0FD
:100840008FEF6896E6E00C94C123A8E1B0E0EBE2FC
:10085000F4E00C94A52369837A838B839C832D8396
:100860003E834F83588789E0E82EF12CEC0EFD1E65
:10087000CE010196B7010E947E058E010F5E1F4FCB
:10088000CE010596B8010E947E058985823040F030
:100890008989823028F0C701B8010E94F60501C09D
:1008A00081E06896E6E00C94C123ACE0B0E0EBE5B3
:1008B000F4E00C94A92369837A838B839C83CE0113
:1008C0000196BE016B5F7F4F0E947E058D81823055
:1008D00061F1823050F1843021F48E81882351F10E
:1008E0002EC02F81388537FD20C06E812F31310514
:1008F0001CF06623F9F023C08EE190E0821B930B7D
:1009000029853A854B855C8504C056954795379572
:1009100027958A95D2F76623B1F05095409530958A
:1009200021953F4F4F4F5F4F0EC020E030E040E039
:1009300050E009C02FEF3FEF4FEF5FE704C020E02A
:1009400030E040E050E8B901CA012C96E2E00C9496
:10095000C523DF92EF92FF920F931F93FC01E48077
:10096000F58006811781D1808081823048F480E053
:1009700090E0A0E1B0E0E82AF92A0A2B1B2BA5C0E1
:10098000843009F49FC0823021F4EE24FF248701D3
:1009900005C0E114F1040105110519F4E0E0F0E0EF
:1009A00096C0628173819FEF623879070CF05BC05B
:1009B00022E83FEF261B370B2A3131052CF020E0CF
:1009C00030E040E050E02AC0B801A701022E04C088
:1009D00076956795579547950A94D2F781E090E010
:1009E000A0E0B0E004C0880F991FAA1FBB1F2A9582
:1009F000D2F70197A109B1098E219F21A023B1232C
:100A00000097A105B10521F081E090E0A0E0B0E001
:100A10009A01AB01282B392B4A2B5B2BDA01C90138
:100A20008F779070A070B07080349105A105B105EA
:100A300039F427FF09C0205C3F4F4F4F5F4F04C080
:100A4000215C3F4F4F4F5F4FE0E0F0E02030A0E0EF
:100A50003A07A0E04A07A0E45A0710F0E1E0F0E00E
:100A600079018A0127C06038710564F5FB01E158FE
:100A7000FF4FD801C7018F779070A070B07080349D
:100A80009105A105B10539F4E7FE0DC080E490E0C1
:100A9000A0E0B0E004C08FE390E0A0E0B0E0E80E9A
:100AA000F91E0A1F1B1F17FF05C016950795F7941F
:100AB000E794319687E016950795F794E7948A9521
:100AC000D1F705C0EE24FF248701EFEFF0E06E2F91
:100AD000679566276795902F9F77D794DD24D794E5
:100AE0008E2F8695492F462B582F5D29B701CA01B5
:100AF0001F910F91FF90EF90DF900895FC01DB01B3
:100B0000408151812281622F6F7770E0221F22275E
:100B1000221F9381892F880F822B282F30E0991F65
:100B20009927991F11969C93119721153105A9F5C5
:100B3000411551056105710511F482E037C082E865
:100B40009FEF13969C938E9312979A01AB0167E0E7
:100B5000220F331F441F551F6A95D1F783E08C93F2
:100B60000DC0220F331F441F551F12968D919C916B
:100B70001397019713969C938E931297203080E0E1
:100B8000380780E0480780E4580758F314962D93FF
:100B90003D934D935C93179708952F3F310579F45A
:100BA000411551056105710519F484E08C93089590
:100BB00064FF03C081E08C9312C01C9210C02F57B9
:100BC000304013963C932E93129783E08C9387E0EA
:100BD000440F551F661F771F8A95D1F770641496CE
:100BE0004D935D936D937C93179708951F93DC014C
:100BF000FB019C91923008F447C08081823008F458
:100C000043C0943051F411961C91843099F5818140
:100C1000682F70E0611B71093FC0843021F0923071
:100C200031F48230B9F18181882389F12DC0119688
:100C30001C9111978230F1F081811817D9F4129626
:100C40002D913C911397828193818217930794F0A1
:100C500028173907BCF014968D919D910D90BC9189
:100C6000A02D2481358146815781281739074A07ED
:100C70005B0718F4112341F00AC082179307A407F9
:100C8000B50740F4112319F061E070E005C06FEF83
:100C90007FEF02C060E070E0CB011F910895DF9309
:100CA000CF93CDB7DEB7ADE2B0E0EDE2F0E080810A
:100CB0008F7D8C93ADE2B0E0EDE2F0E08081806169
:100CC0008C93ADE2B0E0EDE2F0E08081877F8C9321
:100CD000ADE2B0E0EDE2F0E080818B7F8C93ADE29D
:100CE000B0E0EDE2F0E0808181608C93ADE2B0E0B5
:100CF000EDE2F0E080818D7F8C93AEE2B0E0EEE239
:100D0000F0E080818E7F8C93ADE2B0E0EDE2F0E028
:100D1000808180648C93CF91DF910895DF93CF938E
:100D2000CDB7DEB7ADE2B0E0EDE2F0E080818F7DDF
:100D30008C93ADE2B0E0EDE2F0E080818F7E8C93A9
:100D4000ADE2B0E0EDE2F0E08081877F8C93ADE230
:100D5000B0E0EDE2F0E080818B7F8C93ADE2B0E01B
:100D6000EDE2F0E0808180648C93CF91DF91089573
:100D7000DF93CF930F92CDB7DEB78983EFE2F0E038
:100D800089818083EEE2F0E080818823DCF7EFE266
:100D9000F0E080810F90CF91DF9108950F931F9322
:100DA000DF93CF930F92CDB7DEB719820CC0898144
:100DB000082F10E00E942618F801E653FF4F8083A9
:100DC00089818F5F89838981853088F38AEC90E0FF
:100DD0000F90CF91DF911F910F910895DF93CF93E3
:100DE00000D00F92CDB7DEB78A836B8319829A81C8
:100DF0008B81981711F4198202C081E0898389815F
:100E00000F900F900F90CF91DF9108950F931F9344
:100E1000DF93CF93CDB7DEB7C455D0400FB6F8946B
:100E2000DEBF0FBECDBF84E061E00E94661F83E09D
:100E300062E041E00E947C1D83E063E041E00E94AB
:100E40007C1D83E063E040E00E947C1DFE01EF5AC0
:100E5000FF4F80E090E0A0EFB1E480839183A28314
:100E6000B3838E01035B1F4FFE01EF5AFF4F60817A
:100E700071818281938120E030E04AEF54E40E9446
:100E80001F02DC01CB01F80180839183A283B3832D
:100E9000FE01E35BFF4F608171818281938120E0DD
:100EA00030E040E85FE30E942504882344F4FE011B
:100EB000E55BFF4F81E090E09183808364C0FE0199
:100EC000E35BFF4F608171818281938120E03FEF7E
:100ED0004FE757E40E94C50318160CF043C0FE010B
:100EE000EF5AFF4F608171818281938120E030E071
:100EF00040E251E40E941F02DC01CB018E01055B40
:100F00001F4FBC01CD010E944900DC01CB01F8015B
:100F1000918380831FC0FE01E75BFF4F88EC90E068
:100F200091838083FE01E75BFF4F80819181019770
:100F3000F1F7FE01E75BFF4F91838083DE01A55B44
:100F4000BF4FFE01E55BFF4F8081918101971196B4
:100F50009C938E93FE01E55BFF4F8081918100970A
:100F6000D1F627C08E01055B1F4FFE01E35BFF4FEB
:100F700060817181828193810E944900DC01CB01F3
:100F8000F80191838083DE01A95BBF4FFE01E55B21
:100F9000FF4F808191818D939C93FE01E95BFF4F10
:100FA000808191810197F1F7FE01E95BFF4F918309
:100FB000808382E00E94900DFE01ED5BFF4F80E098
:100FC00090E0A0EAB0E480839183A283B3838E0192
:100FD000015C1F4FFE01ED5BFF4F608171818281DB
:100FE000938120E030E04AEF54E40E941F02DC01CC
:100FF000CB01F80180839183A283B383FE01FF9626
:10100000608171818281938120E030E040E85FE37C
:101010000E94250488232CF481E090E09EAF8DAFE0
:1010200046C0FE01FF96608171818281938120E03C
:101030003FEF4FE757E40E94C503181664F5FE0121
:10104000ED5BFF4F608171818281938120E030E010
:1010500040E251E40E941F02DC01CB01BC01CD0142
:101060000E944900DC01CB019EAF8DAF0FC088EC20
:1010700090E09CAF8BAF8BAD9CAD0197F1F79CAF2F
:101080008BAF8DAD9EAD01979EAF8DAF8DAD9EADFB
:10109000009769F716C0FE01FF9660817181828119
:1010A00093810E944900DC01CB019EAF8DAF8DADD5
:1010B0009EAD9AAF89AF89AD9AAD0197F1F79AAF1E
:1010C00089AF88E30E94900D80E090E0A0EAB0E450
:1010D0008DAB9EABAFABB8AF6DA97EA98FA998AD14
:1010E00020E030E04AEF54E40E941F02DC01CB0113
:1010F00089AB9AABABABBCAB69A97AA98BA99CA90C
:1011000020E030E040E85FE30E94250488232CF4CF
:1011100081E090E098AB8FA73FC069A97AA98BA91D
:101120009CA920E03FEF4FE757E40E94C503181643
:101130004CF56DA97EA98FA998AD20E030E040E282
:1011400051E40E941F02DC01CB01BC01CD010E94D1
:101150004900DC01CB0198AB8FA70FC088EC90E071
:101160009EA78DA78DA59EA50197F1F79EA78DA798
:101170008FA598A9019798AB8FA78FA598A90097DD
:1011800069F714C069A97AA98BA99CA90E94490092
:10119000DC01CB0198AB8FA78FA598A99CA78BA743
:1011A0008BA59CA50197F1F79CA78BA78CE00E94CB
:1011B000900D80E090E0A0EAB0E48FA398A7A9A7E3
:1011C000BAA76FA178A589A59AA520E030E04AEFDB
:1011D00054E40E941F02DC01CB018BA39CA3ADA3AE
:1011E000BEA36BA17CA18DA19EA120E030E040E8D0
:1011F0005FE30E94250488232CF481E090E09AA309
:1012000089A33FC06BA17CA18DA19EA120E03FEFEF
:101210004FE757E40E94C50318164CF56FA178A557
:1012200089A59AA520E030E040E251E40E941F0227
:10123000DC01CB01BC01CD010E944900DC01CB01E6
:101240009AA389A30FC088EC90E098A38F8F8F8D0D
:1012500098A10197F1F798A38F8F89A19AA101977F
:101260009AA389A389A19AA1009769F714C06BA1D9
:101270007CA18DA19EA10E944900DC01CB019AA313
:1012800089A389A19AA19E8F8D8F8D8D9E8D0197A7
:10129000F1F79E8F8D8F81E00E94900D80E090E0AD
:1012A000A0EAB0E4898F9A8FAB8FBC8F698D7A8D5D
:1012B0008B8D9C8D20E030E04AEF54E40E941F02A9
:1012C000DC01CB018D8B9E8BAF8BB88F6D897E89B6
:1012D0008F89988D20E030E040E85FE30E9425048C
:1012E00088232CF481E090E09C8B8B8B3FC06D8930
:1012F0007E898F89988D20E03FEF4FE757E40E9469
:10130000C50318164CF5698D7A8D8B8D9C8D20E068
:1013100030E040E251E40E941F02DC01CB01BC013D
:10132000CD010E944900DC01CB019C8B8B8B0FC04F
:1013300088EC90E09A8B898B89899A890197F1F7DB
:101340009A8B898B8B899C8901979C8B8B8B8B8942
:101350009C89009769F714C06D897E898F89988D63
:101360000E944900DC01CB019C8B8B8B8B899C8973
:10137000988B8F878F8598890197F1F7988B8F8746
:1013800086E00E94900D80E090E0A0EAB0E48B87B8
:101390009C87AD87BE876B857C858D859E8520E08B
:1013A00030E04AEF54E40E941F02DC01CB018F833E
:1013B0009887A987BA876F81788589859A8520E083
:1013C00030E040E85FE30E94250488232CF481E0AC
:1013D00090E09E838D833FC06F81788589859A8553
:1013E00020E03FEF4FE757E40E94C50318164CF585
:1013F0006B857C858D859E8520E030E040E251E460
:101400000E941F02DC01CB01BC01CD010E944900FA
:10141000DC01CB019E838D830FC088EC90E09C8320
:101420008B838B819C810197F1F79C838B838D81CA
:101430009E8101979E838D838D819E81009769F7A0
:1014400014C06F81788589859A850E944900DC01E6
:10145000CB019E838D838D819E819A83898389812F
:101460009A810197F1F79A838983CC5ADF4F0FB69F
:10147000F894DEBF0FBECDBFCF91DF911F910F91CA
:1014800008950F931F93DF93CF93CDB7DEB7C45565
:10149000D0400FB6F894DEBF0FBECDBF84E060E051
:1014A0000E94661F84E064E041E00E947C1D84E0AD
:1014B00065E041E00E947C1D84E066E041E00E941E
:1014C0007C1D84E067E041E00E947C1D83E062E0D7
:1014D00041E00E947C1D83E063E041E00E947C1DAE
:1014E00083E063E040E00E947C1DFE01EF5AFF4F65
:1014F00080E090E0A8E4B2E480839183A283B38388
:101500008E01035B1F4FFE01EF5AFF4F6081718117
:101510008281938120E030E04AEF54E40E941F0270
:10152000DC01CB01F80180839183A283B383FE01A8
:10153000E35BFF4F608171818281938120E030E025
:1015400040E85FE30E942504882344F4FE01E55B44
:10155000FF4F81E090E09183808364C0FE01E35BF4
:10156000FF4F608171818281938120E03FEF4FE7DF
:1015700057E40E94C50318160CF043C0FE01EF5A51
:10158000FF4F608171818281938120E030E040E2F1
:1015900051E40E941F02DC01CB018E01055B1F4F4D
:1015A000BC01CD010E944900DC01CB01F80191830F
:1015B00080831FC0FE01E75BFF4F88EC90E09183C2
:1015C0008083FE01E75BFF4F808191810197F1F7F6
:1015D000FE01E75BFF4F91838083DE01A55BBF4F78
:1015E000FE01E55BFF4F80819181019711969C93ED
:1015F0008E93FE01E55BFF4F808191810097D1F6CC
:1016000027C08E01055B1F4FFE01E35BFF4F60812A
:101610007181828193810E944900DC01CB01F80134
:1016200091838083DE01A95BBF4FFE01E55BFF4F25
:10163000808191818D939C93FE01E95BFF4F8081B6
:1016400091810197F1F7FE01E95BFF4F9183808360
:1016500082E00E94290EFE01ED5BFF4F80E090E0EA
:10166000A0EAB0E480839183A283B3838E01015CFE
:101670001F4FFE01ED5BFF4F60817181828193817D
:1016800020E030E04AEF54E40E941F02DC01CB016D
:10169000F80180839183A283B383FE01FF9660816A
:1016A00071818281938120E030E040E85FE30E9415
:1016B000250488232CF481E090E09EAF8DAF46C0D6
:1016C000FE01FF96608171818281938120E03FEF6E
:1016D0004FE757E40E94C503181664F5FE01ED5B61
:1016E000FF4F608171818281938120E030E040E290
:1016F00051E40E941F02DC01CB01BC01CD010E941C
:101700004900DC01CB019EAF8DAF0FC088EC90E0AB
:101710009CAF8BAF8BAD9CAD0197F1F79CAF8BAFBE
:101720008DAD9EAD01979EAF8DAF8DAD9EAD0097F7
:1017300069F716C0FE01FF966081718182819381F5
:101740000E944900DC01CB019EAF8DAF8DAD9EADF7
:101750009AAF89AF89AD9AAD0197F1F79AAF89AF8A
:1017600088E20E94290E80E090E0A0EAB0E48DAB10
:101770009EABAFABB8AF6DA97EA98FA998AD20E0A5
:1017800030E04AEF54E40E941F02DC01CB0189AB38
:101790009AABABABBCAB69A97AA98BA99CA920E099
:1017A00030E040E85FE30E94250488232CF481E0C8
:1017B00090E098AB8FA73FC069A97AA98BA99CA993
:1017C00020E03FEF4FE757E40E94C50318164CF5A1
:1017D0006DA97EA98FA998AD20E030E040E251E4E8
:1017E0000E941F02DC01CB01BC01CD010E94490017
:1017F000DC01CB0198AB8FA70FC088EC90E09EA7CF
:101800008DA78DA59EA50197F1F79EA78DA78FA502
:1018100098A9019798AB8FA78FA598A9009769F70A
:1018200014C069A97AA98BA99CA90E944900DC016E
:10183000CB0198AB8FA78FA598A99CA78BA78BA549
:101840009CA50197F1F79CA78BA78CE00E94290E1D
:1018500080E090E0A0EAB0E48FA398A7A9A7BAA778
:101860006FA178A589A59AA520E030E04AEF54E45D
:101870000E941F02DC01CB018BA39CA3ADA3BEA3DE
:101880006BA17CA18DA19EA120E030E040E85FE348
:101890000E94250488232CF481E090E09AA389A378
:1018A0003FC06BA17CA18DA19EA120E03FEF4FE73F
:1018B00057E40E94C50318164CF56FA178A589A5B9
:1018C0009AA520E030E040E251E40E941F02DC01D2
:1018D000CB01BC01CD010E944900DC01CB019AA3E0
:1018E00089A30FC088EC90E098A38F8F8F8D98A16B
:1018F0000197F1F798A38F8F89A19AA101979AA3D5
:1019000089A389A19AA1009769F714C06BA17CA152
:101910008DA19EA10E944900DC01CB019AA389A35D
:1019200089A19AA19E8F8D8F8D8D9E8D0197F1F744
:101930009E8F8D8F81E00E94290E80E090E0A0EACA
:10194000B0E4898F9A8FAB8FBC8F698D7A8D8B8D28
:101950009C8D20E030E04AEF54E40E941F02DC013D
:10196000CB018D8B9E8BAF8BB88F6D897E898F89D4
:10197000988D20E030E040E85FE30E942504882352
:101980002CF481E090E09C8B8B8B3FC06D897E892D
:101990008F89988D20E03FEF4FE757E40E94C50301
:1019A00018164CF5698D7A8D8B8D9C8D20E030E07A
:1019B00040E251E40E941F02DC01CB01BC01CD01D9
:1019C0000E944900DC01CB019C8B8B8B0FC088EC03
:1019D00090E09A8B898B89899A890197F1F79A8B84
:1019E000898B8B899C8901979C8B8B8B8B899C899C
:1019F000009769F714C06D897E898F89988D0E9440
:101A00004900DC01CB019C8B8B8B8B899C89988B4B
:101A10008F878F8598890197F1F7988B8F8786E05C
:101A20000E94290E80E090E0A0EAB0E48B879C87BA
:101A3000AD87BE876B857C858D859E8520E030E0F7
:101A40004AEF54E40E941F02DC01CB018F83988788
:101A5000A987BA876F81788589859A8520E030E0EB
:101A600040E85FE30E94250488232CF481E090E0A5
:101A70009E838D833FC06F81788589859A8520E01C
:101A80003FEF4FE757E40E94C50318164CF56B85EE
:101A90007C858D859E8520E030E040E251E40E9407
:101AA0001F02DC01CB01BC01CD010E944900DC0119
:101AB000CB019E838D830FC088EC90E09C838B8349
:101AC0008B819C810197F1F79C838B838D819E8113
:101AD00001979E838D838D819E81009769F714C045
:101AE0006F81788589859A850E944900DC01CB0148
:101AF0009E838D838D819E819A83898389819A813A
:101B00000197F1F79A838983CC5ADF4F0FB6F89487
:101B1000DEBF0FBECDBFCF91DF911F910F91089512
:101B2000DF93CF93CDB7DEB72F970FB6F894DEBF14
:101B30000FBECDBF8F8783E062E040E00E947C1D36
:101B400084E06F850E94661F83E063E041E00E94AD
:101B50007C1D80E090E0A0EAB0E48B879C87AD8795
:101B6000BE876B857C858D859E8520E030E04AEFC1
:101B700054E40E941F02DC01CB018F839887A98760
:101B8000BA876F81788589859A8520E030E040E8C2
:101B90005FE30E94250488232CF481E090E09E837B
:101BA0008D833FC06F81788589859A8520E03FEFDE
:101BB0004FE757E40E94C50318164CF56B857C85EA
:101BC0008D859E8520E030E040E251E40E941F02B6
:101BD000DC01CB01BC01CD010E944900DC01CB013D
:101BE0009E838D830FC088EC90E09C838B838B81D8
:101BF0009C810197F1F79C838B838D819E81019756
:101C00009E838D838D819E81009769F714C06F81BB
:101C1000788589859A850E944900DC01CB019E83E5
:101C20008D838D819E819A83898389819A81019791
:101C3000F1F79A83898383E063E040E00E947C1D92
:101C40002F960FB6F894DEBF0FBECDBFCF91DF91B8
:101C500008950F931F93DF93CF93CDB7DEB7C1568F
:101C6000D0400FB6F894DEBF0FBECDBFFE01EF59D6
:101C7000FF4F8083FE01EF59FF4F8081807F84609A
:101C8000982F84E0692F0E94661F83E062E040E0A5
:101C90000E947C1D83E063E041E00E947C1DFE0108
:101CA000E35AFF4F80E090E0A0EAB0E480839183A4
:101CB000A283B3838E01075A1F4FFE01E35AFF4FE1
:101CC00060817181828193812BEA3AEA4AE250E491
:101CD0000E941F02DC01CB01F80180839183A28363
:101CE000B383FE01E75AFF4F608171818281938146
:101CF00020E030E040E85FE30E942504882334F4CC
:101D0000FE01E85AFF4F81E08083E0C0FE01E75A00
:101D1000FF4F608171818281938120E030E04FE745
:101D200053E40E94C50318160CF0C0C0FE01E35A2C
:101D3000FF4F608171818281938120E030E04AE72A
:101D400054E40E941903DC01CB01FE01EC5AFF4F61
:101D500080839183A283B3838E01005B1F4FFE01BA
:101D6000EC5AFF4F608171818281938120E030E0E5
:101D70004AEF54E40E941F02DC01CB01F80180838A
:101D80009183A283B383FE01E05BFF4F6081718189
:101D90008281938120E030E040E85FE30E942504E7
:101DA000882344F4FE01E25BFF4F81E090E09183E1
:101DB000808364C0FE01E05BFF4F6081718182819E
:101DC000938120E03FEF4FE757E40E94C5031816C8
:101DD0000CF043C0FE01EC5AFF4F6081718182819B
:101DE000938120E030E040E251E40E941F02DC01D8
:101DF000CB018E01025B1F4FBC01CD010E94490047
:101E0000DC01CB01F801918380831FC0FE01E45BFC
:101E1000FF4F88EC90E091838083FE01E45BFF4FED
:101E2000808191810197F1F7FE01E45BFF4F91837F
:101E30008083DE01A25BBF4FFE01E25BFF4F80812A
:101E40009181019711969C938E93FE01E25BFF4F67
:101E5000808191810097D1F64BC08E01025B1F4FAC
:101E6000FE01E05BFF4F60817181828193810E945E
:101E70004900DC01CB01F80191838083DE01A65B80
:101E8000BF4FFE01E25BFF4F8081918111969C93D1
:101E90008E93FE01E65BFF4F808191810197F1F700
:101EA000FE01E65BFF4F9183808322C08E01085ABA
:101EB0001F4FFE01E75AFF4F60817181828193813C
:101EC0000E944900DC01CB01F8018083DE01A75BA1
:101ED000BF4FFE01E85AFF4F80818C93FE01E75B04
:101EE000FF4F80818A95F1F7FE01E75BFF4F80830A
:101EF00083E063E040E00E947C1DFE01EB5BFF4F4E
:101F000080E090E0A8E4B3E480839183A283B3836C
:101F10008E010F5B1F4FFE01EB5BFF4F60817181F4
:101F2000828193812BEA3AEA4AE250E40E941F023E
:101F3000DC01CB01F80180839183A283B383FE018E
:101F4000EF5BFF4F608171818281938120E030E0FF
:101F500040E85FE30E942504882334F481E0FE0119
:101F6000E05CFF4F80839DC0FE01EF5BFF4F60810F
:101F700071818281938120E030E04FE753E40E9439
:101F8000C50318160CF07EC0FE01EB5BFF4F6081AD
:101F900071818281938120E030E04AE754E40E941D
:101FA0001903DC01CB018CAF9DAFAEAFBFAF6CAD01
:101FB0007DAD8EAD9FAD20E030E04AEF54E40E944D
:101FC0001F02DC01CB0188AF99AFAAAFBBAF68ADF0
:101FD00079AD8AAD9BAD20E030E040E85FE30E9440
:101FE000250488232CF481E090E09FAB8EAB3FC0AA
:101FF00068AD79AD8AAD9BAD20E03FEF4FE757E488
:102000000E94C50318164CF56CAD7DAD8EAD9FAD2D
:1020100020E030E040E251E40E941F02DC01CB01ED
:10202000BC01CD010E944900DC01CB019FAB8EAB0E
:102030000FC088EC90E09DAB8CAB8CA99DA901975B
:10204000F1F79DAB8CAB8EA99FA901979FAB8EAB8F
:102050008EA99FA9009769F72DC068AD79AD8AADAB
:102060009BAD0E944900DC01CB019FAB8EAB8EA9DA
:102070009FA99BAB8AAB8AA99BA90197F1F79BAB60
:102080008AAB18C0FE01EF5BFF4F608171818281D6
:1020900093810E944900DC01CB01FE01E05CFF4F0F
:1020A0008083FE01E05CFF4F808189AB89A98A951E
:1020B000F1F789ABFE01EF59FF4F8081882F90E047
:1020C00082959295907F9827807F98278460982F9B
:1020D00084E0692F0E94661F83E063E041E00E9474
:1020E0007C1D80E090E0A0EAB0E48DA79EA7AFA79A
:1020F000B8AB6DA57EA58FA598A92BEA3AEA4AE26E
:1021000050E40E941F02DC01CB0189A79AA7ABA76C
:10211000BCA769A57AA58BA59CA520E030E040E886
:102120005FE30E94250488231CF481E088A791C006
:1021300069A57AA58BA59CA520E030E04FE753E484
:102140000E94C50318160CF07BC06DA57EA58FA557
:1021500098A920E030E04AE754E40E941903DC012A
:10216000CB018CA39DA3AEA3BFA36CA17DA18EA127
:102170009FA120E030E04AEF54E40E941F02DC01FE
:10218000CB0188A399A3AAA3BBA368A179A18AA123
:102190009BA120E030E040E85FE30E942504882313
:1021A0002CF481E090E09F8F8E8F3FC068A179A1D1
:1021B0008AA19BA120E03FEF4FE757E40E94C503AF
:1021C00018164CF56CA17DA18EA19FA120E030E0F6
:1021D00040E251E40E941F02DC01CB01BC01CD01B1
:1021E0000E944900DC01CB019F8F8E8F0FC088ECCD
:1021F00090E09D8F8C8F8C8D9D8D0197F1F79D8F39
:102200008C8F8E8D9F8D01979F8F8E8F8E8D9F8D42
:10221000009769F724C068A179A18AA19BA10E94B7
:102220004900DC01CB019F8F8E8F8E8D9F8D9B8F00
:102230008A8F8A8D9B8D0197F1F79B8F8A8F0FC0B4
:1022400069A57AA58BA59CA50E944900DC01CB015C
:1022500088A788A5898F898D8A95F1F7898F83E072
:1022600063E040E00E947C1D80E090E0A0EAB0E4E2
:102270008D8B9E8BAF8BB88F6D897E898F89988D62
:102280002BEA3AEA4AE250E40E941F02DC01CB0149
:10229000898B9A8BAB8BBC8B69897A898B899C895A
:1022A00020E030E040E85FE30E94250488231CF42E
:1022B00081E0888B91C069897A898B899C8920E02B
:1022C00030E04FE753E40E94C50318160CF07BC0C2
:1022D0006D897E898F89988D20E030E04AE754E44B
:1022E0000E941903DC01CB018C879D87AE87BF87D5
:1022F0006C857D858E859F8520E030E04AEF54E433
:102300000E941F02DC01CB0188879987AA87BB87BF
:10231000688579858A859B8520E030E040E85FE329
:102320000E94250488232CF481E090E09F838E8313
:102330003FC0688579858A859B8520E03FEF4FE720
:1023400057E40E94C50318164CF56C857D858E8573
:102350009F8520E030E040E251E40E941F02DC0152
:10236000CB01BC01CD010E944900DC01CB019F8360
:102370008E830FC088EC90E09D838C838C819D813F
:102380000197F1F79D838C838E819F8101979F83B5
:102390008E838E819F81009769F724C06885798537
:1023A0008A859B850E944900DC01CB019F838E8337
:1023B0008E819F819B838A838A819B810197F1F71C
:1023C0009B838A830FC069897A898B899C890E9443
:1023D0004900DC01CB01888B8889898389818A95B2
:1023E000F1F78983CF59DF4F0FB6F894DEBF0FBEE8
:1023F000CDBFCF91DF911F910F910895DF93CF93C0
:10240000CDB7DEB72F970FB6F894DEBF0FBECDBFA6
:102410008F8783E062E041E00E947C1D84E06F854D
:102420000E94661F83E063E041E00E947C1D80E023
:1024300090E0A0EAB0E48B879C87AD87BE876B8570
:102440007C858D859E8520E030E04AEF54E40E9433
:102450001F02DC01CB018F839887A987BA876F8120
:10246000788589859A8520E030E040E85FE30E9426
:10247000250488232CF481E090E09E838D833FC067
:102480006F81788589859A8520E03FEF4FE757E493
:102490000E94C50318164CF56B857C858D859E853D
:1024A00020E030E040E251E40E941F02DC01CB0159
:1024B000BC01CD010E944900DC01CB019E838D83CC
:1024C0000FC088EC90E09C838B838B819C8101976B
:1024D000F1F79C838B838D819E8101979E838D83F1
:1024E0008D819E81009769F714C06F8178858985F9
:1024F0009A850E944900DC01CB019E838D838D81EA
:102500009E819A83898389819A810197F1F79A83C1
:10251000898383E063E040E00E947C1D2F960FB624
:10252000F894DEBF0FBECDBFCF91DF9108950F931A
:102530001F93DF93CF93CDB7DEB7C156D0400FB610
:10254000F894DEBF0FBECDBFFE01EF59FF4F808371
:1025500083E062E041E00E947C1DFE01EF59FF4FE5
:102560008081807F8460982F84E0692F0E94661F9D
:1025700083E063E041E00E947C1DFE01E35AFF4FCF
:1025800080E090E0A0EAB0E480839183A283B383EB
:102590008E01075A1F4FFE01E35AFF4F6081718180
:1025A000828193812BEA3AEA4AE250E40E941F02B8
:1025B000DC01CB01F80180839183A283B383FE0108
:1025C000E75AFF4F608171818281938120E030E082
:1025D00040E85FE30E942504882334F4FE01E85AB2
:1025E000FF4F81E08083E0C0FE01E75AFF4F60812A
:1025F00071818281938120E030E04FE753E40E94B3
:10260000C50318160CF0C0C0FE01E35AFF4F6081ED
:1026100071818281938120E030E04AE754E40E9496
:102620001903DC01CB01FE01EC5AFF4F808391833B
:10263000A283B3838E01005B1F4FFE01EC5AFF4F54
:10264000608171818281938120E030E04AEF54E41F
:102650000E941F02DC01CB01F80180839183A283D9
:10266000B383FE01E05BFF4F6081718182819381C2
:1026700020E030E040E85FE30E942504882344F432
:10268000FE01E25BFF4F81E090E09183808364C0B4
:10269000FE01E05BFF4F608171818281938120E0C8
:1026A0003FEF4FE757E40E94C50318160CF043C0F4
:1026B000FE01EC5AFF4F608171818281938120E09D
:1026C00030E040E251E40E941F02DC01CB018E01A8
:1026D000025B1F4FBC01CD010E944900DC01CB0110
:1026E000F801918380831FC0FE01E45BFF4F88ECFB
:1026F00090E091838083FE01E45BFF4F80819181B4
:102700000197F1F7FE01E45BFF4F91838083DE01C7
:10271000A25BBF4FFE01E25BFF4F80819181019779
:1027200011969C938E93FE01E25BFF4F8081918115
:102730000097D1F64BC08E01025B1F4FFE01E05B9C
:10274000FF4F60817181828193810E944900DC0189
:10275000CB01F80191838083DE01A65BBF4FFE01B0
:10276000E25BFF4F8081918111969C938E93FE01D5
:10277000E65BFF4F808191810197F1F7FE01E65BF7
:10278000FF4F9183808322C08E01085A1F4FFE01A4
:10279000E75AFF4F60817181828193810E944900D5
:1027A000DC01CB01F8018083DE01A75BBF4FFE0196
:1027B000E85AFF4F80818C93FE01E75BFF4F8081D9
:1027C0008A95F1F7FE01E75BFF4F808383E063E0CA
:1027D00040E00E947C1DFE01EB5BFF4F80E090E03B
:1027E000A8E4B3E480839183A283B3838E010F5B5B
:1027F0001F4FFE01EB5BFF4F6081718182819381EE
:102800002BEA3AEA4AE250E40E941F02DC01CB01C3
:10281000F80180839183A283B383FE01EF5BFF4FB6
:10282000608171818281938120E030E040E85FE344
:102830000E942504882334F481E0FE01E05CFF4F10
:1028400080839DC0FE01EF5BFF4F608171818281BB
:10285000938120E030E04FE753E40E94C50318164F
:102860000CF07EC0FE01EB5BFF4F608171818281C5
:10287000938120E030E04AE754E40E941903DC0130
:10288000CB018CAF9DAFAEAFBFAF6CAD7DAD8EADAC
:102890009FAD20E030E04AEF54E40E941F02DC01CB
:1028A000CB0188AF99AFAAAFBBAF68AD79AD8AADA8
:1028B0009BAD20E030E040E85FE30E9425048823E0
:1028C0002CF481E090E09FAB8EAB3FC068AD79AD5A
:1028D0008AAD9BAD20E03FEF4FE757E40E94C50370
:1028E00018164CF56CAD7DAD8EAD9FAD20E030E09F
:1028F00040E251E40E941F02DC01CB01BC01CD018A
:102900000E944900DC01CB019FAB8EAB0FC088EC6D
:1029100090E09DAB8CAB8CA99DA90197F1F79DAB85
:102920008CAB8EA99FA901979FAB8EAB8EA99FA957
:10293000009769F72DC068AD79AD8AAD9BAD0E9457
:102940004900DC01CB019FAB8EAB8EA99FA99BAB4D
:102950008AAB8AA99BA90197F1F79BAB8AAB18C0F8
:10296000FE01EF5BFF4F60817181828193810E9444
:102970004900DC01CB01FE01E05CFF4F8083FE01DA
:10298000E05CFF4F808189AB89A98A95F1F789AB1B
:10299000FE01EF59FF4F8081882F90E0829592953C
:1029A000907F9827807F98278460982F84E0692FF4
:1029B0000E94661F83E063E041E00E947C1D80E08E
:1029C00090E0A0EAB0E48DA79EA7AFA7B8AB6DA535
:1029D0007EA58FA598A92BEA3AEA4AE250E40E9424
:1029E0001F02DC01CB0189A79AA7ABA7BCA769A5E9
:1029F0007AA58BA59CA520E030E040E85FE30E942B
:102A0000250488231CF481E088A791C069A57AA5D4
:102A10008BA59CA520E030E04FE753E40E94C5035E
:102A200018160CF07BC06DA57EA58FA598A920E097
:102A300030E04AE754E40E941903DC01CB018CA387
:102A40009DA3AEA3BFA36CA17DA18EA19FA120E0F9
:102A500030E04AEF54E40E941F02DC01CB0188A35E
:102A600099A3AAA3BBA368A179A18AA19BA120E0F5
:102A700030E040E85FE30E94250488232CF481E0E5
:102A800090E09F8F8E8F3FC068A179A18AA19BA102
:102A900020E03FEF4FE757E40E94C50318164CF5BE
:102AA0006CA17DA18EA19FA120E030E040E251E425
:102AB0000E941F02DC01CB01BC01CD010E94490034
:102AC000DC01CB019F8F8E8F0FC088EC90E09D8F33
:102AD0008C8F8C8D9D8D0197F1F79D8F8C8F8E8DB6
:102AE0009F8D01979F8F8E8F8E8D9F8D009769F799
:102AF00024C068A179A18AA19BA10E944900DC01A0
:102B0000CB019F8F8E8F8E8D9F8D9B8F8A8F8A8D0D
:102B10009B8D0197F1F79B8F8A8F0FC069A57AA5CE
:102B20008BA59CA50E944900DC01CB0188A788A544
:102B3000898F898D8A95F1F7898F83E063E040E082
:102B40000E947C1D80E090E0A8E4B3E48D8B9E8B16
:102B5000AF8BB88F6D897E898F89988D2BEA3AEA81
:102B60004AE250E40E941F02DC01CB01898B9A8B60
:102B7000AB8BBC8B69897A898B899C8920E030E09A
:102B800040E85FE30E94250488231CF481E0888BE1
:102B900091C069897A898B899C8920E030E04FE770
:102BA00053E40E94C50318160CF07BC06D897E8922
:102BB0008F89988D20E030E04AE754E40E941903A1
:102BC000DC01CB018C879D87AE87BF876C857D85B7
:102BD0008E859F8520E030E04AEF54E40E941F027A
:102BE000DC01CB0188879987AA87BB8768857985AF
:102BF0008A859B8520E030E040E85FE30E94250461
:102C000088232CF481E090E09F838E833FC0688509
:102C100079858A859B8520E03FEF4FE757E40E9446
:102C2000C50318164CF56C857D858E859F8520E043
:102C300030E040E251E40E941F02DC01CB01BC0104
:102C4000CD010E944900DC01CB019F838E830FC020
:102C500088EC90E09D838C838C819D810197F1F7B6
:102C60009D838C838E819F8101979F838E838E812C
:102C70009F81009769F724C0688579858A859B853F
:102C80000E944900DC01CB019F838E838E819F814E
:102C90009B838A838A819B810197F1F79B838A8337
:102CA0000FC069897A898B899C890E944900DC015F
:102CB000CB01888B8889898389818A95F1F78983FB
:102CC000CF59DF4F0FB6F894DEBF0FBECDBFCF9107
:102CD000DF911F910F910895DF93CF9300D000D023
:102CE000CDB7DEB79B838A836C8319820EC089813E
:102CF000282F30E08A819B81FC01E20FF31F808145
:102D00000E94FE1189818F5F898399818C81981738
:102D100070F30F900F900F900F90CF91DF91089567
:102D2000DF93CF9300D000D0CDB7DEB79B838A83EB
:102D30006C8319820EC08981282F30E08A819B81A3
:102D4000FC01E20FF31F80810E94971289818F5F3F
:102D5000898399818C81981770F30F900F900F9051
:102D60000F90CF91DF910895DF93CF9300D000D0E3
:102D7000CDB7DEB789836A8389818031C8F48A81BF
:102D8000282F30E03C832B838B819C8181309105FF
:102D900031F02B813C812230310531F009C089812D
:102DA00080580E94900D04C0898180540E94900D2B
:102DB0000F900F900F900F90CF91DF910895DF93B8
:102DC000CF9300D000D0CDB7DEB789836A838981E5
:102DD0008031C8F48A81282F30E03C832B838B819B
:102DE0009C818130910531F02B813C81223031056D
:102DF00031F009C0898180580E94290E04C0898160
:102E000080540E94290E0F900F900F900F90CF9139
:102E1000DF910895DF93CF9300D0CDB7DEB78983DC
:102E20006A830F900F90CF91DF910895DF93CF9336
:102E3000CDB7DEB762970FB6F894DEBF0FBECDBF39
:102E4000988B8F877A8B698BE989FA898081282F03
:102E500030E08F859889FC01E20FF31F8081803379
:102E600068F0E989FA898081282F30E08F85988978
:102E7000FC01E20FF31F80818A33A8F1E989FA8906
:102E80008081282F30E08F859889FC01E20FF31FA5
:102E90008081813468F0E989FA898081282F30E0C7
:102EA0008F859889FC01E20FF31F80818534D8F06B
:102EB000E989FA898081282F30E08F859889FC0183
:102EC000E20FF31F80818A3271F0E989FA898081EB
:102ED000282F30E08F859889FC01E20FF31F808155
:102EE000833209F086C0E989FA898081282F30E091
:102EF0008F859889FC01E20FF31F80810E94971251
:102F000080E090E0AAEFB3E48B879C87AD87BE8713
:102F10006B857C858D859E8520E030E04AEF54E40A
:102F20000E941F02DC01CB018F839887A987BA8793
:102F30006F81788589859A8520E030E040E85FE3FD
:102F40000E94250488232CF481E090E09E838D83E9
:102F50003FC06F81788589859A8520E03FEF4FE7F4
:102F600057E40E94C50318164CF56B857C858D854A
:102F70009E8520E030E040E251E40E941F02DC0127
:102F8000CB01BC01CD010E944900DC01CB019E8335
:102F90008D830FC088EC90E09C838B838B819C8118
:102FA0000197F1F79C838B838D819E8101979E838E
:102FB0008D838D819E81009769F714C06F8178851C
:102FC00089859A850E944900DC01CB019E838D830F
:102FD0008D819E819A83898389819A810197F1F7F6
:102FE0009A838983E989FA8980818F5FE989FA89DF
:102FF000808362960FB6F894DEBF0FBECDBFCF912F
:10300000DF910895DF93CF930F92CDB7DEB719828A
:1030100008C081E0698141E00E94A81F89818F5F1B
:10302000898389818430A8F384E0898308C081E0A2
:10303000698141E00E947C1D89818F5F898389813C
:103040008830A8F30F90CF91DF910895DF93CF934D
:10305000CDB7DEB764970FB6F894DEBF0FBECDBF15
:103060008FEF8C8B1F861B8AB6C084E0898B08C0CB
:1030700081E0698941E00E947C1D89898F5F898B8D
:1030800089898830A8F38B89982F9C5F81E0692F0C
:1030900040E00E947C1D1A8A94C081E06A890E94E7
:1030A0006F1E888B80E090E0A0EAB1E48B879C875C
:1030B000AD87BE876B857C858D859E8520E030E061
:1030C0004AEF54E40E941F02DC01CB018F839887F2
:1030D000A987BA876F81788589859A8520E030E055
:1030E00040E85FE30E94250488232CF481E090E00F
:1030F0009E838D833FC06F81788589859A8520E086
:103100003FEF4FE757E40E94C50318164CF56B8557
:103110007C858D859E8520E030E040E251E40E9470
:103120001F02DC01CB01BC01CD010E944900DC0182
:10313000CB019E838D830FC088EC90E09C838B83B2
:103140008B819C810197F1F79C838B838D819E817C
:1031500001979E838D838D819E81009769F714C0AE
:103160006F81788589859A850E944900DC01CB01B1
:103170009E838D838D819E819A83898389819A81A3
:103180000197F1F79A83898388898823B9F48A891A
:10319000482F50E08B89282F30E0CA01880F991FF3
:1031A000880F991F820F931FFC01ED54FF4F808100
:1031B0008C8B81E08F878F85813039F08A898F5F92
:1031C0008A8B8A89843008F468CF8F85813039F002
:1031D0008B898F5F8B8B8B89843008F446CF8C89E9
:1031E00064960FB6F894DEBF0FBECDBFCF91DF91CE
:1031F0000895DF93CF93CDB7DEB7A5E5B0E0E5E561
:10320000F0E080818E7F8C93A5E5B0E0E5E5F0E00D
:10321000808182608C93A5E5B0E0E5E5F0E08081F7
:103220008B7F8C93A5E5B0E0E5E5F0E080818860D8
:103230008C93A4E5B0E0E4E5F0E080818F7B8C9393
:10324000CF91DF910895DF93CF9300D00F92CDB748
:10325000DEB789838981282F30E03B832A838A81E6
:103260009B818130910589F02A813B812230310593
:10327000A1F08A819B810097B9F4ABE5B0E0EBE562
:10328000F0E0808180648C930FC0ABE5B0E0EBE5AB
:10329000F0E0808180688C9307C0ABE5B0E0EBE59F
:1032A000F0E0808180628C930F900F900F90CF910F
:1032B000DF910895DF93CF9300D00F92CDB7DEB7A3
:1032C00089838981282F30E03B832A838A819B81EF
:1032D0008130910589F02A813B8122303105A1F0AE
:1032E0008A819B810097B9F4ABE5B0E0EBE5F0E0B3
:1032F00080818F7B8C930FC0ABE5B0E0EBE5F0E015
:1033000080818F778C9307C0ABE5B0E0EBE5F0E010
:1033100080818F7D8C930F900F900F90CF91DF91D4
:103320000895DF93CF9300D0CDB7DEB79A8389831A
:1033300089819A819093C5008093C4000F900F906B
:10334000CF91DF910895DF93CF9300D0CDB7DEB753
:103350009A83898389819A819093C7008093C6005C
:103360000F900F90CF91DF910895DF93CF9300D00E
:10337000CDB7DEB79A83898389819A819093C900FA
:103380008093C8000F900F90CF91DF9108951F9206
:103390000F920FB60F9211242F933F934F935F9389
:1033A0006F937F938F939F93AF93BF93EF93FF930D
:1033B000DF93CF93CDB7DEB7E091C400F091C500A5
:1033C0000995CF91DF91FF91EF91BF91AF919F91BF
:1033D0008F917F916F915F914F913F912F910F90BE
:1033E0000FBE0F901F9018951F920F920FB60F925D
:1033F00011242F933F934F935F936F937F938F93FA
:103400009F93AF93BF93EF93FF93DF93CF93CDB78A
:10341000DEB7E091C600F091C7000995CF91DF912A
:10342000FF91EF91BF91AF919F918F917F916F919C
:103430005F914F913F912F910F900FBE0F901F9072
:1034400018951F920F920FB60F9211242F933F934E
:103450004F935F936F937F938F939F93AF93BF939C
:10346000EF93FF93DF93CF93CDB7DEB7E091C80022
:10347000F091C9000995CF91DF91FF91EF91BF9134
:10348000AF919F918F917F916F915F914F913F91FC
:103490002F910F900FBE0F901F901895DF93CF9331
:1034A000CDB7DEB7AFE5B0E0EFE5F0E08081806852
:1034B0008C93CF91DF910895DF93CF93CDB7DEB793
:1034C000AFE5B0E0EFE5F0E080818F778C93CF91AE
:1034D000DF910895DF93CF9300D00F92CDB7DEB781
:1034E00089837B836A830E940C1C80EA0E946E1C85
:1034F00089810E94E41C0E943D1C80EA0E94AC1C51
:103500008A819B810E94141D0E94491D0F900F907B
:103510000F90CF91DF910895DF93CF93CDB7DEB7B2
:1035200060970FB6F894DEBF0FBECDBF8F87688B54
:103530000E940C1C80EA0E946E1C8F850E94E41C75
:1035400088890E94E41C0E94491D80E090E0A0E26E
:10355000B1E48B879C87AD87BE876B857C858D8525
:103560009E8520E030E04AEF54E40E941F02DC0117
:10357000CB018F839887A987BA876F8178858985E2
:103580009A8520E030E040E85FE30E94250488232C
:103590002CF481E090E09E838D833FC06F8178851D
:1035A00089859A8520E03FEF4FE757E40E94C503E5
:1035B00018164CF56B857C858D859E8520E030E066
:1035C00040E251E40E941F02DC01CB01BC01CD01AD
:1035D0000E944900DC01CB019E838D830FC088ECE3
:1035E00090E09C838B838B819C810197F1F79C8376
:1035F0008B838D819E8101979E838D838D819E819A
:10360000009769F714C06F81788589859A850E9433
:103610004900DC01CB019E838D838D819E819A833D
:10362000898389819A810197F1F79A8389836096CA
:103630000FB6F894DEBF0FBECDBFCF91DF910895D6
:10364000DF93CF93CDB7DEB763970FB6F894DEBFA5
:103650000FBECDBF888B7A8B698B4B8B0E940C1C65
:1036600080EA0E946E1C88890E94E41C1F8680C02C
:103670008F85282F30E089899A89FC01E20FF31F9A
:1036800080810E94E41C80E090E0A0EAB0E48B8797
:103690009C87AD87BE876B857C858D859E8520E068
:1036A00030E04AEF54E40E941F02DC01CB018F831B
:1036B0009887A987BA876F81788589859A8520E060
:1036C00030E040E85FE30E94250488232CF481E089
:1036D00090E09E838D833FC06F81788589859A8530
:1036E00020E03FEF4FE757E40E94C50318164CF562
:1036F0006B857C858D859E8520E030E040E251E43D
:103700000E941F02DC01CB01BC01CD010E944900D7
:10371000DC01CB019E838D830FC088EC90E09C83FD
:103720008B838B819C810197F1F79C838B838D81A7
:103730009E8101979E838D838D819E81009769F77D
:1037400014C06F81788589859A850E944900DC01C3
:10375000CB019E838D838D819E819A83898389810C
:103760009A810197F1F79A8389838F858F5F8F877D
:103770009F858B89981708F47BCF0E94491D63961B
:103780000FB6F894DEBF0FBECDBFCF91DF91089585
:10379000DF93CF93CDB7DEB7E0E2F0E082E0808345
:1037A000A1E2B0E0E1E2F0E080818E7F8C93A1E2C3
:1037B000B0E0E1E2F0E080818D7F8C93A6E5B0E09F
:1037C000E6E5F0E0808180648C93E2E2F0E084E161
:1037D0008083A6E5B0E0E6E5F0E0808184608C932C
:1037E000CF91DF910895DF93CF93CDB7DEB7A6E5F4
:1037F000B0E0E6E5F0E0808180648C93E2E2F0E006
:1038000088E28083A6E5B0E0E6E5F0E080818460B0
:103810008C93CF91DF910895DF93CF930F92CDB723
:10382000DEB71982A6E5B0E0E6E5F0E080818062CF
:103830008C93A6E5B0E0E6E5F0E0808180688C93AB
:10384000A6E5B0E0E6E5F0E0808184608C93E6E5F3
:10385000F0E080818823DCF7E1E2F0E08081882FCE
:1038600090E0887F90708830910511F081E0898325
:1038700089810F90CF91DF910895DF93CF930F92BD
:10388000CDB7DEB71982A6E5B0E0E6E5F0E08081CD
:1038900080628C93A6E5B0E0E6E5F0E08081806888
:1038A0008C93A6E5B0E0E6E5F0E0808184608C933F
:1038B000E6E5F0E080818823DCF7E1E2F0E080815A
:1038C000882F90E0887F90708031910511F082E020
:1038D000898389810F90CF91DF910895DF93CF93F2
:1038E00000D0CDB7DEB78A831982E3E2F0E08A81A7
:1038F0008083A6E5B0E0E6E5F0E080818F7D8C93E3
:10390000A3E2B0E0E3E2F0E080818E7F8C93A6E555
:10391000B0E0E6E5F0E0808180688C93A6E5B0E059
:10392000E6E5F0E0808184608C93E6E5F0E080815C
:103930008823DCF7E1E2F0E08081882F90E0887F47
:1039400090708032910511F483E0898389810F9012
:103950000F90CF91DF910895DF93CF9300D0CDB733
:10396000DEB78A831982E3E2F0E08A818160808396
:10397000A6E5B0E0E6E5F0E080818F7D8C93A6E5DA
:10398000B0E0E6E5F0E0808180688C93A6E5B0E0E9
:10399000E6E5F0E0808184608C93E6E5F0E08081EC
:1039A0008823DCF7E1E2F0E08081882F90E0887FD7
:1039B00090708833910511F484E0898389810F9098
:1039C0000F90CF91DF910895DF93CF9300D0CDB7C3
:1039D000DEB78A831982E3E2F0E08A818083A6E57C
:1039E000B0E0E6E5F0E0808180688C93A6E5B0E089
:1039F000E6E5F0E0808184608C93E6E5F0E080818C
:103A00008823DCF7E1E2F0E08081882F90E0887F76
:103A100090708033910511F485E0898389810F903E
:103A20000F90CF91DF910895DF93CF9300D00F9245
:103A3000CDB7DEB79B838A831982A6E5B0E0E6E5C1
:103A4000F0E0808180688C93A6E5B0E0E6E5F0E0E8
:103A5000808184608C93E6E5F0E080818823DCF748
:103A6000E1E2F0E08081882F90E0887F90708835D7
:103A7000910511F486E08983E3E2F0E08081EA8138
:103A8000FB81808389810F900F900F90CF91DF9100
:103A90000895DF93CF93CDB7DEB7A6E5B0E0E6E5B6
:103AA000F0E0808180618C93A6E5B0E0E6E5F0E08F
:103AB000808180688C93A6E5B0E0E6E5F0E0808147
:103AC00084608C93CF91DF910895DF93CF93CDB72E
:103AD000DEB7EAE3F0E080EF8083E7E3F0E08FEF2A
:103AE0008083E4E3F0E08FEF8083E1E3F0E08FEFA9
:103AF0008083CF91DF910895DF93CF9300D000D0E2
:103B00000F92CDB7DEB789836A834B838981282FD3
:103B100030E03D832C838C819D818230910509F4B6
:103B200048C02C813D812330310534F48C819D8146
:103B30008130910571F0CBC02C813D81233031055E
:103B400009F467C08C819D818430910509F491C08E
:103B5000BEC08B818130A1F4ABE3B0E0EBE3F0E0D9
:103B60008081482F8A81282F30E081E090E0022E6A
:103B700002C0880F991F0A94E2F7842B8C93A7C088
:103B80008B81882309F0A3C0ABE3B0E0EBE3F0E066
:103B90008081482F8A81282F30E081E090E0022E3A
:103BA00002C0880F991F0A94E2F7809584238C93B2
:103BB0008EC08B818130A1F4A8E3B0E0E8E3F0E0AF
:103BC0008081482F8A81282F30E081E090E0022E0A
:103BD00002C0880F991F0A94E2F7842B8C9377C058
:103BE0008B81882309F073C0A8E3B0E0E8E3F0E03C
:103BF0008081482F8A81282F30E081E090E0022EDA
:103C000002C0880F991F0A94E2F7809584238C9351
:103C10005EC08B818130A1F4A5E3B0E0E5E3F0E084
:103C20008081482F8A81282F30E081E090E0022EA9
:103C300002C0880F991F0A94E2F7842B8C9347C027
:103C40008B81882309F043C0A5E3B0E0E5E3F0E011
:103C50008081482F8A81282F30E081E090E0022E79
:103C600002C0880F991F0A94E2F7809584238C93F1
:103C70002EC08B818130A1F4A2E3B0E0E2E3F0E05A
:103C80008081482F8A81282F30E081E090E0022E49
:103C900002C0880F991F0A94E2F7842B8C9317C0F7
:103CA0008B818823A1F4A2E3B0E0E2E3F0E080811D
:103CB000482F8A81282F30E081E090E0022E02C058
:103CC000880F991F0A94E2F7809584238C930F90B4
:103CD0000F900F900F900F90CF91DF910895DF9389
:103CE000CF9300D000D00F92CDB7DEB78A836B831D
:103CF0008A81282F30E03D832C834C815D814230C6
:103D0000510541F18C819D818330910534F42C81E2
:103D10003D812130310561F052C04C815D814330DD
:103D2000510551F18C819D8184309105B9F147C0D5
:103D3000E9E3F0E08081282F30E08B81882F90E04C
:103D4000A90102C0559547958A95E2F7CA0181708D
:103D5000898335C0E6E3F0E08081282F30E08B8155
:103D6000882F90E0A90102C0559547958A95E2F702
:103D7000CA018170898323C0E3E3F0E08081282FAA
:103D800030E08B81882F90E0A90102C055954795BE
:103D90008A95E2F7CA018170898311C0E0E3F0E0FF
:103DA0008081282F30E08B81882F90E0A90102C00C
:103DB000559547958A95E2F7CA0181708983898173
:103DC0000F900F900F900F900F90CF91DF9108956B
:103DD000DF93CF9300D000D0CDB7DEB789836A835D
:103DE0008981282F30E03C832B838B819C8182301A
:103DF000910551F12B813C812330310534F48B81C5
:103E00009C818130910561F05AC02B813C81233027
:103E1000310571F18B819C8184309105E9F14FC0AE
:103E2000ABE3B0E0EBE3F0E08081482F8A81282FFC
:103E300030E081E090E0022E02C0880F991F0A94C2
:103E4000E2F784278C933BC0A8E3B0E0E8E3F0E01E
:103E50008081482F8A81282F30E081E090E0022E77
:103E600002C0880F991F0A94E2F784278C9327C019
:103E7000A5E3B0E0E5E3F0E08081482F8A81282FB8
:103E800030E081E090E0022E02C0880F991F0A9472
:103E9000E2F784278C9313C0A2E3B0E0E2E3F0E002
:103EA0008081482F8A81282F30E081E090E0022E27
:103EB00002C0880F991F0A94E2F784278C930F9011
:103EC0000F900F900F90CF91DF910895DF93CF93D4
:103ED00000D000D0CDB7DEB789836A838981282FCF
:103EE00030E03C832B838B819C8182309105D9F01B
:103EF0002B813C812330310534F48B819C818130CE
:103F0000910561F01EC02B813C812330310581F089
:103F10008B819C818430910581F013C0EBE3F0E04C
:103F20008A8180830EC0E8E3F0E08A81808309C043
:103F3000E5E3F0E08A81808304C0E2E3F0E08A8177
:103F400080830F900F900F900F90CF91DF91089585
:103F5000DF93CF9300D000D000D0CDB7DEB78A83F7
:103F60006B834C838A81282F30E03E832D834D81E3
:103F70005E814230510541F18D819E8183309105F2
:103F800034F42D813E812130310561F052C04D81E4
:103F90005E814330510551F18D819E8184309105C0
:103FA000B9F147C0EAE3F0E08081282F30E08B814F
:103FB000882F90E0A90102C0559547958A95E2F7B0
:103FC000CA018170898335C0E7E3F0E08081282F42
:103FD00030E08B81882F90E0A90102C0559547956C
:103FE0008A95E2F7CA018170898323C0E4E3F0E097
:103FF0008081282F30E08B81882F90E0A90102C0BA
:10400000559547958A95E2F7CA018170898311C059
:10401000E1E3F0E08081282F30E08B81882F90E071
:10402000A90102C0559547958A95E2F7CA018170AA
:1040300089838981882329F48A816B814C810E943C
:104040007C1D26960FB6F894DEBF0FBECDBFCF9174
:10405000DF9108950F931F93DF93CF93CDB7DEB712
:1040600061970FB6F894DEBF0FBECDBF0E94651DED
:104070000E9402180E94410A0E94C81B0E94F9185F
:1040800082E060E040E00E947C1D82E063E040E06E
:104090000E947C1D82E062E041E00E947C1D84E081
:1040A00063E041E00E947C1D80E690E06DE00E94AC
:1040B000901685E0888B198A87C0898962E00E9402
:1040C000DF168989082F10E00E942618F801E653B0
:1040D000FF4F80838AEC90E09E012F5E3F4FB90135
:1040E0000E94161780E090E0A8E4B3E48B879C87D9
:1040F000AD87BE876B857C858D859E8520E030E011
:104100004AEF54E40E941F02DC01CB018F839887A1
:10411000A987BA876F81788589859A8520E030E004
:1041200040E85FE30E94250488232CF481E090E0BE
:104130009E838D833FC06F81788589859A8520E035
:104140003FEF4FE757E40E94C50318164CF56B8507
:104150007C858D859E8520E030E040E251E40E9420
:104160001F02DC01CB01BC01CD010E944900DC0132
:10417000CB019E838D830FC088EC90E09C838B8362
:104180008B819C810197F1F79C838B838D819E812C
:1041900001979E838D838D819E81009769F714C05E
:1041A0006F81788589859A850E944900DC01CB0161
:1041B0009E838D838D819E819A83898389819A8153
:1041C0000197F1F79A83898399898889981708F468
:1041D00074CF1F860EC08F85882F90E0FC01E653B8
:1041E000FF4F90818F85692F0E948C1A8F858F5F7A
:1041F0008F879F858889981770F381E00E94290E28
:1042000086E061E00E94DF168EE690E064E00E94A6
:10421000901685E062E00E94DF1683E790E066E09A
:104220000E94901680E00E9423198CE191E20E9486
:10423000B5190E944E1AFFCF0F931F93DF93CF93B0
:10424000CDB7DEB7AD970FB6F894DEBF0FBECDBFCA
:1042500081E00E94290E85E061E00E94DF168AE776
:1042600090E067E00E94901680E090E8ABEBB4E449
:104270008FA398A7A9A7BAA76FA178A589A59AA582
:1042800020E030E04AEF54E40E941F02DC01CB0141
:104290008BA39CA3ADA3BEA36BA17CA18DA19EA16A
:1042A00020E030E040E85FE30E94250488232CF4FE
:1042B00081E090E09AA389A33FC06BA17CA18DA16E
:1042C0009EA120E03FEF4FE757E40E94C503181678
:1042D0004CF56FA178A589A59AA520E030E040E2D1
:1042E00051E40E941F02DC01CB01BC01CD010E9400
:1042F0004900DC01CB019AA389A30FC088EC90E0B0
:1043000098A38F8F8F8D98A10197F1F798A38F8F26
:1043100089A19AA101979AA389A389A19AA100973B
:1043200069F714C06BA17CA18DA19EA10E944900D8
:10433000DC01CB019AA389A389A19AA19E8F8D8FBD
:104340008D8D9E8D0197F1F79E8F8D8F81E00E945C
:10435000290E82E890E06FE00E94901680E062E013
:104360000E94DF1685E08CA71DA687C08DA562E0A0
:104370000E94DF168DA5082F10E00E942618F80174
:10438000E752FF4F808389ED90E09E01235D3F4F10
:10439000B9010E94161780E090E0A8E4B3E4898F89
:1043A0009A8FAB8FBC8F698D7A8D8B8D9C8D20E021
:1043B00030E04AEF54E40E941F02DC01CB018D8BF8
:1043C0009E8BAF8BB88F6D897E898F89988D20E009
:1043D00030E040E85FE30E94250488232CF481E06C
:1043E00090E09C8B8B8B3FC06D897E898F89988DE7
:1043F00020E03FEF4FE757E40E94C50318164CF545
:10440000698D7A8D8B8D9C8D20E030E040E251E407
:104410000E941F02DC01CB01BC01CD010E944900BA
:10442000DC01CB019C8B8B8B0FC088EC90E09A8BCE
:10443000898B89899A890197F1F79A8B898B8B8966
:104440009C8901979C8B8B8B8B899C89009769F742
:1044500014C06D897E898F89988D0E944900DC0186
:10446000CB019C8B8B8B8B899C89988B8F878F85BD
:1044700098890197F1F7988B8F879DA58CA5981740
:1044800008F474CF1BA6BBC08BA5882F90E09C01BD
:1044900021523F4F8BA5B9010E946A1A8BA5882F24
:1044A00090E0FC01E152FF4F20818BA5882F90E026
:1044B000FC01E752FF4F9081822F692F0E94EE0688
:1044C0008093DE008091DE008823A9F482E060E022
:1044D00040E00E947C1D81E00E94290E80E061E0A6
:1044E0000E94DF1682E990E067E00E9490168BA59B
:1044F0008F5F8BA784C082E060E041E00E947C1D5A
:1045000081E00E94290E80E061E00E94DF168AE9C6
:1045100090E060E10E94901680E090E0AAE7B4E4A9
:104520008B879C87AD87BE876B857C858D859E85B7
:1045300020E030E04AEF54E40E941F02DC01CB018E
:104540008F839887A987BA876F81788589859A85AF
:1045500020E030E040E85FE30E94250488232CF44B
:1045600081E090E09E838D833FC06F81788589854F
:104570009A8520E03FEF4FE757E40E94C5031816E5
:104580004CF56B857C858D859E8520E030E040E292
:1045900051E40E941F02DC01CB01BC01CD010E944D
:1045A0004900DC01CB019E838D830FC088EC90E035
:1045B0009C838B838B819C810197F1F79C838B83F8
:1045C0008D819E8101979E838D838D819E81009731
:1045D00069F71AC06F81788589859A850E9449009C
:1045E000DC01CB019E838D838D819E819A8389839B
:1045F00089819A810197F1F79A83898305C09BA5E8
:104600008CA5981708F440CFAD960FB6F894DEBF8E
:104610000FBECDBFCF91DF911F910F910895DF9312
:10462000CF93CDB7DEB72E970FB6F894DEBF0FBE8F
:10463000CDBF82E063E041E00E947C1D80E090E01D
:10464000AAEFB3E48B879C87AD87BE876B857C859B
:104650008D859E8520E030E04AEF54E40E941F02E1
:10466000DC01CB018F839887A987BA876F81788512
:1046700089859A8520E030E040E85FE30E942504C8
:1046800088232CF481E090E09E838D833FC06F816E
:10469000788589859A8520E03FEF4FE757E40E94AF
:1046A000C50318164CF56B857C858D859E8520E0AD
:1046B00030E040E251E40E941F02DC01CB01BC016A
:1046C000CD010E944900DC01CB019E838D830FC088
:1046D00088EC90E09C838B838B819C810197F1F720
:1046E0009C838B838D819E8101979E838D838D8199
:1046F0009E81009769F714C06F81788589859A85B6
:104700000E944900DC01CB019E838D838D819E81B7
:104710009A83898389819A810197F1F79A838983A2
:104720002E960FB6F894DEBF0FBECDBFCF91DF91AE
:1047300008952F923F924F925F926F927F928F9245
:104740009F92AF92BF92CF92DF92EF92FF920F9320
:104750001F93CF93DF93CDB7DEB7CA1BDB0B0FB62A
:10476000F894DEBF0FBECDBF09942A8839884888E7
:104770005F846E847D848C849B84AA84B984C8847D
:10478000DF80EE80FD800C811B81AA81B981CE0F74
:10479000D11D0FB6F894DEBF0FBECDBFED01089559
:0447A000F894FFCFBB
:1047A4005365742050617373776F72643A003232C8
:1047B4004231002D2D2D2D2D2D0057454C434F4DAD
:1047C4004500456E7465722050617373776F72642F
:1047D4003A00636F72726563740057726F6E67217B
:1047E4002054727920416761696E00000000000066
:1047F4000000003132334134353642373839432AE8
:044804003023440019
:00000001FF
