:100000000C942A000C948F190C94BC190C94E919C7
:100010000C9447000C9447000C9447000C94470044
:100020000C9447000C9447000C9447000C94470034
:100030000C9447000C9447000C9447000C94470024
:100040000C9447000C9447000C9447000C94470014
:100050000C94470011241FBECFE5D8E0DEBFCDBF12
:1000600010E0A0E6B0E0E6E2FDE302C005900D92EC
:10007000AC38B107D9F710E0ACE8B0E001C01D9290
:10008000A239B107E1F70E94351D0C94911E0C9422
:100090000000EF92FF920F931F937B018C0120E0F1
:1000A00030E040E05FE40E94F50388238CF0C80153
:1000B000B70120E030E040E05FE40E94C1010E940F
:1000C00055049B01AC01205030404040504806C0D0
:1000D000C801B7010E9455049B01AC01B901CA01D6
:1000E0001F910F91FF90EF900895A0E0B0E0EBE733
:1000F000F0E00C945A1EDC012B01FA019C91923025
:1001000008F439C1EB018881823008F433C194309E
:1001100069F4843009F02FC111969C91119789815F
:10012000981709F428C1A0E6B0E025C1843009F48D
:1001300021C18230A9F4923009F01DC19A01AD01AC
:1001400088E0EA010990AE01E90109929E0181501F
:10015000C1F7E201898111969C918923818308C1AD
:10016000923009F407C112962D903C901397EB0141
:100170008A819B811496AD90BD90CD90DC901797AD
:10018000EC80FD800E811F819101281B390BB90184
:1001900037FF04C066277727621B730B6032710537
:1001A0000CF061C0121613066CF537014801062EDB
:1001B00004C096948794779467940A94D2F721E0C8
:1001C00030E040E050E004C0220F331F441F551FB1
:1001D0006A95D2F721503040404050402E213F21B7
:1001E00040235123211531054105510521F021E01E
:1001F00030E040E050E079018A01E628F72808293C
:1002000019293CC0232BD1F1260E371E350146019A
:10021000062E04C096948794779467940A94D2F734
:1002200021E030E040E050E004C0220F331F441FC3
:10023000551F6A95D2F721503040404050402A2146
:100240003B214C215D21211531054105510521F04E
:1002500021E030E040E050E059016A01A628B728CB
:10026000C828D9280BC0821593052CF01C01AA249C
:10027000BB24650103C0EE24FF24870111969C91E5
:10028000D20111968C91981709F445C0992339F041
:10029000A80197012A193B094C095D0906C0A6016E
:1002A00095012E193F09400B510B57FD08C01182D3
:1002B0003382228224833583468357831DC081E0A5
:1002C00081833382228288279927DC01821B930B4A
:1002D000A40BB50B84839583A683B7830DC0220F2F
:1002E000331F441F551F24833583468357838281E0
:1002F000938101979383828324813581468157813D
:10030000DA01C9010197A109B1098F5F9F4FAF4F72
:10031000BF4328F30BC0918333822282EA0CFB1C7B
:100320000C1D1D1DE482F5820683178383E0808304
:10033000248135814681578157FF1AC0C901AA27F8
:1003400097FDA095BA2F81709070A070B0705695EF
:10035000479537952795822B932BA42BB52B848318
:100360009583A683B7838281938101969383828349
:10037000DF0101C0D201CD01CDB7DEB7E2E10C94BF
:10038000761EA0E2B0E0E7ECF1E00C94661E698313
:100390007A838B839C832D833E834F835887E9E048
:1003A000EE2EF12CEC0EFD1ECE010196B7010E943F
:1003B0007E058E010F5E1F4FCE010596B8010E948B
:1003C0007E058A8991E089278A8BC701B801AE0131
:1003D000475E5F4F0E9475000E94A904A096E6E068
:1003E0000C94821EA0E2B0E0E8EFF1E00C94661EEF
:1003F00069837A838B839C832D833E834F835887C5
:10040000F9E0EF2EF12CEC0EFD1ECE010196B701A6
:100410000E947E058E010F5E1F4FCE010596B8012A
:100420000E947E05C701B801AE01475E5F4F0E9482
:1004300075000E94A904A096E6E00C94821EA0E23A
:10044000B0E0E5E2F2E00C945A1E69837A838B8374
:100450009C832D833E834F835887CE010196BE0136
:10046000675F7F4F0E947E05CE010596BE016F5EDD
:100470007F4F0E947E059985923088F0898982306D
:10048000C8F0943019F4823051F404C0843029F457
:10049000923081F480E690E0C6C0923049F420E0CA
:1004A0009A858A89981321E02A87CE010996BBC0D4
:1004B000823049F420E09A858A89981321E02A8BBA
:1004C000CE014196B0C02D843E844F8458886D88FB
:1004D0007E888F88988CEE24FF248701AA24BB2471
:1004E000650140E050E060E070E0E0E0F0E0C10174
:1004F00081709070892BE9F0E60CF71C081D191D1E
:100500009A01AB012A0D3B1D4C1D5D1D80E090E062
:10051000A0E0B0E0E614F7040805190520F481E036
:1005200090E0A0E0B0E0BA01A901480F591F6A1F8E
:100530007B1FAA0CBB1CCC1CDD1C97FE08C081E0F5
:1005400090E0A0E0B0E0A82AB92ACA2ADB2A3196B6
:10055000E032F10549F0660C771C881C991C569412
:10056000479437942794C3CFFA85EA892B893C892D
:100570008B859C85280F391F2E5F3F4F17C0CA01FE
:1005800081709070892B61F016950795F794E79428
:1005900080E090E0A0E0B0E8E82AF92A0A2B1B2BC3
:1005A00076956795579547952F5F3F4F77FDE7CF36
:1005B0000CC0440F551F661F771F17FD4160EE0CDE
:1005C000FF1C001F111F21503040403090E05907A0
:1005D00090E0690790E4790760F32B8F3C8FDB0193
:1005E000CA018F779070A070B07080349105A1051A
:1005F000B10561F447FD0AC0E114F10401051105DC
:1006000029F0405C5F4F6F4F7F4F40781A8EFE1786
:1006100011F081E08A8F4D8F5E8F6F8F78A383E01A
:10062000898FCE0149960E94A904A096E2E10C941C
:10063000761EA8E1B0E0EFE1F3E00C94621E69835E
:100640007A838B839C832D833E834F835887B9E0C5
:10065000EB2EF12CEC0EFD1ECE010196B7010E948F
:100660007E058E010F5E1F4FCE010596B8010E94D8
:100670007E052985223008F47EC03989323010F495
:10068000B8017CC08A859A8989278A87243011F02D
:10069000223031F4231709F06EC060E670E06EC0BE
:1006A000343039F41D861E861F86188A1C861B86E8
:1006B00004C0323021F484E08987B7015FC02B8504
:1006C0003C858B899C89281B390B3C872B87ED84C3
:1006D000FE840F851889AD88BE88CF88D88CEA142F
:1006E000FB040C051D0540F4EE0CFF1C001F111F40
:1006F000215030403C872B8720E030E040E050E044
:1007000080E090E0A0E0B0E460E070E0EA14FB0478
:100710000C051D0540F0282B392B4A2B5B2BEA18C2
:10072000FB080C091D09B695A79597958795EE0CC2
:10073000FF1C001F111F6F5F7F4F6F31710531F775
:10074000DA01C9018F779070A070B0708034910584
:10075000A105B10561F427FD0AC0E114F10401050A
:10076000110529F0205C3F4F4F4F5F4F20782D87B8
:100770003E874F87588BBE01675F7F4FCB010E943A
:10078000A9046896EAE00C947E1EA8E1B0E0EBECC8
:10079000F3E00C94661E69837A838B839C832D839C
:1007A0003E834F83588789E0E82EF12CEC0EFD1E26
:1007B000CE010196B7010E947E058E010F5E1F4F8C
:1007C000CE010596B8010E947E058985823040F0F1
:1007D0008989823028F0C701B8010E94F60501C05E
:1007E0008FEF6896E6E00C94821EA8E1B0E0EBEF94
:1007F000F3E00C94661E69837A838B839C832D833C
:100800003E834F83588789E0E82EF12CEC0EFD1EC5
:10081000CE010196B7010E947E058E010F5E1F4F2B
:10082000CE010596B8010E947E058985823040F090
:100830008989823028F0C701B8010E94F60501C0FD
:100840008FEF6896E6E00C94821EA8E1B0E0EBE240
:10085000F4E00C94661E69837A838B839C832D83DA
:100860003E834F83588789E0E82EF12CEC0EFD1E65
:10087000CE010196B7010E947E058E010F5E1F4FCB
:10088000CE010596B8010E947E058985823040F030
:100890008989823028F0C701B8010E94F60501C09D
:1008A00081E06896E6E00C94821EACE0B0E0EBE5F7
:1008B000F4E00C946A1E69837A838B839C83CE0157
:1008C0000196BE016B5F7F4F0E947E058D81823055
:1008D00061F1823050F1843021F48E81882351F10E
:1008E0002EC02F81388537FD20C06E812F31310514
:1008F0001CF06623F9F023C08EE190E0821B930B7D
:1009000029853A854B855C8504C056954795379572
:1009100027958A95D2F76623B1F05095409530958A
:1009200021953F4F4F4F5F4F0EC020E030E040E039
:1009300050E009C02FEF3FEF4FEF5FE704C020E02A
:1009400030E040E050E8B901CA012C96E2E00C9496
:10095000861EDF92EF92FF920F931F93FC01E480BB
:10096000F58006811781D1808081823048F480E053
:1009700090E0A0E1B0E0E82AF92A0A2B1B2BA5C0E1
:10098000843009F49FC0823021F4EE24FF248701D3
:1009900005C0E114F1040105110519F4E0E0F0E0EF
:1009A00096C0628173819FEF623879070CF05BC05B
:1009B00022E83FEF261B370B2A3131052CF020E0CF
:1009C00030E040E050E02AC0B801A701022E04C088
:1009D00076956795579547950A94D2F781E090E010
:1009E000A0E0B0E004C0880F991FAA1FBB1F2A9582
:1009F000D2F70197A109B1098E219F21A023B1232C
:100A00000097A105B10521F081E090E0A0E0B0E001
:100A10009A01AB01282B392B4A2B5B2BDA01C90138
:100A20008F779070A070B07080349105A105B105EA
:100A300039F427FF09C0205C3F4F4F4F5F4F04C080
:100A4000215C3F4F4F4F5F4FE0E0F0E02030A0E0EF
:100A50003A07A0E04A07A0E45A0710F0E1E0F0E00E
:100A600079018A0127C06038710564F5FB01E158FE
:100A7000FF4FD801C7018F779070A070B07080349D
:100A80009105A105B10539F4E7FE0DC080E490E0C1
:100A9000A0E0B0E004C08FE390E0A0E0B0E0E80E9A
:100AA000F91E0A1F1B1F17FF05C016950795F7941F
:100AB000E794319687E016950795F794E7948A9521
:100AC000D1F705C0EE24FF248701EFEFF0E06E2F91
:100AD000679566276795902F9F77D794DD24D794E5
:100AE0008E2F8695492F462B582F5D29B701CA01B5
:100AF0001F910F91FF90EF90DF900895FC01DB01B3
:100B0000408151812281622F6F7770E0221F22275E
:100B1000221F9381892F880F822B282F30E0991F65
:100B20009927991F11969C93119721153105A9F5C5
:100B3000411551056105710511F482E037C082E865
:100B40009FEF13969C938E9312979A01AB0167E0E7
:100B5000220F331F441F551F6A95D1F783E08C93F2
:100B60000DC0220F331F441F551F12968D919C916B
:100B70001397019713969C938E931297203080E0E1
:100B8000380780E0480780E4580758F314962D93FF
:100B90003D934D935C93179708952F3F310579F45A
:100BA000411551056105710519F484E08C93089590
:100BB00064FF03C081E08C9312C01C9210C02F57B9
:100BC000304013963C932E93129783E08C9387E0EA
:100BD000440F551F661F771F8A95D1F770641496CE
:100BE0004D935D936D937C93179708951F93DC014C
:100BF000FB019C91923008F447C08081823008F458
:100C000043C0943051F411961C91843099F5818140
:100C1000682F70E0611B71093FC0843021F0923071
:100C200031F48230B9F18181882389F12DC0119688
:100C30001C9111978230F1F081811817D9F4129626
:100C40002D913C911397828193818217930794F0A1
:100C500028173907BCF014968D919D910D90BC9189
:100C6000A02D2481358146815781281739074A07ED
:100C70005B0718F4112341F00AC082179307A407F9
:100C8000B50740F4112319F061E070E005C06FEF83
:100C90007FEF02C060E070E0CB011F910895DF9309
:100CA000CF93CDB7DEB7ADE2B0E0EDE2F0E080810A
:100CB0008F7D8C93ADE2B0E0EDE2F0E08081806169
:100CC0008C93ADE2B0E0EDE2F0E08081877F8C9321
:100CD000ADE2B0E0EDE2F0E080818B7F8C93ADE29D
:100CE000B0E0EDE2F0E0808181608C93ADE2B0E0B5
:100CF000EDE2F0E080818D7F8C93AEE2B0E0EEE239
:100D0000F0E080818E7F8C93ADE2B0E0EDE2F0E028
:100D1000808180648C93CF91DF910895DF93CF938E
:100D2000CDB7DEB7ADE2B0E0EDE2F0E080818F7DDF
:100D30008C93ADE2B0E0EDE2F0E080818F7E8C93A9
:100D4000ADE2B0E0EDE2F0E08081877F8C93ADE230
:100D5000B0E0EDE2F0E080818B7F8C93ADE2B0E01B
:100D6000EDE2F0E0808180648C93CF91DF91089573
:100D7000DF93CF930F92CDB7DEB78983EFE2F0E038
:100D800089818083EEE2F0E080818823DCF7EFE266
:100D9000F0E080810F90CF91DF9108950F931F9322
:100DA000DF93CF93CDB7DEB7C455D0400FB6F894DC
:100DB000DEBF0FBECDBF84E061E00E94331C83E044
:100DC00062E041E00E94491A83E063E041E00E9452
:100DD000491A83E063E040E00E94491AFE01EF5A9D
:100DE000FF4F80E090E0A0EFB1E480839183A28385
:100DF000B3838E01035B1F4FFE01EF5AFF4F6081EB
:100E000071818281938120E030E04AEF54E40E94B6
:100E10001F02DC01CB01F80180839183A283B3839D
:100E2000FE01E35BFF4F608171818281938120E04D
:100E300030E040E85FE30E942504882344F4FE018B
:100E4000E55BFF4F81E090E09183808364C0FE0109
:100E5000E35BFF4F608171818281938120E03FEFEE
:100E60004FE757E40E94C50318160CF043C0FE017B
:100E7000EF5AFF4F608171818281938120E030E0E1
:100E800040E251E40E941F02DC01CB018E01055BB0
:100E90001F4FBC01CD010E944900DC01CB01F801CC
:100EA000918380831FC0FE01E75BFF4F88EC90E0D9
:100EB00091838083FE01E75BFF4F808191810197E1
:100EC000F1F7FE01E75BFF4F91838083DE01A55BB5
:100ED000BF4FFE01E55BFF4F808191810197119625
:100EE0009C938E93FE01E55BFF4F8081918100977B
:100EF000D1F627C08E01055B1F4FFE01E35BFF4F5C
:100F000060817181828193810E944900DC01CB0163
:100F1000F80191838083DE01A95BBF4FFE01E55B91
:100F2000FF4F808191818D939C93FE01E95BFF4F80
:100F3000808191810197F1F7FE01E95BFF4F918379
:100F4000808382E00E94580DFE01ED5BFF4F80E040
:100F500090E0A0EAB0E480839183A283B3838E0102
:100F6000015C1F4FFE01ED5BFF4F6081718182814B
:100F7000938120E030E04AEF54E40E941F02DC013C
:100F8000CB01F80180839183A283B383FE01FF9696
:100F9000608171818281938120E030E040E85FE3ED
:100FA0000E94250488232CF481E090E09EAF8DAF51
:100FB00046C0FE01FF96608171818281938120E0AD
:100FC0003FEF4FE757E40E94C503181664F5FE0192
:100FD000ED5BFF4F608171818281938120E030E081
:100FE00040E251E40E941F02DC01CB01BC01CD01B3
:100FF0000E944900DC01CB019EAF8DAF0FC088EC91
:1010000090E09CAF8BAF8BAD9CAD0197F1F79CAF9F
:101010008BAF8DAD9EAD01979EAF8DAF8DAD9EAD6B
:10102000009769F716C0FE01FF9660817181828189
:1010300093810E944900DC01CB019EAF8DAF8DAD45
:101040009EAD9AAF89AF89AD9AAD0197F1F79AAF8E
:1010500089AF88E30E94580D80E090E0A0EAB0E4F8
:101060008DAB9EABAFABB8AF6DA97EA98FA998AD84
:1010700020E030E04AEF54E40E941F02DC01CB0183
:1010800089AB9AABABABBCAB69A97AA98BA99CA97C
:1010900020E030E040E85FE30E94250488232CF440
:1010A00081E090E098AB8FA73FC069A97AA98BA98E
:1010B0009CA920E03FEF4FE757E40E94C5031816B4
:1010C0004CF56DA97EA98FA998AD20E030E040E2F3
:1010D00051E40E941F02DC01CB01BC01CD010E9442
:1010E0004900DC01CB0198AB8FA70FC088EC90E0E2
:1010F0009EA78DA78DA59EA50197F1F79EA78DA709
:101100008FA598A9019798AB8FA78FA598A900974D
:1011100069F714C069A97AA98BA99CA90E94490002
:10112000DC01CB0198AB8FA78FA598A99CA78BA7B3
:101130008BA59CA50197F1F79CA78BA78CE00E943B
:10114000580D80E090E0A0EAB0E48FA398A7A9A78B
:10115000BAA76FA178A589A59AA520E030E04AEF4B
:1011600054E40E941F02DC01CB018BA39CA3ADA31E
:10117000BEA36BA17CA18DA19EA120E030E040E840
:101180005FE30E94250488232CF481E090E09AA379
:1011900089A33FC06BA17CA18DA19EA120E03FEF60
:1011A0004FE757E40E94C50318164CF56FA178A5C8
:1011B00089A59AA520E030E040E251E40E941F0298
:1011C000DC01CB01BC01CD010E944900DC01CB0157
:1011D0009AA389A30FC088EC90E098A38F8F8F8D7E
:1011E00098A10197F1F798A38F8F89A19AA10197F0
:1011F0009AA389A389A19AA1009769F714C06BA14A
:101200007CA18DA19EA10E944900DC01CB019AA383
:1012100089A389A19AA19E8F8D8F8D8D9E8D019717
:10122000F1F79E8F8D8F81E00E94580D80E090E055
:10123000A0EAB0E4898F9A8FAB8FBC8F698D7A8DCD
:101240008B8D9C8D20E030E04AEF54E40E941F0219
:10125000DC01CB018D8B9E8BAF8BB88F6D897E8926
:101260008F89988D20E030E040E85FE30E942504FC
:1012700088232CF481E090E09C8B8B8B3FC06D89A0
:101280007E898F89988D20E03FEF4FE757E40E94D9
:10129000C50318164CF5698D7A8D8B8D9C8D20E0D9
:1012A00030E040E251E40E941F02DC01CB01BC01AE
:1012B000CD010E944900DC01CB019C8B8B8B0FC0C0
:1012C00088EC90E09A8B898B89899A890197F1F74C
:1012D0009A8B898B8B899C8901979C8B8B8B8B89B3
:1012E0009C89009769F714C06D897E898F89988DD4
:1012F0000E944900DC01CB019C8B8B8B8B899C89E4
:10130000988B8F878F8598890197F1F7988B8F87B6
:1013100086E00E94580D80E090E0A0EAB0E48B8760
:101320009C87AD87BE876B857C858D859E8520E0FB
:1013300030E04AEF54E40E941F02DC01CB018F83AE
:101340009887A987BA876F81788589859A8520E0F3
:1013500030E040E85FE30E94250488232CF481E01C
:1013600090E09E838D833FC06F81788589859A85C3
:1013700020E03FEF4FE757E40E94C50318164CF5F5
:101380006B857C858D859E8520E030E040E251E4D0
:101390000E941F02DC01CB01BC01CD010E9449006B
:1013A000DC01CB019E838D830FC088EC90E09C8391
:1013B0008B838B819C810197F1F79C838B838D813B
:1013C0009E8101979E838D838D819E81009769F711
:1013D00014C06F81788589859A850E944900DC0157
:1013E000CB019E838D838D819E819A8389838981A0
:1013F0009A810197F1F79A838983CC5ADF4F0FB610
:10140000F894DEBF0FBECDBFCF91DF911F910F913A
:1014100008950F931F93DF93CF93CDB7DEB7C455D5
:10142000D0400FB6F894DEBF0FBECDBF84E060E0C1
:101430000E94331C84E064E041E00E94491A84E089
:1014400065E041E00E94491A84E066E041E00E94C4
:10145000491A84E067E041E00E94491A83E062E0B3
:1014600041E00E94491A83E063E041E00E94491A8A
:1014700083E063E040E00E94491AFE01EF5AFF4F0B
:1014800080E090E0A8E4B2E480839183A283B383F8
:101490008E01035B1F4FFE01EF5AFF4F6081718188
:1014A0008281938120E030E04AEF54E40E941F02E1
:1014B000DC01CB01F80180839183A283B383FE0119
:1014C000E35BFF4F608171818281938120E030E096
:1014D00040E85FE30E942504882344F4FE01E55BB5
:1014E000FF4F81E090E09183808364C0FE01E35B65
:1014F000FF4F608171818281938120E03FEF4FE750
:1015000057E40E94C50318160CF043C0FE01EF5AC1
:10151000FF4F608171818281938120E030E040E261
:1015200051E40E941F02DC01CB018E01055B1F4FBD
:10153000BC01CD010E944900DC01CB01F80191837F
:1015400080831FC0FE01E75BFF4F88EC90E0918332
:101550008083FE01E75BFF4F808191810197F1F766
:10156000FE01E75BFF4F91838083DE01A55BBF4FE8
:10157000FE01E55BFF4F80819181019711969C935D
:101580008E93FE01E55BFF4F808191810097D1F63C
:1015900027C08E01055B1F4FFE01E35BFF4F60819B
:1015A0007181828193810E944900DC01CB01F801A5
:1015B00091838083DE01A95BBF4FFE01E55BFF4F96
:1015C000808191818D939C93FE01E95BFF4F808127
:1015D00091810197F1F7FE01E95BFF4F91838083D1
:1015E00082E00E94F10DFE01ED5BFF4F80E090E094
:1015F000A0EAB0E480839183A283B3838E01015C6F
:101600001F4FFE01ED5BFF4F6081718182819381ED
:1016100020E030E04AEF54E40E941F02DC01CB01DD
:10162000F80180839183A283B383FE01FF966081DA
:1016300071818281938120E030E040E85FE30E9485
:10164000250488232CF481E090E09EAF8DAF46C046
:10165000FE01FF96608171818281938120E03FEFDE
:101660004FE757E40E94C503181664F5FE01ED5BD1
:10167000FF4F608171818281938120E030E040E200
:1016800051E40E941F02DC01CB01BC01CD010E948C
:101690004900DC01CB019EAF8DAF0FC088EC90E01C
:1016A0009CAF8BAF8BAD9CAD0197F1F79CAF8BAF2F
:1016B0008DAD9EAD01979EAF8DAF8DAD9EAD009768
:1016C00069F716C0FE01FF96608171818281938166
:1016D0000E944900DC01CB019EAF8DAF8DAD9EAD68
:1016E0009AAF89AF89AD9AAD0197F1F79AAF89AFFB
:1016F00088E20E94F10D80E090E0A0EAB0E48DABBA
:101700009EABAFABB8AF6DA97EA98FA998AD20E015
:1017100030E04AEF54E40E941F02DC01CB0189ABA8
:101720009AABABABBCAB69A97AA98BA99CA920E009
:1017300030E040E85FE30E94250488232CF481E038
:1017400090E098AB8FA73FC069A97AA98BA99CA903
:1017500020E03FEF4FE757E40E94C50318164CF511
:101760006DA97EA98FA998AD20E030E040E251E458
:101770000E941F02DC01CB01BC01CD010E94490087
:10178000DC01CB0198AB8FA70FC088EC90E09EA73F
:101790008DA78DA59EA50197F1F79EA78DA78FA573
:1017A00098A9019798AB8FA78FA598A9009769F77B
:1017B00014C069A97AA98BA99CA90E944900DC01DF
:1017C000CB0198AB8FA78FA598A99CA78BA78BA5BA
:1017D0009CA50197F1F79CA78BA78CE00E94F10DC7
:1017E00080E090E0A0EAB0E48FA398A7A9A7BAA7E9
:1017F0006FA178A589A59AA520E030E04AEF54E4CE
:101800000E941F02DC01CB018BA39CA3ADA3BEA34E
:101810006BA17CA18DA19EA120E030E040E85FE3B8
:101820000E94250488232CF481E090E09AA389A3E8
:101830003FC06BA17CA18DA19EA120E03FEF4FE7AF
:1018400057E40E94C50318164CF56FA178A589A529
:101850009AA520E030E040E251E40E941F02DC0142
:10186000CB01BC01CD010E944900DC01CB019AA350
:1018700089A30FC088EC90E098A38F8F8F8D98A1DB
:101880000197F1F798A38F8F89A19AA101979AA345
:1018900089A389A19AA1009769F714C06BA17CA1C3
:1018A0008DA19EA10E944900DC01CB019AA389A3CE
:1018B00089A19AA19E8F8D8F8D8D9E8D0197F1F7B5
:1018C0009E8F8D8F81E00E94F10D80E090E0A0EA74
:1018D000B0E4898F9A8FAB8FBC8F698D7A8D8B8D99
:1018E0009C8D20E030E04AEF54E40E941F02DC01AE
:1018F000CB018D8B9E8BAF8BB88F6D897E898F8945
:10190000988D20E030E040E85FE30E9425048823C2
:101910002CF481E090E09C8B8B8B3FC06D897E899D
:101920008F89988D20E03FEF4FE757E40E94C50371
:1019300018164CF5698D7A8D8B8D9C8D20E030E0EA
:1019400040E251E40E941F02DC01CB01BC01CD0149
:101950000E944900DC01CB019C8B8B8B0FC088EC73
:1019600090E09A8B898B89899A890197F1F79A8BF4
:10197000898B8B899C8901979C8B8B8B8B899C890C
:10198000009769F714C06D897E898F89988D0E94B0
:101990004900DC01CB019C8B8B8B8B899C89988BBC
:1019A0008F878F8598890197F1F7988B8F8786E0CD
:1019B0000E94F10D80E090E0A0EAB0E48B879C8764
:1019C000AD87BE876B857C858D859E8520E030E068
:1019D0004AEF54E40E941F02DC01CB018F839887F9
:1019E000A987BA876F81788589859A8520E030E05C
:1019F00040E85FE30E94250488232CF481E090E016
:101A00009E838D833FC06F81788589859A8520E08C
:101A10003FEF4FE757E40E94C50318164CF56B855E
:101A20007C858D859E8520E030E040E251E40E9477
:101A30001F02DC01CB01BC01CD010E944900DC0189
:101A4000CB019E838D830FC088EC90E09C838B83B9
:101A50008B819C810197F1F79C838B838D819E8183
:101A600001979E838D838D819E81009769F714C0B5
:101A70006F81788589859A850E944900DC01CB01B8
:101A80009E838D838D819E819A83898389819A81AA
:101A90000197F1F79A838983CC5ADF4F0FB6F894F8
:101AA000DEBF0FBECDBFCF91DF911F910F91089583
:101AB000DF93CF93CDB7DEB72F970FB6F894DEBF85
:101AC0000FBECDBF8F8783E062E040E00E94491ADD
:101AD00084E06F850E94331C83E063E041E00E9454
:101AE000491A80E090E0A0EAB0E48B879C87AD873C
:101AF000BE876B857C858D859E8520E030E04AEF32
:101B000054E40E941F02DC01CB018F839887A987D0
:101B1000BA876F81788589859A8520E030E040E832
:101B20005FE30E94250488232CF481E090E09E83EB
:101B30008D833FC06F81788589859A8520E03FEF4E
:101B40004FE757E40E94C50318164CF56B857C855A
:101B50008D859E8520E030E040E251E40E941F0226
:101B6000DC01CB01BC01CD010E944900DC01CB01AD
:101B70009E838D830FC088EC90E09C838B838B8148
:101B80009C810197F1F79C838B838D819E810197C6
:101B90009E838D838D819E81009769F714C06F812C
:101BA000788589859A850E944900DC01CB019E8356
:101BB0008D838D819E819A83898389819A81019702
:101BC000F1F79A83898383E063E040E00E94491A39
:101BD0002F960FB6F894DEBF0FBECDBFCF91DF9129
:101BE00008950F931F93DF93CF93CDB7DEB7C15600
:101BF000D0400FB6F894DEBF0FBECDBFFE01EF5947
:101C0000FF4F8083FE01EF59FF4F8081807F84600A
:101C1000982F84E0692F0E94331C83E062E040E04B
:101C20000E94491A83E063E041E00E94491AFE01E4
:101C3000E35AFF4F80E090E0A0EAB0E48083918314
:101C4000A283B3838E01075A1F4FFE01E35AFF4F51
:101C500060817181828193812BEA3AEA4AE250E401
:101C60000E941F02DC01CB01F80180839183A283D3
:101C7000B383FE01E75AFF4F6081718182819381B6
:101C800020E030E040E85FE30E942504882334F43C
:101C9000FE01E85AFF4F81E08083E0C0FE01E75A71
:101CA000FF4F608171818281938120E030E04FE7B6
:101CB00053E40E94C50318160CF0C0C0FE01E35A9D
:101CC000FF4F608171818281938120E030E04AE79B
:101CD00054E40E941903DC01CB01FE01EC5AFF4FD2
:101CE00080839183A283B3838E01005B1F4FFE012B
:101CF000EC5AFF4F608171818281938120E030E056
:101D00004AEF54E40E941F02DC01CB01F8018083FA
:101D10009183A283B383FE01E05BFF4F60817181F9
:101D20008281938120E030E040E85FE30E94250457
:101D3000882344F4FE01E25BFF4F81E090E0918351
:101D4000808364C0FE01E05BFF4F6081718182810E
:101D5000938120E03FEF4FE757E40E94C503181638
:101D60000CF043C0FE01EC5AFF4F6081718182810B
:101D7000938120E030E040E251E40E941F02DC0148
:101D8000CB018E01025B1F4FBC01CD010E944900B7
:101D9000DC01CB01F801918380831FC0FE01E45B6D
:101DA000FF4F88EC90E091838083FE01E45BFF4F5E
:101DB000808191810197F1F7FE01E45BFF4F9183F0
:101DC0008083DE01A25BBF4FFE01E25BFF4F80819B
:101DD0009181019711969C938E93FE01E25BFF4FD8
:101DE000808191810097D1F64BC08E01025B1F4F1D
:101DF000FE01E05BFF4F60817181828193810E94CF
:101E00004900DC01CB01F80191838083DE01A65BF0
:101E1000BF4FFE01E25BFF4F8081918111969C9341
:101E20008E93FE01E65BFF4F808191810197F1F770
:101E3000FE01E65BFF4F9183808322C08E01085A2A
:101E40001F4FFE01E75AFF4F6081718182819381AC
:101E50000E944900DC01CB01F8018083DE01A75B11
:101E6000BF4FFE01E85AFF4F80818C93FE01E75B74
:101E7000FF4F80818A95F1F7FE01E75BFF4F80837A
:101E800083E063E040E00E94491AFE01EB5BFF4FF4
:101E900080E090E0A8E4B3E480839183A283B383DD
:101EA0008E010F5B1F4FFE01EB5BFF4F6081718165
:101EB000828193812BEA3AEA4AE250E40E941F02AF
:101EC000DC01CB01F80180839183A283B383FE01FF
:101ED000EF5BFF4F608171818281938120E030E070
:101EE00040E85FE30E942504882334F481E0FE018A
:101EF000E05CFF4F80839DC0FE01EF5BFF4F608180
:101F000071818281938120E030E04FE753E40E94A9
:101F1000C50318160CF07EC0FE01EB5BFF4F60811D
:101F200071818281938120E030E04AE754E40E948D
:101F30001903DC01CB018CAF9DAFAEAFBFAF6CAD71
:101F40007DAD8EAD9FAD20E030E04AEF54E40E94BD
:101F50001F02DC01CB0188AF99AFAAAFBBAF68AD60
:101F600079AD8AAD9BAD20E030E040E85FE30E94B0
:101F7000250488232CF481E090E09FAB8EAB3FC01A
:101F800068AD79AD8AAD9BAD20E03FEF4FE757E4F8
:101F90000E94C50318164CF56CAD7DAD8EAD9FAD9E
:101FA00020E030E040E251E40E941F02DC01CB015E
:101FB000BC01CD010E944900DC01CB019FAB8EAB7F
:101FC0000FC088EC90E09DAB8CAB8CA99DA90197CC
:101FD000F1F79DAB8CAB8EA99FA901979FAB8EAB00
:101FE0008EA99FA9009769F72DC068AD79AD8AAD1C
:101FF0009BAD0E944900DC01CB019FAB8EAB8EA94B
:102000009FA99BAB8AAB8AA99BA90197F1F79BABD0
:102010008AAB18C0FE01EF5BFF4F60817181828146
:1020200093810E944900DC01CB01FE01E05CFF4F7F
:102030008083FE01E05CFF4F808189AB89A98A958E
:10204000F1F789ABFE01EF59FF4F8081882F90E0B7
:1020500082959295907F9827807F98278460982F0B
:1020600084E0692F0E94331C83E063E041E00E941A
:10207000491A80E090E0A0EAB0E48DA79EA7AFA740
:10208000B8AB6DA57EA58FA598A92BEA3AEA4AE2DE
:1020900050E40E941F02DC01CB0189A79AA7ABA7DD
:1020A000BCA769A57AA58BA59CA520E030E040E8F7
:1020B0005FE30E94250488231CF481E088A791C077
:1020C00069A57AA58BA59CA520E030E04FE753E4F5
:1020D0000E94C50318160CF07BC06DA57EA58FA5C8
:1020E00098A920E030E04AE754E40E941903DC019B
:1020F000CB018CA39DA3AEA3BFA36CA17DA18EA198
:102100009FA120E030E04AEF54E40E941F02DC016E
:10211000CB0188A399A3AAA3BBA368A179A18AA193
:102120009BA120E030E040E85FE30E942504882383
:102130002CF481E090E09F8F8E8F3FC068A179A141
:102140008AA19BA120E03FEF4FE757E40E94C5031F
:1021500018164CF56CA17DA18EA19FA120E030E066
:1021600040E251E40E941F02DC01CB01BC01CD0121
:102170000E944900DC01CB019F8F8E8F0FC088EC3D
:1021800090E09D8F8C8F8C8D9D8D0197F1F79D8FA9
:102190008C8F8E8D9F8D01979F8F8E8F8E8D9F8DB3
:1021A000009769F724C068A179A18AA19BA10E9428
:1021B0004900DC01CB019F8F8E8F8E8D9F8D9B8F71
:1021C0008A8F8A8D9B8D0197F1F79B8F8A8F0FC025
:1021D00069A57AA58BA59CA50E944900DC01CB01CD
:1021E00088A788A5898F898D8A95F1F7898F83E0E3
:1021F00063E040E00E94491A80E090E0A0EAB0E489
:102200008D8B9E8BAF8BB88F6D897E898F89988DD2
:102210002BEA3AEA4AE250E40E941F02DC01CB01B9
:10222000898B9A8BAB8BBC8B69897A898B899C89CA
:1022300020E030E040E85FE30E94250488231CF49E
:1022400081E0888B91C069897A898B899C8920E09B
:1022500030E04FE753E40E94C50318160CF07BC032
:102260006D897E898F89988D20E030E04AE754E4BB
:102270000E941903DC01CB018C879D87AE87BF8745
:102280006C857D858E859F8520E030E04AEF54E4A3
:102290000E941F02DC01CB0188879987AA87BB8730
:1022A000688579858A859B8520E030E040E85FE39A
:1022B0000E94250488232CF481E090E09F838E8384
:1022C0003FC0688579858A859B8520E03FEF4FE791
:1022D00057E40E94C50318164CF56C857D858E85E4
:1022E0009F8520E030E040E251E40E941F02DC01C3
:1022F000CB01BC01CD010E944900DC01CB019F83D1
:102300008E830FC088EC90E09D838C838C819D81AF
:102310000197F1F79D838C838E819F8101979F8325
:102320008E838E819F81009769F724C068857985A7
:102330008A859B850E944900DC01CB019F838E83A7
:102340008E819F819B838A838A819B810197F1F78C
:102350009B838A830FC069897A898B899C890E94B3
:102360004900DC01CB01888B8889898389818A9522
:10237000F1F78983CF59DF4F0FB6F894DEBF0FBE58
:10238000CDBFCF91DF911F910F910895DF93CF9330
:10239000CDB7DEB72F970FB6F894DEBF0FBECDBF17
:1023A0008F8783E062E041E00E94491A84E06F85F4
:1023B0000E94331C83E063E041E00E94491A80E000
:1023C00090E0A0EAB0E48B879C87AD87BE876B85E1
:1023D0007C858D859E8520E030E04AEF54E40E94A4
:1023E0001F02DC01CB018F839887A987BA876F8191
:1023F000788589859A8520E030E040E85FE30E9497
:10240000250488232CF481E090E09E838D833FC0D7
:102410006F81788589859A8520E03FEF4FE757E403
:102420000E94C50318164CF56B857C858D859E85AD
:1024300020E030E040E251E40E941F02DC01CB01C9
:10244000BC01CD010E944900DC01CB019E838D833C
:102450000FC088EC90E09C838B838B819C810197DB
:10246000F1F79C838B838D819E8101979E838D8361
:102470008D819E81009769F714C06F817885898569
:102480009A850E944900DC01CB019E838D838D815A
:102490009E819A83898389819A810197F1F79A8332
:1024A000898383E063E040E00E94491A2F960FB6CB
:1024B000F894DEBF0FBECDBFCF91DF9108950F938B
:1024C0001F93DF93CF93CDB7DEB7C156D0400FB681
:1024D000F894DEBF0FBECDBFFE01EF59FF4F8083E2
:1024E00083E062E041E00E94491AFE01EF59FF4F8C
:1024F0008081807F8460982F84E0692F0E94331C44
:1025000083E063E041E00E94491AFE01E35AFF4F75
:1025100080E090E0A0EAB0E480839183A283B3835B
:102520008E01075A1F4FFE01E35AFF4F60817181F0
:10253000828193812BEA3AEA4AE250E40E941F0228
:10254000DC01CB01F80180839183A283B383FE0178
:10255000E75AFF4F608171818281938120E030E0F2
:1025600040E85FE30E942504882334F4FE01E85A22
:10257000FF4F81E08083E0C0FE01E75AFF4F60819A
:1025800071818281938120E030E04FE753E40E9423
:10259000C50318160CF0C0C0FE01E35AFF4F60815E
:1025A00071818281938120E030E04AE754E40E9407
:1025B0001903DC01CB01FE01EC5AFF4F80839183AC
:1025C000A283B3838E01005B1F4FFE01EC5AFF4FC5
:1025D000608171818281938120E030E04AEF54E490
:1025E0000E941F02DC01CB01F80180839183A2834A
:1025F000B383FE01E05BFF4F608171818281938133
:1026000020E030E040E85FE30E942504882344F4A2
:10261000FE01E25BFF4F81E090E09183808364C024
:10262000FE01E05BFF4F608171818281938120E038
:102630003FEF4FE757E40E94C50318160CF043C064
:10264000FE01EC5AFF4F608171818281938120E00D
:1026500030E040E251E40E941F02DC01CB018E0118
:10266000025B1F4FBC01CD010E944900DC01CB0180
:10267000F801918380831FC0FE01E45BFF4F88EC6B
:1026800090E091838083FE01E45BFF4F8081918124
:102690000197F1F7FE01E45BFF4F91838083DE0138
:1026A000A25BBF4FFE01E25BFF4F808191810197EA
:1026B00011969C938E93FE01E25BFF4F8081918186
:1026C0000097D1F64BC08E01025B1F4FFE01E05B0D
:1026D000FF4F60817181828193810E944900DC01FA
:1026E000CB01F80191838083DE01A65BBF4FFE0121
:1026F000E25BFF4F8081918111969C938E93FE0146
:10270000E65BFF4F808191810197F1F7FE01E65B67
:10271000FF4F9183808322C08E01085A1F4FFE0114
:10272000E75AFF4F60817181828193810E94490045
:10273000DC01CB01F8018083DE01A75BBF4FFE0106
:10274000E85AFF4F80818C93FE01E75BFF4F808149
:102750008A95F1F7FE01E75BFF4F808383E063E03A
:1027600040E00E94491AFE01EB5BFF4F80E090E0E1
:10277000A8E4B3E480839183A283B3838E010F5BCB
:102780001F4FFE01EB5BFF4F60817181828193815E
:102790002BEA3AEA4AE250E40E941F02DC01CB0134
:1027A000F80180839183A283B383FE01EF5BFF4F27
:1027B000608171818281938120E030E040E85FE3B5
:1027C0000E942504882334F481E0FE01E05CFF4F81
:1027D00080839DC0FE01EF5BFF4F6081718182812C
:1027E000938120E030E04FE753E40E94C5031816C0
:1027F0000CF07EC0FE01EB5BFF4F60817181828136
:10280000938120E030E04AE754E40E941903DC01A0
:10281000CB018CAF9DAFAEAFBFAF6CAD7DAD8EAD1C
:102820009FAD20E030E04AEF54E40E941F02DC013B
:10283000CB0188AF99AFAAAFBBAF68AD79AD8AAD18
:102840009BAD20E030E040E85FE30E942504882350
:102850002CF481E090E09FAB8EAB3FC068AD79ADCA
:102860008AAD9BAD20E03FEF4FE757E40E94C503E0
:1028700018164CF56CAD7DAD8EAD9FAD20E030E00F
:1028800040E251E40E941F02DC01CB01BC01CD01FA
:102890000E944900DC01CB019FAB8EAB0FC088ECDE
:1028A00090E09DAB8CAB8CA99DA90197F1F79DABF6
:1028B0008CAB8EA99FA901979FAB8EAB8EA99FA9C8
:1028C000009769F72DC068AD79AD8AAD9BAD0E94C8
:1028D0004900DC01CB019FAB8EAB8EA99FA99BABBE
:1028E0008AAB8AA99BA90197F1F79BAB8AAB18C069
:1028F000FE01EF5BFF4F60817181828193810E94B5
:102900004900DC01CB01FE01E05CFF4F8083FE014A
:10291000E05CFF4F808189AB89A98A95F1F789AB8B
:10292000FE01EF59FF4F8081882F90E082959295AC
:10293000907F9827807F98278460982F84E0692F64
:102940000E94331C83E063E041E00E94491A80E06A
:1029500090E0A0EAB0E48DA79EA7AFA7B8AB6DA5A5
:102960007EA58FA598A92BEA3AEA4AE250E40E9494
:102970001F02DC01CB0189A79AA7ABA7BCA769A559
:102980007AA58BA59CA520E030E040E85FE30E949B
:10299000250488231CF481E088A791C069A57AA545
:1029A0008BA59CA520E030E04FE753E40E94C503CF
:1029B00018160CF07BC06DA57EA58FA598A920E008
:1029C00030E04AE754E40E941903DC01CB018CA3F8
:1029D0009DA3AEA3BFA36CA17DA18EA19FA120E06A
:1029E00030E04AEF54E40E941F02DC01CB0188A3CF
:1029F00099A3AAA3BBA368A179A18AA19BA120E066
:102A000030E040E85FE30E94250488232CF481E055
:102A100090E09F8F8E8F3FC068A179A18AA19BA172
:102A200020E03FEF4FE757E40E94C50318164CF52E
:102A30006CA17DA18EA19FA120E030E040E251E495
:102A40000E941F02DC01CB01BC01CD010E944900A4
:102A5000DC01CB019F8F8E8F0FC088EC90E09D8FA3
:102A60008C8F8C8D9D8D0197F1F79D8F8C8F8E8D26
:102A70009F8D01979F8F8E8F8E8D9F8D009769F709
:102A800024C068A179A18AA19BA10E944900DC0110
:102A9000CB019F8F8E8F8E8D9F8D9B8F8A8F8A8D7E
:102AA0009B8D0197F1F79B8F8A8F0FC069A57AA53F
:102AB0008BA59CA50E944900DC01CB0188A788A5B5
:102AC000898F898D8A95F1F7898F83E063E040E0F3
:102AD0000E94491A80E090E0A8E4B3E48D8B9E8BBD
:102AE000AF8BB88F6D897E898F89988D2BEA3AEAF2
:102AF0004AE250E40E941F02DC01CB01898B9A8BD1
:102B0000AB8BBC8B69897A898B899C8920E030E00A
:102B100040E85FE30E94250488231CF481E0888B51
:102B200091C069897A898B899C8920E030E04FE7E0
:102B300053E40E94C50318160CF07BC06D897E8992
:102B40008F89988D20E030E04AE754E40E94190311
:102B5000DC01CB018C879D87AE87BF876C857D8527
:102B60008E859F8520E030E04AEF54E40E941F02EA
:102B7000DC01CB0188879987AA87BB87688579851F
:102B80008A859B8520E030E040E85FE30E942504D1
:102B900088232CF481E090E09F838E833FC068857A
:102BA00079858A859B8520E03FEF4FE757E40E94B7
:102BB000C50318164CF56C857D858E859F8520E0B4
:102BC00030E040E251E40E941F02DC01CB01BC0175
:102BD000CD010E944900DC01CB019F838E830FC091
:102BE00088EC90E09D838C838C819D810197F1F727
:102BF0009D838C838E819F8101979F838E838E819D
:102C00009F81009769F724C0688579858A859B85AF
:102C10000E944900DC01CB019F838E838E819F81BE
:102C20009B838A838A819B810197F1F79B838A83A7
:102C30000FC069897A898B899C890E944900DC01CF
:102C4000CB01888B8889898389818A95F1F789836B
:102C5000CF59DF4F0FB6F894DEBF0FBECDBFCF9177
:102C6000DF911F910F910895DF93CF9300D000D093
:102C7000CDB7DEB79B838A836C8319820EC08981AE
:102C8000282F30E08A819B81FC01E20FF31F8081B5
:102C90000E94C61189818F5F898399818C819817E1
:102CA00070F30F900F900F900F90CF91DF910895D8
:102CB000DF93CF9300D000D0CDB7DEB79B838A835C
:102CC0006C8319820EC08981282F30E08A819B8114
:102CD000FC01E20FF31F80810E945F1289818F5FE8
:102CE000898399818C81981770F30F900F900F90C2
:102CF0000F90CF91DF910895DF93CF9300D000D054
:102D0000CDB7DEB789836A8389818031C8F48A812F
:102D1000282F30E03C832B838B819C81813091056F
:102D200031F02B813C812230310531F009C089819D
:102D300080580E94580D04C0898180540E94580D0B
:102D40000F900F900F900F90CF91DF910895DF9328
:102D5000CF9300D000D0CDB7DEB789836A83898155
:102D60008031C8F48A81282F30E03C832B838B810B
:102D70009C818130910531F02B813C8122303105DD
:102D800031F009C0898180580E94F10D04C0898109
:102D900080540E94F10D0F900F900F900F90CF91E3
:102DA000DF910895DF93CF9300D0CDB7DEB789834D
:102DB0006A830F900F90CF91DF910895DF93CF93A7
:102DC000CDB7DEB762970FB6F894DEBF0FBECDBFAA
:102DD000988B8F877A8B698BE989FA898081282F74
:102DE00030E08F859889FC01E20FF31F80818033EA
:102DF00068F0E989FA898081282F30E08F859889E9
:102E0000FC01E20FF31F80818A33A8F1E989FA8976
:102E10008081282F30E08F859889FC01E20FF31F15
:102E20008081813468F0E989FA898081282F30E037
:102E30008F859889FC01E20FF31F80818534D8F0DB
:102E4000E989FA898081282F30E08F859889FC01F3
:102E5000E20FF31F80818A3271F0E989FA8980815B
:102E6000282F30E08F859889FC01E20FF31F8081C5
:102E7000833209F086C0E989FA898081282F30E001
:102E80008F859889FC01E20FF31F80810E945F12F9
:102E900080E090E0AAEFB3E48B879C87AD87BE8784
:102EA0006B857C858D859E8520E030E04AEF54E47B
:102EB0000E941F02DC01CB018F839887A987BA8704
:102EC0006F81788589859A8520E030E040E85FE36E
:102ED0000E94250488232CF481E090E09E838D835A
:102EE0003FC06F81788589859A8520E03FEF4FE765
:102EF00057E40E94C50318164CF56B857C858D85BB
:102F00009E8520E030E040E251E40E941F02DC0197
:102F1000CB01BC01CD010E944900DC01CB019E83A5
:102F20008D830FC088EC90E09C838B838B819C8188
:102F30000197F1F79C838B838D819E8101979E83FE
:102F40008D838D819E81009769F714C06F8178858C
:102F500089859A850E944900DC01CB019E838D837F
:102F60008D819E819A83898389819A810197F1F766
:102F70009A838983E989FA8980818F5FE989FA894F
:102F8000808362960FB6F894DEBF0FBECDBFCF919F
:102F9000DF910895DF93CF930F92CDB7DEB71982FB
:102FA00008C083E0698141E00E94751C89818F5FC0
:102FB000898389818430A8F384E0898308C083E011
:102FC000698141E00E94491A89818F5F89838981E3
:102FD0008830A8F30F90CF91DF910895DF93CF93BE
:102FE000CDB7DEB764970FB6F894DEBF0FBECDBF86
:102FF0008FEF8C8B1F861B8AB6C084E0898B08C03C
:1030000083E0698941E00E94491A89898F5F898B31
:1030100089898830A8F38B89982F9C5F83E0692F7A
:1030200040E00E94491A1A8A94C083E06A890E948B
:103030003C1B888B80E090E0A0EAB1E48B879C8702
:10304000AD87BE876B857C858D859E8520E030E0D1
:103050004AEF54E40E941F02DC01CB018F83988762
:10306000A987BA876F81788589859A8520E030E0C5
:1030700040E85FE30E94250488232CF481E090E07F
:103080009E838D833FC06F81788589859A8520E0F6
:103090003FEF4FE757E40E94C50318164CF56B85C8
:1030A0007C858D859E8520E030E040E251E40E94E1
:1030B0001F02DC01CB01BC01CD010E944900DC01F3
:1030C000CB019E838D830FC088EC90E09C838B8323
:1030D0008B819C810197F1F79C838B838D819E81ED
:1030E00001979E838D838D819E81009769F714C01F
:1030F0006F81788589859A850E944900DC01CB0122
:103100009E838D838D819E819A83898389819A8113
:103110000197F1F79A83898388898823B9F48A898A
:10312000482F50E08B89282F30E0CA01880F991F63
:10313000880F991F820F931FFC01E859FF4F808170
:103140008C8B81E08F878F85813039F08A898F5F02
:103150008A8B8A89843008F468CF8F85813039F072
:103160008B898F5F8B8B8B89843008F446CF8C8959
:1031700064960FB6F894DEBF0FBECDBFCF91DF913E
:103180000895DF93CF93CDB7DEB7A5E5B0E0E5E5D1
:10319000F0E080818E7F8C93A5E5B0E0E5E5F0E07E
:1031A000808182608C93A5E5B0E0E5E5F0E0808168
:1031B0008B7F8C93A5E5B0E0E5E5F0E08081886049
:1031C0008C93A4E5B0E0E4E5F0E080818F7B8C9304
:1031D000CF91DF910895DF93CF9300D00F92CDB7B9
:1031E000DEB789838981282F30E03B832A838A8157
:1031F0009B818130910589F02A813B812230310504
:10320000A1F08A819B810097B9F4ABE5B0E0EBE5D2
:10321000F0E0808180648C930FC0ABE5B0E0EBE51B
:10322000F0E0808180688C9307C0ABE5B0E0EBE50F
:10323000F0E0808180628C930F900F900F90CF917F
:10324000DF910895DF93CF9300D00F92CDB7DEB713
:1032500089838981282F30E03B832A838A819B815F
:103260008130910589F02A813B8122303105A1F01E
:103270008A819B810097B9F4ABE5B0E0EBE5F0E023
:1032800080818F7B8C930FC0ABE5B0E0EBE5F0E085
:1032900080818F778C9307C0ABE5B0E0EBE5F0E081
:1032A00080818F7D8C930F900F900F90CF91DF9145
:1032B0000895DF93CF9300D0CDB7DEB79A8389838B
:1032C00089819A8190938D0080938C000F900F904C
:1032D000CF91DF910895DF93CF9300D0CDB7DEB7C4
:1032E0009A83898389819A8190938F0080938E003D
:1032F0000F900F90CF91DF910895DF93CF9300D07F
:10330000CDB7DEB79A83898389819A8190939100A2
:10331000809390000F900F90CF91DF9108951F92AE
:103320000F920FB60F9211242F933F934F935F93F9
:103330006F937F938F939F93AF93BF93EF93FF937D
:10334000DF93CF93CDB7DEB7E0918C00F0918D0085
:103350000995CF91DF91FF91EF91BF91AF919F912F
:103360008F917F916F915F914F913F912F910F902E
:103370000FBE0F901F9018951F920F920FB60F92CD
:1033800011242F933F934F935F936F937F938F936A
:103390009F93AF93BF93EF93FF93DF93CF93CDB7FB
:1033A000DEB7E0918E00F0918F000995CF91DF910B
:1033B000FF91EF91BF91AF919F918F917F916F910D
:1033C0005F914F913F912F910F900FBE0F901F90E3
:1033D00018951F920F920FB60F9211242F933F93BF
:1033E0004F935F936F937F938F939F93AF93BF930D
:1033F000EF93FF93DF93CF93CDB7DEB7E0919000CB
:10340000F09191000995CF91DF91FF91EF91BF91DC
:10341000AF919F918F917F916F915F914F913F916C
:103420002F910F900FBE0F901F901895DF93CF93A1
:10343000CDB7DEB7AFE5B0E0EFE5F0E080818068C2
:103440008C93CF91DF910895DF93CF93CDB7DEB703
:10345000AFE5B0E0EFE5F0E080818F778C93CF911E
:10346000DF910895DF93CF93CDB7DEB7EAE3F0E0C5
:103470008FEF8083E7E3F0E08FE48083E4E3F0E024
:1034800080EF8083E1E3F0E08FEF8083CF91DF91E5
:103490000895DF93CF9300D000D00F92CDB7DEB761
:1034A00089836A834B838981282F30E03D832C8375
:1034B0008C819D818230910509F448C02C813D8129
:1034C0002330310534F48C819D818130910571F078
:1034D000CBC02C813D812330310509F467C08C813C
:1034E0009D818430910509F491C0BEC08B818130EB
:1034F000A1F4ABE3B0E0EBE3F0E08081482F8A81F8
:10350000282F30E081E090E0022E02C0880F991F42
:103510000A94E2F7842B8C93A7C08B81882309F04F
:10352000A3C0ABE3B0E0EBE3F0E08081482F8A81F9
:10353000282F30E081E090E0022E02C0880F991F12
:103540000A94E2F7809584238C938EC08B8181301E
:10355000A1F4A8E3B0E0E8E3F0E08081482F8A819D
:10356000282F30E081E090E0022E02C0880F991FE2
:103570000A94E2F7842B8C9377C08B81882309F01F
:1035800073C0A8E3B0E0E8E3F0E08081482F8A81CF
:10359000282F30E081E090E0022E02C0880F991FB2
:1035A0000A94E2F7809584238C935EC08B818130EE
:1035B000A1F4A5E3B0E0E5E3F0E08081482F8A8143
:1035C000282F30E081E090E0022E02C0880F991F82
:1035D0000A94E2F7842B8C9347C08B81882309F0EF
:1035E00043C0A5E3B0E0E5E3F0E08081482F8A81A5
:1035F000282F30E081E090E0022E02C0880F991F52
:103600000A94E2F7809584238C932EC08B818130BD
:10361000A1F4A2E3B0E0E2E3F0E08081482F8A81E8
:10362000282F30E081E090E0022E02C0880F991F21
:103630000A94E2F7842B8C9317C08B818823A1F422
:10364000A2E3B0E0E2E3F0E08081482F8A81282FF6
:1036500030E081E090E0022E02C0880F991F0A94AA
:10366000E2F7809584238C930F900F900F900F902A
:103670000F90CF91DF910895DF93CF9300D000D0CA
:103680000F92CDB7DEB78A836B838A81282F30E013
:103690003D832C834C815D814230510541F18C8109
:1036A0009D818330910534F42C813D812130310599
:1036B00061F052C04C815D814330510551F18C81E4
:1036C0009D8184309105B9F147C0E9E3F0E0808144
:1036D000282F30E08B81882F90E0A90102C05595FA
:1036E00047958A95E2F7CA018170898335C0E6E380
:1036F000F0E08081282F30E08B81882F90E0A901B5
:1037000002C0559547958A95E2F7CA018170898371
:1037100023C0E3E3F0E08081282F30E08B81882F05
:1037200090E0A90102C0559547958A95E2F7CA0134
:103730008170898311C0E0E3F0E08081282F30E0C0
:103740008B81882F90E0A90102C0559547958A95F5
:10375000E2F7CA018170898389810F900F900F90E1
:103760000F900F90CF91DF910895DF93CF9300D00A
:1037700000D0CDB7DEB789836A838981282F30E0F6
:103780003C832B838B819C818230910551F12B816D
:103790003C812330310534F48B819C81813091054B
:1037A00061F05AC02B813C812330310571F18B814E
:1037B0009C8184309105E9F14FC0ABE3B0E0EBE3CD
:1037C000F0E08081482F8A81282F30E081E090E06E
:1037D000022E02C0880F991F0A94E2F784278C9367
:1037E0003BC0A8E3B0E0E8E3F0E08081482F8A81A5
:1037F000282F30E081E090E0022E02C0880F991F50
:103800000A94E2F784278C9327C0A5E3B0E0E5E3B0
:10381000F0E08081482F8A81282F30E081E090E01D
:10382000022E02C0880F991F0A94E2F784278C9316
:1038300013C0A2E3B0E0E2E3F0E08081482F8A8188
:10384000282F30E081E090E0022E02C0880F991FFF
:103850000A94E2F784278C930F900F900F900F90AB
:10386000CF91DF910895DF93CF9300D000D0CDB7F3
:10387000DEB789836A838981282F30E03C832B83DC
:103880008B819C8182309105D9F02B813C81233042
:10389000310534F48B819C818130910561F01EC02B
:1038A0002B813C812330310581F08B819C818430D8
:1038B000910581F013C0EBE3F0E08A8180830EC0B4
:1038C000E8E3F0E08A81808309C0E5E3F0E08A81E3
:1038D000808304C0E2E3F0E08A8180830F900F9040
:1038E0000F900F90CF91DF910895DF93CF9300D089
:1038F00000D000D0CDB7DEB78A836B834C838A813A
:10390000282F30E03E832D834D815E81423051056A
:1039100041F18D819E818330910534F42D813E816A
:103920002130310561F052C04D815E814330510537
:1039300051F18D819E8184309105B9F147C0EAE350
:10394000F0E08081282F30E08B81882F90E0A90162
:1039500002C0559547958A95E2F7CA01817089831F
:1039600035C0E7E3F0E08081282F30E08B81882F9D
:1039700090E0A90102C0559547958A95E2F7CA01E2
:103980008170898323C0E4E3F0E08081282F30E058
:103990008B81882F90E0A90102C0559547958A95A3
:1039A000E2F7CA018170898311C0E1E3F0E0808110
:1039B000282F30E08B81882F90E0A90102C0559517
:1039C00047958A95E2F7CA018170898389818823A6
:1039D00029F48A816B814C810E94491A26960FB680
:1039E000F894DEBF0FBECDBFCF91DF910895DF9376
:1039F000CF930F92CDB7DEB7898389818A3060F487
:103A00008981882F90E0FC01E858FF4F908181E088
:103A1000692F0E94331C25C089818A3010F1898169
:103A20008336F8F489819AE0692F0E944E1E892F0F
:103A3000882F90E0FC01E858FF4F908181E0692FCA
:103A40000E94331C89819AE0692F0E944E1E882FA4
:103A500090E0FC01EE57FF4F908182E0692F0E94B9
:103A6000331C0F90CF91DF910895DF93CF93CDB7A3
:103A7000DEB76E970FB6F894DEBF0FBECDBF0E94C3
:103A8000321A0E948E0682E060E040E00E94491AED
:103A90001E8E80E00E94B8068D8F8D8D853009F0D6
:103AA0007CC08E8D8230A8F78E8D8F5F8E8F8E8D2D
:103AB0000E94F71C80E090E0A0EAB1E4898F9A8F21
:103AC000AB8FBC8F698D7A8D8B8D9C8D20E030E023
:103AD0004AEF54E40E941F02DC01CB018D8B9E8BC8
:103AE000AF8BB88F6D897E898F89988D20E030E00B
:103AF00040E85FE30E94250488232CF481E090E0F5
:103B00009C8B8B8B3FC06D897E898F89988D20E03F
:103B10003FEF4FE757E40E94C50318164CF5698D37
:103B20007A8D8B8D9C8D20E030E040E251E40E9444
:103B30001F02DC01CB01BC01CD010E944900DC0168
:103B4000CB019C8B8B8B0FC088EC90E09A8B898B80
:103B500089899A890197F1F79A8B898B8B899C893E
:103B600001979C8B8B8B8B899C89009769F791CFF0
:103B70006D897E898F89988D0E944900DC01CB0177
:103B80009C8B8B8B8B899C89988B8F878F85988951
:103B90000197F1F7988B8F877CCF8D8D833009F05B
:103BA00078C082E060E041E00E94491A80E090E441
:103BB000ACE9B5E48B879C87AD87BE876B857C8538
:103BC0008D859E8520E030E04AEF54E40E941F027C
:103BD000DC01CB018F839887A987BA876F817885AD
:103BE00089859A8520E030E040E85FE30E94250463
:103BF00088232CF481E090E09E838D833FC06F8109
:103C0000788589859A8520E03FEF4FE757E40E9449
:103C1000C50318164CF56B857C858D859E8520E047
:103C200030E040E251E40E941F02DC01CB01BC0104
:103C3000CD010E944900DC01CB019E838D830FC022
:103C400088EC90E09C838B838B819C810197F1F7BA
:103C50009C838B838D819E8101979E838D838D8133
:103C60009E81009769F715CF6F81788589859A8540
:103C70000E944900DC01CB019E838D838D819E8152
:103C80009A83898389819A810197F1F79A8389833D
:103C900000CF1E8E8E8D0E94F71CFBCE991B79E003
:103CA00004C0991F961708F0961B881F7A95C9F7CC
:103CB000809508952F923F924F925F926F927F92DC
:103CC0008F929F92AF92BF92CF92DF92EF92FF922C
:103CD0000F931F93CF93DF93CDB7DEB7CA1BDB0BD8
:103CE0000FB6F894DEBF0FBECDBF09942A8839887D
:103CF00048885F846E847D848C849B84AA84B98484
:103D0000C884DF80EE80FD800C811B81AA81B9818F
:103D1000CE0FD11D0FB6F894DEBF0FBECDBFED01A3
:063D20000895F894FFCFA6
:103D260000000000000000003132334134353642D5
:103D3600373839432A3023443F065B4F666D7D078B
:0C3D46007F6F3F065B4F666D7D077F6F4F
:00000001FF
