:100000000C942A000C94B21F0C94DF1F0C940C204B
:100010000C9447000C9447000C94340A0C94DA09B1
:100020000C94070A0C94AD090C94870B0C94540B98
:100030000C9447000C9464070C948F070C947F0772
:100040000C94FD260C9447000C9447000C94470038
:100050000C94470011241FBECFE5D8E0DEBFCDBF12
:1000600010E0A0E6B0E0E2E6FFE502C005900D92E8
:10007000A03EB107D9F711E0A0EEB0E001C01D929B
:10008000AD31B107E1F70E942A270C94AF2F0C94F1
:100090000000EF92FF920F931F937B018C0120E0F1
:1000A00030E040E05FE40E94F50388238CF0C80153
:1000B000B70120E030E040E05FE40E94C1010E940F
:1000C00055049B01AC01205030404040504806C0D0
:1000D000C801B7010E9455049B01AC01B901CA01D6
:1000E0001F910F91FF90EF900895A0E0B0E0EBE733
:1000F000F0E00C94782FDC012B01FA019C919230F6
:1001000008F439C1EB018881823008F433C194309E
:1001100069F4843009F02FC111969C91119789815F
:10012000981709F428C1A7ECB0E025C1843009F480
:1001300021C18230A9F4923009F01DC19A01AD01AC
:1001400088E0EA010990AE01E90109929E0181501F
:10015000C1F7E201898111969C918923818308C1AD
:10016000923009F407C112962D903C901397EB0141
:100170008A819B811496AD90BD90CD90DC901797AD
:10018000EC80FD800E811F819101281B390BB90184
:1001900037FF04C066277727621B730B6032710537
:1001A0000CF061C0121613066CF537014801062EDB
:1001B00004C096948794779467940A94D2F721E0C8
:1001C00030E040E050E004C0220F331F441F551FB1
:1001D0006A95D2F721503040404050402E213F21B7
:1001E00040235123211531054105510521F021E01E
:1001F00030E040E050E079018A01E628F72808293C
:1002000019293CC0232BD1F1260E371E350146019A
:10021000062E04C096948794779467940A94D2F734
:1002200021E030E040E050E004C0220F331F441FC3
:10023000551F6A95D2F721503040404050402A2146
:100240003B214C215D21211531054105510521F04E
:1002500021E030E040E050E059016A01A628B728CB
:10026000C828D9280BC0821593052CF01C01AA249C
:10027000BB24650103C0EE24FF24870111969C91E5
:10028000D20111968C91981709F445C0992339F041
:10029000A80197012A193B094C095D0906C0A6016E
:1002A00095012E193F09400B510B57FD08C01182D3
:1002B0003382228224833583468357831DC081E0A5
:1002C00081833382228288279927DC01821B930B4A
:1002D000A40BB50B84839583A683B7830DC0220F2F
:1002E000331F441F551F24833583468357838281E0
:1002F000938101979383828324813581468157813D
:10030000DA01C9010197A109B1098F5F9F4FAF4F72
:10031000BF4328F30BC0918333822282EA0CFB1C7B
:100320000C1D1D1DE482F5820683178383E0808304
:10033000248135814681578157FF1AC0C901AA27F8
:1003400097FDA095BA2F81709070A070B0705695EF
:10035000479537952795822B932BA42BB52B848318
:100360009583A683B7838281938101969383828349
:10037000DF0101C0D201CD01CDB7DEB7E2E10C94BF
:10038000942FA0E2B0E0E7ECF1E00C94842F6983B5
:100390007A838B839C832D833E834F835887E9E048
:1003A000EE2EF12CEC0EFD1ECE010196B7010E943F
:1003B0007E058E010F5E1F4FCE010596B8010E948B
:1003C0007E058A8991E089278A8BC701B801AE0131
:1003D000475E5F4F0E9475000E94A904A096E6E068
:1003E0000C94A02FA0E2B0E0E8EFF1E00C94842F91
:1003F00069837A838B839C832D833E834F835887C5
:10040000F9E0EF2EF12CEC0EFD1ECE010196B701A6
:100410000E947E058E010F5E1F4FCE010596B8012A
:100420000E947E05C701B801AE01475E5F4F0E9482
:1004300075000E94A904A096E6E00C94A02FA0E20B
:10044000B0E0E5E2F2E00C94782F69837A838B8345
:100450009C832D833E834F835887CE010196BE0136
:10046000675F7F4F0E947E05CE010596BE016F5EDD
:100470007F4F0E947E059985923088F0898982306D
:10048000C8F0943019F4823051F404C0843029F457
:10049000923081F487EC90E0C6C0923049F420E0BD
:1004A0009A858A89981321E02A87CE010996BBC0D4
:1004B000823049F420E09A858A89981321E02A8BBA
:1004C000CE014196B0C02D843E844F8458886D88FB
:1004D0007E888F88988CEE24FF248701AA24BB2471
:1004E000650140E050E060E070E0E0E0F0E0C10174
:1004F00081709070892BE9F0E60CF71C081D191D1E
:100500009A01AB012A0D3B1D4C1D5D1D80E090E062
:10051000A0E0B0E0E614F7040805190520F481E036
:1005200090E0A0E0B0E0BA01A901480F591F6A1F8E
:100530007B1FAA0CBB1CCC1CDD1C97FE08C081E0F5
:1005400090E0A0E0B0E0A82AB92ACA2ADB2A3196B6
:10055000E032F10549F0660C771C881C991C569412
:10056000479437942794C3CFFA85EA892B893C892D
:100570008B859C85280F391F2E5F3F4F17C0CA01FE
:1005800081709070892B61F016950795F794E79428
:1005900080E090E0A0E0B0E8E82AF92A0A2B1B2BC3
:1005A00076956795579547952F5F3F4F77FDE7CF36
:1005B0000CC0440F551F661F771F17FD4160EE0CDE
:1005C000FF1C001F111F21503040403090E05907A0
:1005D00090E0690790E4790760F32B8F3C8FDB0193
:1005E000CA018F779070A070B07080349105A1051A
:1005F000B10561F447FD0AC0E114F10401051105DC
:1006000029F0405C5F4F6F4F7F4F40781A8EFE1786
:1006100011F081E08A8F4D8F5E8F6F8F78A383E01A
:10062000898FCE0149960E94A904A096E2E10C941C
:10063000942FA8E1B0E0EFE1F3E00C94802F698300
:100640007A838B839C832D833E834F835887B9E0C5
:10065000EB2EF12CEC0EFD1ECE010196B7010E948F
:100660007E058E010F5E1F4FCE010596B8010E94D8
:100670007E052985223008F47EC03989323010F495
:10068000B8017CC08A859A8989278A87243011F02D
:10069000223031F4231709F06EC067EC70E06EC0B1
:1006A000343039F41D861E861F86188A1C861B86E8
:1006B00004C0323021F484E08987B7015FC02B8504
:1006C0003C858B899C89281B390B3C872B87ED84C3
:1006D000FE840F851889AD88BE88CF88D88CEA142F
:1006E000FB040C051D0540F4EE0CFF1C001F111F40
:1006F000215030403C872B8720E030E040E050E044
:1007000080E090E0A0E0B0E460E070E0EA14FB0478
:100710000C051D0540F0282B392B4A2B5B2BEA18C2
:10072000FB080C091D09B695A79597958795EE0CC2
:10073000FF1C001F111F6F5F7F4F6F31710531F775
:10074000DA01C9018F779070A070B0708034910584
:10075000A105B10561F427FD0AC0E114F10401050A
:10076000110529F0205C3F4F4F4F5F4F20782D87B8
:100770003E874F87588BBE01675F7F4FCB010E943A
:10078000A9046896EAE00C949C2FA8E1B0E0EBEC99
:10079000F3E00C94842F69837A838B839C832D836D
:1007A0003E834F83588789E0E82EF12CEC0EFD1E26
:1007B000CE010196B7010E947E058E010F5E1F4F8C
:1007C000CE010596B8010E947E058985823040F0F1
:1007D0008989823028F0C701B8010E94F60501C05E
:1007E0008FEF6896E6E00C94A02FA8E1B0E0EBEF65
:1007F000F3E00C94842F69837A838B839C832D830D
:100800003E834F83588789E0E82EF12CEC0EFD1EC5
:10081000CE010196B7010E947E058E010F5E1F4F2B
:10082000CE010596B8010E947E058985823040F090
:100830008989823028F0C701B8010E94F60501C0FD
:100840008FEF6896E6E00C94A02FA8E1B0E0EBE211
:10085000F4E00C94842F69837A838B839C832D83AB
:100860003E834F83588789E0E82EF12CEC0EFD1E65
:10087000CE010196B7010E947E058E010F5E1F4FCB
:10088000CE010596B8010E947E058985823040F030
:100890008989823028F0C701B8010E94F60501C09D
:1008A00081E06896E6E00C94A02FACE0B0E0EBE5C8
:1008B000F4E00C94882F69837A838B839C83CE0128
:1008C0000196BE016B5F7F4F0E947E058D81823055
:1008D00061F1823050F1843021F48E81882351F10E
:1008E0002EC02F81388537FD20C06E812F31310514
:1008F0001CF06623F9F023C08EE190E0821B930B7D
:1009000029853A854B855C8504C056954795379572
:1009100027958A95D2F76623B1F05095409530958A
:1009200021953F4F4F4F5F4F0EC020E030E040E039
:1009300050E009C02FEF3FEF4FEF5FE704C020E02A
:1009400030E040E050E8B901CA012C96E2E00C9496
:10095000A42FDF92EF92FF920F931F93FC01E4808C
:10096000F58006811781D1808081823048F480E053
:1009700090E0A0E1B0E0E82AF92A0A2B1B2BA5C0E1
:10098000843009F49FC0823021F4EE24FF248701D3
:1009900005C0E114F1040105110519F4E0E0F0E0EF
:1009A00096C0628173819FEF623879070CF05BC05B
:1009B00022E83FEF261B370B2A3131052CF020E0CF
:1009C00030E040E050E02AC0B801A701022E04C088
:1009D00076956795579547950A94D2F781E090E010
:1009E000A0E0B0E004C0880F991FAA1FBB1F2A9582
:1009F000D2F70197A109B1098E219F21A023B1232C
:100A00000097A105B10521F081E090E0A0E0B0E001
:100A10009A01AB01282B392B4A2B5B2BDA01C90138
:100A20008F779070A070B07080349105A105B105EA
:100A300039F427FF09C0205C3F4F4F4F5F4F04C080
:100A4000215C3F4F4F4F5F4FE0E0F0E02030A0E0EF
:100A50003A07A0E04A07A0E45A0710F0E1E0F0E00E
:100A600079018A0127C06038710564F5FB01E158FE
:100A7000FF4FD801C7018F779070A070B07080349D
:100A80009105A105B10539F4E7FE0DC080E490E0C1
:100A9000A0E0B0E004C08FE390E0A0E0B0E0E80E9A
:100AA000F91E0A1F1B1F17FF05C016950795F7941F
:100AB000E794319687E016950795F794E7948A9521
:100AC000D1F705C0EE24FF248701EFEFF0E06E2F91
:100AD000679566276795902F9F77D794DD24D794E5
:100AE0008E2F8695492F462B582F5D29B701CA01B5
:100AF0001F910F91FF90EF90DF900895FC01DB01B3
:100B0000408151812281622F6F7770E0221F22275E
:100B1000221F9381892F880F822B282F30E0991F65
:100B20009927991F11969C93119721153105A9F5C5
:100B3000411551056105710511F482E037C082E865
:100B40009FEF13969C938E9312979A01AB0167E0E7
:100B5000220F331F441F551F6A95D1F783E08C93F2
:100B60000DC0220F331F441F551F12968D919C916B
:100B70001397019713969C938E931297203080E0E1
:100B8000380780E0480780E4580758F314962D93FF
:100B90003D934D935C93179708952F3F310579F45A
:100BA000411551056105710519F484E08C93089590
:100BB00064FF03C081E08C9312C01C9210C02F57B9
:100BC000304013963C932E93129783E08C9387E0EA
:100BD000440F551F661F771F8A95D1F770641496CE
:100BE0004D935D936D937C93179708951F93DC014C
:100BF000FB019C91923008F447C08081823008F458
:100C000043C0943051F411961C91843099F5818140
:100C1000682F70E0611B71093FC0843021F0923071
:100C200031F48230B9F18181882389F12DC0119688
:100C30001C9111978230F1F081811817D9F4129626
:100C40002D913C911397828193818217930794F0A1
:100C500028173907BCF014968D919D910D90BC9189
:100C6000A02D2481358146815781281739074A07ED
:100C70005B0718F4112341F00AC082179307A407F9
:100C8000B50740F4112319F061E070E005C06FEF83
:100C90007FEF02C060E070E0CB011F910895DF9309
:100CA000CF930F92CDB7DEB71982AAE2B0E0EAE2A5
:100CB000F0E0808180688C93AAE2B0E0EAE2F0E0A4
:100CC000808180628C93AAE2B0E0EAE2F0E0808169
:100CD0008B7F8C93898180688983898182608983F5
:100CE00089818460898389818F7B898389818F7ED3
:100CF000898389818F7D89838981877F8983E9E2DF
:100D0000F0E083E38083AAE2B0E0EAE2F0E08081F1
:100D100080618C93AAE2B0E0EAE2F0E08081886032
:100D20008C93E0E4F0E0898180830F90CF91DF9194
:100D30000895DF93CF930F92CDB7DEB78983898172
:100D40008093EF000F90CF91DF910895DF93CF93C1
:100D50000F92CDB7DEB78983EBE2F0E08081882F78
:100D600090E0807290700097B9F3ECE2F0E0898136
:100D700080830F90CF91DF910895DF93CF93CDB70C
:100D8000DEB7EBE2F0E080818823DCF7ECE2F0E014
:100D90008081CF91DF910895DF93CF93CDB7DEB7F8
:100DA00060970FB6F894DEBF0FBECDBF988B8F87CC
:100DB0007CC0EF85F88980810E94A6068F8598897E
:100DC0000196988B8F8780E090E0A8ECB2E48B8747
:100DD0009C87AD87BE876B857C858D859E8520E051
:100DE00030E04AEF54E40E941F02DC01CB018F8304
:100DF0009887A987BA876F81788589859A8520E049
:100E000030E040E85FE30E94250488232CF481E071
:100E100090E09E838D833FC06F81788589859A8518
:100E200020E03FEF4FE757E40E94C50318164CF54A
:100E30006B857C858D859E8520E030E040E251E425
:100E40000E941F02DC01CB01BC01CD010E944900C0
:100E5000DC01CB019E838D830FC088EC90E09C83E6
:100E60008B838B819C810197F1F79C838B838D8190
:100E70009E8101979E838D838D819E81009769F766
:100E800014C06F81788589859A850E944900DC01AC
:100E9000CB019E838D838D819E819A8389838981F5
:100EA0009A810197F1F79A838983EF85F889808188
:100EB000882309F07ECF60960FB6F894DEBF0FBE90
:100EC000CDBFCF91DF9108951F920F920FB60F9271
:100ED00011248F93EF93FF93DF93CF93CDB7DEB7BA
:100EE000ECE2F0E08091EF008083CF91DF91FF9101
:100EF000EF918F910F900FBE0F901F9018951F923A
:100F00000F920FB60F921124DF93CF93CDB7DEB7B8
:100F1000CF91DF910F900FBE0F901F9018951F92E9
:100F20000F920FB60F9211242F933F934F935F931D
:100F30006F937F938F939F93AF93BF93EF93FF93A1
:100F4000DF93CF93CDB7DEB78091EF000E94990673
:100F5000CF91DF91FF91EF91BF91AF919F918F91D1
:100F60007F916F915F914F913F912F910F900FBEA5
:100F70000F901F901895DF93CF93CDB7DEB7AFE4F6
:100F8000B0E0EFE4F0E080818E7F8C93AFE4B0E0DE
:100F9000EFE4F0E0808182608C93AEE4B0E0EEE4B8
:100FA000F0E0808188608C93AEE4B0E0EEE4F0E0A5
:100FB000808180618C93AFE4B0E0EFE4F0E0808169
:100FC0008F7B8C93AFE4B0E0EFE4F0E08081806849
:100FD0008C93AFE4B0E0EFE4F0E080818F7E8C93FF
:100FE000AFE4B0E0EFE4F0E0808180628C93AEE4A7
:100FF000B0E0EEE4F0E08081887F8C93A9E5B0E07A
:10100000E9E5F0E080818B7F8C93A9E5B0E0E9E52C
:10101000F0E08081877F8C93A9E5B0E0E9E5F0E01E
:1010200080818F7E8C93A9E5B0E0E9E5F0E08081D6
:101030008F7D8C93A8E5B0E0E8E5F0E080818460E6
:101040008C93A8E5B0E0E8E5F0E0808188608C93BF
:10105000A8E5B0E0E8E5F0E0808180618C93A8E548
:10106000B0E0E8E5F0E0808180628C93EAE4F0E0B3
:101070001082EBE4F0E01082E8E4F0E01082E9E4B2
:10108000F0E01082ECE4F0E01082EDE4F0E0108299
:10109000E6E4F0E01082E7E4F0E01082CF91DF9127
:1010A0000895DF93CF930F92CDB7DEB78983AEE477
:1010B000B0E0EEE4F0E08081887F8C93AEE4B0E0B5
:1010C000EEE4F0E08081982F89818770892B8C93E2
:1010D0000F90CF91DF910895DF93CF93CDB7DEB717
:1010E000AEE4B0E0EEE4F0E08081887F8C93CF91B5
:1010F000DF910895DF93CF93CDB7DEB7A9E5B0E0D8
:10110000E9E5F0E0808184608C93CF91DF910895D0
:10111000DF93CF93CDB7DEB7A9E5B0E0E9E5F0E026
:1011200080818B7F8C93CF91DF910895DF93CF9354
:10113000CDB7DEB7A9E5B0E0E9E5F0E080818061F8
:101140008C93CF91DF910895DF93CF93CDB7DEB726
:10115000A9E5B0E0E9E5F0E080818F7E8C93CF9146
:10116000DF910895DF93CF93CDB7DEB7A9E5B0E067
:10117000E9E5F0E0808188608C93CF91DF9108955C
:10118000DF93CF93CDB7DEB7A9E5B0E0E9E5F0E0B6
:101190008081877F8C93CF91DF910895DF93CF93E8
:1011A000CDB7DEB7A9E5B0E0E9E5F0E08081806287
:1011B0008C93CF91DF910895DF93CF93CDB7DEB7B6
:1011C000A9E5B0E0E9E5F0E080818F7D8C93CF91D7
:1011D000DF910895DF93CF9300D0CDB7DEB79A8328
:1011E000898389819A819093F5008093F4000F9010
:1011F0000F90CF91DF910895DF93CF9300D0CDB7BB
:10120000DEB79A83898389819A819093F7008093CE
:10121000F6000F900F90CF91DF910895DF93CF9359
:1012200000D0CDB7DEB79A83898389819A81909364
:10123000F1008093F0000F900F90CF91DF9108950F
:10124000DF93CF9300D0CDB7DEB79A8389838981AE
:101250009A819093F3008093F2000F900F90CF91BA
:10126000DF910895DF93CF9300D0CDB7DEB79A8397
:101270008983ECE4F0E089818083EDE4F0E089810A
:101280009A81892F992780830F900F90CF91DF91BA
:101290000895DF93CF9300D0CDB7DEB79A838983CB
:1012A000EAE4F0E089818083EBE4F0E089819A81CF
:1012B000892F992780830F900F90CF91DF91089508
:1012C000DF93CF9300D0CDB7DEB79A838983E8E46C
:1012D000F0E089818083E9E4F0E089819A81892FB7
:1012E000992780830F900F90CF91DF910895DF931E
:1012F000CF9300D0CDB7DEB79A838983E6E4F0E0E0
:1013000089819A81918380830F900F90CF91DF9193
:101310000895DF93CF9300D0CDB7DEB7EDE4F0E0D2
:101320008081882F90E09A83898389819A81982F80
:1013300088279A838983ECE4F0E08081282F30E0CD
:1013400089819A81822B932B9A83898389819A81BF
:101350000F900F90CF91DF9108951F920F920FB6CB
:101360000F9211242F933F934F935F936F937F932B
:101370008F939F93AF93BF93EF93FF93DF93CF939D
:10138000CDB7DEB7E091F400F091F5000995CF916B
:10139000DF91FF91EF91BF91AF919F918F917F91DD
:1013A0006F915F914F913F912F910F900FBE0F90D2
:1013B0001F9018951F920F920FB60F9211242F9322
:1013C0003F934F935F936F937F938F939F93AF93CD
:1013D000BF93EF93FF93DF93CF93CDB7DEB7E09149
:1013E000F600F091F7000995CF91DF91FF91EF9111
:1013F000BF91AF919F918F917F916F915F914F912D
:101400003F912F910F900FBE0F901F9018951F9234
:101410000F920FB60F9211242F933F934F935F9328
:101420006F937F938F939F93AF93BF93EF93FF93AC
:10143000DF93CF93CDB7DEB7E091F000F091F100EC
:101440000995CF91DF91FF91EF91BF91AF919F915E
:101450008F917F916F915F914F913F912F910F905D
:101460000FBE0F901F9018951F920F920FB60F92FC
:1014700011242F933F934F935F936F937F938F9399
:101480009F93AF93BF93EF93FF93DF93CF93CDB72A
:10149000DEB7E091F200F091F3000995CF91DF9172
:1014A000FF91EF91BF91AF919F918F917F916F913C
:1014B0005F914F913F912F910F900FBE0F901F9012
:1014C0001895DF93CF93CDB7DEB7E6E4F0E08081E7
:1014D0009181CF91DF910895DF93CF93CDB7DEB7A0
:1014E000AEE4B0E0EEE4F0E0808180648C93CF91D4
:1014F000DF910895DF93CF93CDB7DEB7AEE4B0E0D0
:10150000EEE4F0E080818F7B8C93CF91DF910895A2
:10151000DF93CF93CDB7DEB7A3E5B0E0E3E5F0E02E
:10152000808180648C93A3E5B0E0E3E5F0E0808106
:1015300088608C93A3E5B0E0E3E5F0E08081806112
:101540008C93A3E5B0E0E3E5F0E0808180628C93CA
:10155000CF91DF910895DF93CF930F92CDB7DEB790
:101560008983A3E5B0E0E3E5F0E08081887F8C9398
:10157000A3E5B0E0E3E5F0E090818981892B8C93CD
:101580000F90CF91DF910895DF93CF93CDB7DEB762
:10159000A3E5B0E0E3E5F0E08081887F8C93CF9114
:1015A000DF910895DF93CF93CDB7DEB7A9E5B0E023
:1015B000E9E5F0E0808181608C93CF91DF9108951F
:1015C000DF93CF93CDB7DEB7A9E5B0E0E9E5F0E072
:1015D00080818E7F8C93CF91DF910895DF93CF939D
:1015E000CDB7DEB7A9E5B0E0E9E5F0E08081826043
:1015F0008C93CF91DF910895DF93CF93CDB7DEB772
:10160000A9E5B0E0E9E5F0E080818D7F8C93CF9192
:10161000DF910895DF93CF930F92CDB7DEB7898323
:10162000E2E5F0E0898180830F90CF91DF9108950A
:10163000DF93CF930F92CDB7DEB78983ECE5F0E06F
:10164000898180830F90CF91DF910895DF93CF93AD
:10165000CDB7DEB7E2E5F0E08081CF91DF9108956C
:10166000DF93CF9300D0CDB7DEB79A83898389818A
:101670009A819093E1008093E0000F900F90CF91BA
:10168000DF910895DF93CF9300D0CDB7DEB79A8373
:10169000898389819A819093E3008093E2000F907F
:1016A0000F90CF91DF9108951F920F920FB60F9276
:1016B00011242F933F934F935F936F937F938F9357
:1016C0009F93AF93BF93EF93FF93DF93CF93CDB7E8
:1016D000DEB78091E0009091E100009729F0E09161
:1016E000E000F091E1000995CF91DF91FF91EF913A
:1016F000BF91AF919F918F917F916F915F914F912A
:101700003F912F910F900FBE0F901F9018951F9231
:101710000F920FB60F9211242F933F934F935F9325
:101720006F937F938F939F93AF93BF93EF93FF93A9
:10173000DF93CF93CDB7DEB78091E2009091E300C5
:10174000009729F0E091E200F091E3000995CF9134
:10175000DF91FF91EF91BF91AF919F918F917F9119
:101760006F915F914F913F912F910F900FBE0F900E
:101770001F901895DF93CF93CDB7DEB7ADE2B0E001
:10178000EDE2F0E080818F7D8C93ADE2B0E0EDE2A0
:10179000F0E0808180618C93ADE2B0E0EDE2F0E0BA
:1017A0008081877F8C93ADE2B0E0EDE2F0E0808154
:1017B0008B7F8C93ADE2B0E0EDE2F0E08081816060
:1017C0008C93ADE2B0E0EDE2F0E080818D7F8C9310
:1017D000AEE2B0E0EEE2F0E080818E7F8C93ADE28D
:1017E000B0E0EDE2F0E0808180648C93CF91DF91F6
:1017F0000895DF93CF93CDB7DEB7ADE2B0E0EDE271
:10180000F0E080818F7D8C93ADE2B0E0EDE2F0E01E
:1018100080818F7E8C93ADE2B0E0EDE2F0E08081DC
:10182000877F8C93ADE2B0E0EDE2F0E080818B7FCA
:101830008C93ADE2B0E0EDE2F0E0808180648C93C7
:10184000CF91DF910895DF93CF930F92CDB7DEB79D
:101850008983EFE2F0E089818083EEE2F0E080812D
:101860008823DCF7EFE2F0E080810F90CF91DF91E9
:1018700008950F931F93DF93CF930F92CDB7DEB7E9
:1018800019820CC08981082F10E00E940E1EF801F9
:10189000E850FF4F808389818F5F898389818530FC
:1018A00088F388EF90E00F90CF91DF911F910F9117
:1018B0000895DF93CF9300D00F92CDB7DEB78A8320
:1018C0006B8319829A818B81981711F4198202C057
:1018D00081E0898389810F900F900F90CF91DF91E4
:1018E00008950F931F93DF93CF93CDB7DEB7C45501
:1018F000D0400FB6F894DEBF0FBECDBF81E061E0EF
:101900000E94582583E062E041E00E946E2383E05C
:1019100063E041E00E946E2383E063E040E00E94C8
:101920006E23FE01EF5AFF4F80E090E0A0EFB1E49C
:1019300080839183A283B3838E01035B1F4FFE01DB
:10194000EF5AFF4F608171818281938120E030E006
:101950004AEF54E40E941F02DC01CB01F8018083AE
:101960009183A283B383FE01E35BFF4F60817181AA
:101970008281938120E030E040E85FE30E9425040B
:10198000882344F4FE01E55BFF4F81E090E0918302
:10199000808364C0FE01E35BFF4F608171818281BF
:1019A000938120E03FEF4FE757E40E94C5031816EC
:1019B0000CF043C0FE01EF5AFF4F608171818281BC
:1019C000938120E030E040E251E40E941F02DC01FC
:1019D000CB018E01055B1F4FBC01CD010E94490068
:1019E000DC01CB01F801918380831FC0FE01E75B1E
:1019F000FF4F88EC90E091838083FE01E75BFF4F0F
:101A0000808191810197F1F7FE01E75BFF4F9183A0
:101A10008083DE01A55BBF4FFE01E55BFF4F808148
:101A20009181019711969C938E93FE01E55BFF4F88
:101A3000808191810097D1F627C08E01055B1F4FF1
:101A4000FE01E35BFF4F60817181828193810E947F
:101A50004900DC01CB01F80191838083DE01A95BA1
:101A6000BF4FFE01E55BFF4F808191818D939C9379
:101A7000FE01E95BFF4F808191810197F1F7FE0143
:101A8000E95BFF4F9183808382E00E94F712FE01A1
:101A9000ED5BFF4F80E090E0A0EAB0E480839183AB
:101AA000A283B3838E01015C1F4FFE01ED5BFF4FEC
:101AB000608171818281938120E030E04AEF54E4BB
:101AC0000E941F02DC01CB01F80180839183A28375
:101AD000B383FE01FF96608171818281938120E052
:101AE00030E040E85FE30E94250488232CF481E085
:101AF00090E09EAF8DAF46C0FE01FF966081718180
:101B00008281938120E03FEF4FE757E40E94C503B5
:101B1000181664F5FE01ED5BFF4F608171818281D3
:101B2000938120E030E040E251E40E941F02DC019A
:101B3000CB01BC01CD010E944900DC01CB019EAF6D
:101B40008DAF0FC088EC90E09CAF8BAF8BAD9CADA0
:101B50000197F1F79CAF8BAF8DAD9EAD01979EAF16
:101B60008DAF8DAD9EAD009769F716C0FE01FF9653
:101B700060817181828193810E944900DC01CB01E7
:101B80009EAF8DAF8DAD9EAD9AAF89AF89AD9AAD49
:101B90000197F1F79AAF89AF88E30E94F71280E0CE
:101BA00090E0A0EAB0E48DAB9EABAFABB8AF6DA94F
:101BB0007EA98FA998AD20E030E04AEF54E40E945E
:101BC0001F02DC01CB0189AB9AABABABBCAB69A903
:101BD0007AA98BA99CA920E030E040E85FE30E944D
:101BE000250488232CF481E090E098AB8FA73FC0B8
:101BF00069A97AA98BA99CA920E03FEF4FE757E498
:101C00000E94C50318164CF56DA97EA98FA998AD41
:101C100020E030E040E251E40E941F02DC01CB01F1
:101C2000BC01CD010E944900DC01CB0198AB8FA71C
:101C30000FC088EC90E09EA78DA78DA59EA501976B
:101C4000F1F79EA78DA78FA598A9019798AB8FA7AD
:101C50008FA598A9009769F714C069A97AA98BA9DB
:101C60009CA90E944900DC01CB0198AB8FA78FA5EE
:101C700098A99CA78BA78BA59CA50197F1F79CA77A
:101C80008BA78CE00E94F71280E090E0A0EAB0E41D
:101C90008FA398A7A9A7BAA76FA178A589A59AA588
:101CA00020E030E04AEF54E40E941F02DC01CB0147
:101CB0008BA39CA3ADA3BEA36BA17CA18DA19EA170
:101CC00020E030E040E85FE30E94250488232CF404
:101CD00081E090E09AA389A33FC06BA17CA18DA174
:101CE0009EA120E03FEF4FE757E40E94C50318167E
:101CF0004CF56FA178A589A59AA520E030E040E2D7
:101D000051E40E941F02DC01CB01BC01CD010E9405
:101D10004900DC01CB019AA389A30FC088EC90E0B5
:101D200098A38F8F8F8D98A10197F1F798A38F8F2C
:101D300089A19AA101979AA389A389A19AA1009741
:101D400069F714C06BA17CA18DA19EA10E944900DE
:101D5000DC01CB019AA389A389A19AA19E8F8D8FC3
:101D60008D8D9E8D0197F1F79E8F8D8F81E00E9462
:101D7000F71280E090E0A0EAB0E4898F9A8FAB8FF1
:101D8000BC8F698D7A8D8B8D9C8D20E030E04AEF81
:101D900054E40E941F02DC01CB018D8B9E8BAF8B24
:101DA000B88F6D897E898F89988D20E030E040E87A
:101DB0005FE30E94250488232CF481E090E09C8B53
:101DC0008B8B3FC06D897E898F89988D20E03FEF96
:101DD0004FE757E40E94C50318164CF5698D7A8DBC
:101DE0008B8D9C8D20E030E040E251E40E941F0288
:101DF000DC01CB01BC01CD010E944900DC01CB011B
:101E00009C8B8B8B0FC088EC90E09A8B898B898997
:101E10009A890197F1F79A8B898B8B899C89019715
:101E20009C8B8B8B8B899C89009769F714C06D897B
:101E30007E898F89988D0E944900DC01CB019C8BA3
:101E40008B8B8B899C89988B8F878F85988901973D
:101E5000F1F7988B8F8786E00E94F71280E090E080
:101E6000A0EAB0E48B879C87AD87BE876B857C85B5
:101E70008D859E8520E030E04AEF54E40E941F02E9
:101E8000DC01CB018F839887A987BA876F8178851A
:101E900089859A8520E030E040E85FE30E942504D0
:101EA00088232CF481E090E09E838D833FC06F8176
:101EB000788589859A8520E03FEF4FE757E40E94B7
:101EC000C50318164CF56B857C858D859E8520E0B5
:101ED00030E040E251E40E941F02DC01CB01BC0172
:101EE000CD010E944900DC01CB019E838D830FC090
:101EF00088EC90E09C838B838B819C810197F1F728
:101F00009C838B838D819E8101979E838D838D81A0
:101F10009E81009769F714C06F81788589859A85BD
:101F20000E944900DC01CB019E838D838D819E81BF
:101F30009A83898389819A810197F1F79A838983AA
:101F4000CC5ADF4F0FB6F894DEBF0FBECDBFCF9196
:101F5000DF911F910F9108950F931F93DF93CF93FC
:101F6000CDB7DEB7C455D0400FB6F894DEBF0FBE74
:101F7000CDBF81E064E041E00E946E2381E065E036
:101F800041E00E946E2381E066E041E00E946E2302
:101F900081E067E041E00E946E2383E062E041E07F
:101FA0000E946E2383E063E041E00E946E2383E0A1
:101FB00063E040E00E946E23FE01EF5AFF4F80E095
:101FC00090E0A8E4B2E480839183A283B3838E017E
:101FD000035B1F4FFE01EF5AFF4F608171818281C9
:101FE000938120E030E04AEF54E40E941F02DC01BC
:101FF000CB01F80180839183A283B383FE01E35B6D
:10200000FF4F608171818281938120E030E040E860
:102010005FE30E942504882344F4FE01E55BFF4F43
:1020200081E090E09183808364C0FE01E35BFF4F19
:10203000608171818281938120E03FEF4FE757E417
:102040000E94C50318160CF043C0FE01EF5AFF4F63
:10205000608171818281938120E030E040E251E42F
:102060000E941F02DC01CB018E01055B1F4FBC01EA
:10207000CD010E944900DC01CB01F80191838083EE
:102080001FC0FE01E75BFF4F88EC90E091838083E7
:10209000FE01E75BFF4F808191810197F1F7FE011F
:1020A000E75BFF4F91838083DE01A55BBF4FFE019D
:1020B000E55BFF4F80819181019711969C938E93F0
:1020C000FE01E55BFF4F808191810097D1F627C02B
:1020D0008E01055B1F4FFE01E35BFF4F6081718145
:1020E000828193810E944900DC01CB01F801918338
:1020F0008083DE01A95BBF4FFE01E55BFF4F80815E
:1021000091818D939C93FE01E95BFF4F80819181CA
:102110000197F1F7FE01E95BFF4F9183808382E035
:102120000E949013FE01ED5BFF4F80E090E0A0EA7B
:10213000B0E480839183A283B3838E01015C1F4F3F
:10214000FE01ED5BFF4F608171818281938120E010
:1021500030E04AEF54E40E941F02DC01CB01F80199
:1021600080839183A283B383FE01FF966081718196
:102170008281938120E030E040E85FE30E94250403
:1021800088232CF481E090E09EAF8DAF46C0FE0125
:10219000FF96608171818281938120E03FEF4FE75C
:1021A00057E40E94C503181664F5FE01ED5BFF4F6E
:1021B000608171818281938120E030E040E251E4CE
:1021C0000E941F02DC01CB01BC01CD010E9449002D
:1021D000DC01CB019EAF8DAF0FC088EC90E09CAFCF
:1021E0008BAF8BAD9CAD0197F1F79CAF8BAF8DADF5
:1021F0009EAD01979EAF8DAF8DAD9EAD009769F7F7
:1022000016C0FE01FF9660817181828193810E94D8
:102210004900DC01CB019EAF8DAF8DAD9EAD9AAF75
:1022200089AF89AD9AAD0197F1F79AAF89AF88E28E
:102230000E94901380E090E0A0EAB0E48DAB9EABEA
:10224000AFABB8AF6DA97EA98FA998AD20E030E003
:102250004AEF54E40E941F02DC01CB0189AB9AAB28
:10226000ABABBCAB69A97AA98BA99CA920E030E0F3
:1022700040E85FE30E94250488232CF481E090E08D
:1022800098AB8FA73FC069A97AA98BA99CA920E028
:102290003FEF4FE757E40E94C50318164CF56DA9B0
:1022A0007EA98FA998AD20E030E040E251E40E9481
:1022B0001F02DC01CB01BC01CD010E944900DC0101
:1022C000CB0198AB8FA70FC088EC90E09EA78DA79D
:1022D0008DA59EA50197F1F79EA78DA78FA598A91B
:1022E000019798AB8FA78FA598A9009769F714C09D
:1022F00069A97AA98BA99CA90E944900DC01CB019C
:1023000098AB8FA78FA598A99CA78BA78BA59CA5F9
:102310000197F1F79CA78BA78CE00E94901380E0B7
:1023200090E0A0EAB0E48FA398A7A9A7BAA76FA1ED
:1023300078A589A59AA520E030E04AEF54E40E94F0
:102340001F02DC01CB018BA39CA3ADA3BEA36BA199
:102350007CA18DA19EA120E030E040E85FE30E94D7
:10236000250488232CF481E090E09AA389A33FC040
:102370006BA17CA18DA19EA120E03FEF4FE757E428
:102380000E94C50318164CF56FA178A589A59AA5DA
:1023900020E030E040E251E40E941F02DC01CB016A
:1023A000BC01CD010E944900DC01CB019AA389A3A5
:1023B0000FC088EC90E098A38F8F8F8D98A1019724
:1023C000F1F798A38F8F89A19AA101979AA389A366
:1023D00089A19AA1009769F714C06BA17CA18DA176
:1023E0009EA10E944900DC01CB019AA389A389A187
:1023F0009AA19E8F8D8F8D8D9E8D0197F1F79E8F67
:102400008D8F81E00E94901380E090E0A0EAB0E41C
:10241000898F9A8FAB8FBC8F698D7A8D8B8D9C8DB8
:1024200020E030E04AEF54E40E941F02DC01CB01BF
:102430008D8B9E8BAF8BB88F6D897E898F89988DA0
:1024400020E030E040E85FE30E94250488232CF47C
:1024500081E090E09C8B8B8B3FC06D897E898F895A
:10246000988D20E03FEF4FE757E40E94C503181610
:102470004CF5698D7A8D8B8D9C8D20E030E040E2AB
:1024800051E40E941F02DC01CB01BC01CD010E947E
:102490004900DC01CB019C8B8B8B0FC088EC90E05A
:1024A0009A8B898B89899A890197F1F79A8B898B05
:1024B0008B899C8901979C8B8B8B8B899C8900973E
:1024C00069F714C06D897E898F89988D0E944900B3
:1024D000DC01CB019C8B8B8B8B899C89988B8F87A4
:1024E0008F8598890197F1F7988B8F8786E00E94F6
:1024F000901380E090E0A0EAB0E48B879C87AD87E2
:10250000BE876B857C858D859E8520E030E04AEF17
:1025100054E40E941F02DC01CB018F839887A987B6
:10252000BA876F81788589859A8520E030E040E818
:102530005FE30E94250488232CF481E090E09E83D1
:102540008D833FC06F81788589859A8520E03FEF34
:102550004FE757E40E94C50318164CF56B857C8540
:102560008D859E8520E030E040E251E40E941F020C
:10257000DC01CB01BC01CD010E944900DC01CB0193
:102580009E838D830FC088EC90E09C838B838B812E
:102590009C810197F1F79C838B838D819E810197AC
:1025A0009E838D838D819E81009769F714C06F8112
:1025B000788589859A850E944900DC01CB019E833C
:1025C0008D838D819E819A83898389819A810197E8
:1025D000F1F79A838983CC5ADF4F0FB6F894DEBFA8
:1025E0000FBECDBFCF91DF911F910F910895DF9363
:1025F000CF93CDB7DEB72F970FB6F894DEBF0FBEDF
:10260000CDBF8F8783E062E040E00E946E2381E0CF
:102610006F850E94582583E063E041E00E946E23AD
:1026200080E090E0A0EAB0E48B879C87AD87BE870E
:102630006B857C858D859E8520E030E04AEF54E4F3
:102640000E941F02DC01CB018F839887A987BA877C
:102650006F81788589859A8520E030E040E85FE3E6
:102660000E94250488232CF481E090E09E838D83D2
:102670003FC06F81788589859A8520E03FEF4FE7DD
:1026800057E40E94C50318164CF56B857C858D8533
:102690009E8520E030E040E251E40E941F02DC0110
:1026A000CB01BC01CD010E944900DC01CB019E831E
:1026B0008D830FC088EC90E09C838B838B819C8101
:1026C0000197F1F79C838B838D819E8101979E8377
:1026D0008D838D819E81009769F714C06F81788505
:1026E00089859A850E944900DC01CB019E838D83F8
:1026F0008D819E819A83898389819A810197F1F7DF
:102700009A83898383E063E040E00E946E232F96E2
:102710000FB6F894DEBF0FBECDBFCF91DF91089505
:102720000F931F93DF93CF93CDB7DEB7C156D04041
:102730000FB6F894DEBF0FBECDBFFE01EF59FF4FBD
:102740008083FE01EF59FF4F8081807F8160982F49
:1027500081E0692F0E94582583E062E040E00E94FA
:102760006E2383E063E041E00E946E23FE01E35AA2
:10277000FF4F80E090E0A0EAB0E480839183A283E1
:10278000B3838E01075A1F4FFE01E35AFF4F60814A
:102790007181828193812BEA3AEA4AE250E40E94F5
:1027A0001F02DC01CB01F80180839183A283B383F4
:1027B000FE01E75AFF4F608171818281938120E0A1
:1027C00030E040E85FE30E942504882334F4FE01F2
:1027D000E85AFF4F81E08083E0C0FE01E75AFF4FD7
:1027E000608171818281938120E030E04FE753E482
:1027F0000E94C50318160CF0C0C0FE01E35AFF4F3B
:10280000608171818281938120E030E04AE754E465
:102810000E941903DC01CB01FE01EC5AFF4F8083BB
:102820009183A283B3838E01005B1F4FFE01EC5A9C
:10283000FF4F608171818281938120E030E04AEF17
:1028400054E40E941F02DC01CB01F80180839183D4
:10285000A283B383FE01E05BFF4F608171818281BF
:10286000938120E030E040E85FE30E942504882364
:1028700044F4FE01E25BFF4F81E090E091838083AE
:1028800064C0FE01E05BFF4F6081718182819381B2
:1028900020E03FEF4FE757E40E94C50318160CF005
:1028A00043C0FE01EC5AFF4F6081718182819381A8
:1028B00020E030E040E251E40E941F02DC01CB0145
:1028C0008E01025B1F4FBC01CD010E944900DC015B
:1028D000CB01F801918380831FC0FE01E45BFF4FB1
:1028E00088EC90E091838083FE01E45BFF4F808160
:1028F00091810197F1F7FE01E45BFF4F91838083A3
:10290000DE01A25BBF4FFE01E25BFF4F8081918140
:10291000019711969C938E93FE01E25BFF4F80819D
:1029200091810097D1F64BC08E01025B1F4FFE01D3
:10293000E05BFF4F60817181828193810E94490039
:10294000DC01CB01F80191838083DE01A65BBF4FE0
:10295000FE01E25BFF4F8081918111969C938E93E3
:10296000FE01E65BFF4F808191810197F1F7FE0147
:10297000E65BFF4F9183808322C08E01085A1F4F70
:10298000FE01E75AFF4F60817181828193810E942D
:102990004900DC01CB01F8018083DE01A75BBF4F5A
:1029A000FE01E85AFF4F80818C93FE01E75BFF4FE9
:1029B00080818A95F1F7FE01E75BFF4F808383E01A
:1029C00063E040E00E946E23FE01EB5BFF4F80E07E
:1029D00090E0A8E4B3E480839183A283B3838E0163
:1029E0000F5B1F4FFE01EB5BFF4F608171818281A6
:1029F00093812BEA3AEA4AE250E40E941F02DC018A
:102A0000CB01F80180839183A283B383FE01EF5B46
:102A1000FF4F608171818281938120E030E040E846
:102A20005FE30E942504882334F481E0FE01E05C2A
:102A3000FF4F80839DC0FE01EF5BFF4F608171817E
:102A40008281938120E030E04FE753E40E94C50388
:102A500018160CF07EC0FE01EB5BFF4F60817181A8
:102A60008281938120E030E04AE754E40E94190318
:102A7000DC01CB018CAF9DAFAEAFBFAF6CAD7DAD18
:102A80008EAD9FAD20E030E04AEF54E40E941F027B
:102A9000DC01CB0188AF99AFAAAFBBAF68AD79AD10
:102AA0008AAD9BAD20E030E040E85FE30E94250462
:102AB00088232CF481E090E09FAB8EAB3FC068ADE3
:102AC00079AD8AAD9BAD20E03FEF4FE757E40E9420
:102AD000C50318164CF56CAD7DAD8EAD9FAD20E0F5
:102AE00030E040E251E40E941F02DC01CB01BC0156
:102AF000CD010E944900DC01CB019FAB8EAB0FC022
:102B000088EC90E09DAB8CAB8CA99DA90197F1F767
:102B10009DAB8CAB8EA99FA901979FAB8EAB8EA965
:102B20009FA9009769F72DC068AD79AD8AAD9BADBF
:102B30000E944900DC01CB019FAB8EAB8EA99FA9FF
:102B40009BAB8AAB8AA99BA90197F1F79BAB8AAB98
:102B500018C0FE01EF5BFF4F60817181828193811C
:102B60000E944900DC01CB01FE01E05CFF4F808345
:102B7000FE01E05CFF4F808189AB89A98A95F1F75E
:102B800089ABFE01EF59FF4F8081882F90E082953D
:102B90009295907F9827807F98278160982F81E079
:102BA000692F0E94582583E063E041E00E946E2374
:102BB00080E090E0A0EAB0E48DA79EA7AFA7B8ABF5
:102BC0006DA57EA58FA598A92BEA3AEA4AE250E4C2
:102BD0000E941F02DC01CB0189A79AA7ABA7BCA763
:102BE00069A57AA58BA59CA520E030E040E85FE3CD
:102BF0000E94250488231CF481E088A791C069A560
:102C00007AA58BA59CA520E030E04FE753E40E9415
:102C1000C50318160CF07BC06DA57EA58FA598A9DD
:102C200020E030E04AE754E40E941903DC01CB01C4
:102C30008CA39DA3AEA3BFA36CA17DA18EA19FA1D8
:102C400020E030E04AEF54E40E941F02DC01CB0197
:102C500088A399A3AAA3BBA368A179A18AA19BA1D8
:102C600020E030E040E85FE30E94250488232CF454
:102C700081E090E09F8F8E8F3FC068A179A18AA1EB
:102C80009BA120E03FEF4FE757E40E94C5031816D1
:102C90004CF56CA17DA18EA19FA120E030E040E227
:102CA00051E40E941F02DC01CB01BC01CD010E9456
:102CB0004900DC01CB019F8F8E8F0FC088EC90E024
:102CC0009D8F8C8F8C8D9D8D0197F1F79D8F8C8FB3
:102CD0008E8D9F8D01979F8F8E8F8E8D9F8D0097EC
:102CE00069F724C068A179A18AA19BA10E9449002B
:102CF000DC01CB019F8F8E8F8E8D9F8D9B8F8A8F56
:102D00008A8D9B8D0197F1F79B8F8A8F0FC069A5E4
:102D10007AA58BA59CA50E944900DC01CB0188A760
:102D200088A5898F898D8A95F1F7898F83E063E083
:102D300040E00E946E2380E090E0A0EAB0E48D8B3A
:102D40009E8BAF8BB88F6D897E898F89988D2BEA8A
:102D50003AEA4AE250E40E941F02DC01CB01898B6F
:102D60009A8BAB8BBC8B69897A898B899C8920E093
:102D700030E040E85FE30E94250488231CF481E0F2
:102D8000888B91C069897A898B899C8920E030E0A1
:102D90004FE753E40E94C50318160CF07BC06D8901
:102DA0007E898F89988D20E030E04AE754E40E94C4
:102DB0001903DC01CB018C879D87AE87BF876C85AB
:102DC0007D858E859F8520E030E04AEF54E40E94A7
:102DD0001F02DC01CB0188879987AA87BB8768859A
:102DE00079858A859B8520E030E040E85FE30E949A
:102DF000250488232CF481E090E09F838E833FC0DC
:102E0000688579858A859B8520E03FEF4FE757E409
:102E10000E94C50318164CF56C857D858E859F85AF
:102E200020E030E040E251E40E941F02DC01CB01CF
:102E3000BC01CD010E944900DC01CB019F838E8340
:102E40000FC088EC90E09D838C838C819D810197DD
:102E5000F1F79D838C838E819F8101979F838E8361
:102E60008E819F81009769F724C0688579858A855E
:102E70009B850E944900DC01CB019F838E838E815C
:102E80009F819B838A838A819B810197F1F79B8332
:102E90008A830FC069897A898B899C890E9449003D
:102EA000DC01CB01888B8889898389818A95F1F738
:102EB0008983CF59DF4F0FB6F894DEBF0FBECDBF69
:102EC000CF91DF911F910F910895DF93CF93CDB7ED
:102ED000DEB72F970FB6F894DEBF0FBECDBF8F873A
:102EE00083E062E041E00E946E2381E06F850E94F2
:102EF000582583E063E041E00E946E2380E090E08B
:102F0000A0EAB0E48B879C87AD87BE876B857C8504
:102F10008D859E8520E030E04AEF54E40E941F0238
:102F2000DC01CB018F839887A987BA876F81788569
:102F300089859A8520E030E040E85FE30E9425041F
:102F400088232CF481E090E09E838D833FC06F81C5
:102F5000788589859A8520E03FEF4FE757E40E9406
:102F6000C50318164CF56B857C858D859E8520E004
:102F700030E040E251E40E941F02DC01CB01BC01C1
:102F8000CD010E944900DC01CB019E838D830FC0DF
:102F900088EC90E09C838B838B819C810197F1F777
:102FA0009C838B838D819E8101979E838D838D81F0
:102FB0009E81009769F714C06F81788589859A850D
:102FC0000E944900DC01CB019E838D838D819E810F
:102FD0009A83898389819A810197F1F79A838983FA
:102FE00083E063E040E00E946E232F960FB6F894D2
:102FF000DEBF0FBECDBFCF91DF9108950F931F931A
:10300000DF93CF93CDB7DEB7C156D0400FB6F8945B
:10301000DEBF0FBECDBFFE01EF59FF4F808383E0BF
:1030200062E041E00E946E23FE01EF59FF4F808174
:10303000807F8160982F81E0692F0E94582583E06E
:1030400063E041E00E946E23FE01E35AFF4F80E0FF
:1030500090E0A0EAB0E480839183A283B3838E01E1
:10306000075A1F4FFE01E35AFF4F60817181828131
:1030700093812BEA3AEA4AE250E40E941F02DC0103
:10308000CB01F80180839183A283B383FE01E75AC9
:10309000FF4F608171818281938120E030E040E8C0
:1030A0005FE30E942504882334F4FE01E85AFF4FB1
:1030B00081E08083E0C0FE01E75AFF4F60817181AB
:1030C0008281938120E030E04FE753E40E94C50302
:1030D00018160CF0C0C0FE01E35AFF4F60817181E9
:1030E0008281938120E030E04AE754E40E94190392
:1030F000DC01CB01FE01EC5AFF4F80839183A28358
:10310000B3838E01005B1F4FFE01EC5AFF4F6081BD
:1031100071818281938120E030E04AEF54E40E9483
:103120001F02DC01CB01F80180839183A283B3836A
:10313000FE01E05BFF4F608171818281938120E01D
:1031400030E040E85FE30E942504882344F4FE0158
:10315000E25BFF4F81E090E09183808364C0FE01D9
:10316000E05BFF4F608171818281938120E03FEFBE
:103170004FE757E40E94C50318160CF043C0FE0148
:10318000EC5AFF4F608171818281938120E030E0B1
:1031900040E251E40E941F02DC01CB018E01025B80
:1031A0001F4FBC01CD010E944900DC01CB01F80199
:1031B000918380831FC0FE01E45BFF4F88EC90E0A9
:1031C00091838083FE01E45BFF4F808191810197B1
:1031D000F1F7FE01E45BFF4F91838083DE01A25B88
:1031E000BF4FFE01E25BFF4F8081918101971196F5
:1031F0009C938E93FE01E25BFF4F8081918100974B
:10320000D1F64BC08E01025B1F4FFE01E05BFF4F0A
:1032100060817181828193810E944900DC01CB0130
:10322000F80191838083DE01A65BBF4FFE01E25B64
:10323000FF4F8081918111969C938E93FE01E65BF6
:10324000FF4F808191810197F1F7FE01E65BFF4F0F
:103250009183808322C08E01085A1F4FFE01E75AD6
:10326000FF4F60817181828193810E944900DC015E
:10327000CB01F8018083DE01A75BBF4FFE01E85A56
:10328000FF4F80818C93FE01E75BFF4F80818A9521
:10329000F1F7FE01E75BFF4F808383E063E040E0EE
:1032A0000E946E23FE01EB5BFF4F80E090E0A8E4FC
:1032B000B3E480839183A283B3838E010F5B1F4F9E
:1032C000FE01EB5BFF4F60817181828193812BEA6C
:1032D0003AEA4AE250E40E941F02DC01CB01F80105
:1032E00080839183A283B383FE01EF5BFF4F6081F4
:1032F00071818281938120E030E040E85FE30E94A9
:103300002504882334F481E0FE01E05CFF4F8083D4
:103310009DC0FE01EF5BFF4F6081718182819381CF
:1033200020E030E04FE753E40E94C50318160CF08C
:103330007EC0FE01EB5BFF4F6081718182819381D2
:1033400020E030E04AE754E40E941903DC01CB019D
:103350008CAF9DAFAEAFBFAF6CAD7DAD8EAD9FAD51
:1033600020E030E04AEF54E40E941F02DC01CB0170
:1033700088AF99AFAAAFBBAF68AD79AD8AAD9BAD51
:1033800020E030E040E85FE30E94250488232CF42D
:1033900081E090E09FAB8EAB3FC068AD79AD8AAD68
:1033A0009BAD20E03FEF4FE757E40E94C50318169E
:1033B0004CF56CAD7DAD8EAD9FAD20E030E040E2D0
:1033C00051E40E941F02DC01CB01BC01CD010E942F
:1033D0004900DC01CB019FAB8EAB0FC088EC90E0C5
:1033E0009DAB8CAB8CA99DA90197F1F79DAB8CABE4
:1033F0008EA99FA901979FAB8EAB8EA99FA900971D
:1034000069F72DC068AD79AD8AAD9BAD0E944900CA
:10341000DC01CB019FAB8EAB8EA99FA99BAB8AAB86
:103420008AA99BA90197F1F79BAB8AAB18C0FE0153
:10343000EF5BFF4F60817181828193810E9449001F
:10344000DC01CB01FE01E05CFF4F8083FE01E05C0C
:10345000FF4F808189AB89A98A95F1F789ABFE017D
:10346000EF59FF4F8081882F90E082959295907F51
:103470009827807F98278160982F81E0692F0E948C
:10348000582583E063E041E00E946E2380E090E0F5
:10349000A0EAB0E48DA79EA7AFA7B8AB6DA57EA5A7
:1034A0008FA598A92BEA3AEA4AE250E40E941F024B
:1034B000DC01CB0189A79AA7ABA7BCA769A57AA510
:1034C0008BA59CA520E030E040E85FE30E94250446
:1034D00088231CF481E088A791C069A57AA58BA5F3
:1034E0009CA520E030E04FE753E40E94C503181686
:1034F0000CF07BC06DA57EA58FA598A920E030E0DB
:103500004AE754E40E941903DC01CB018CA39DA37C
:10351000AEA3BFA36CA17DA18EA19FA120E030E04E
:103520004AEF54E40E941F02DC01CB0188A399A357
:10353000AAA3BBA368A179A18AA19BA120E030E046
:1035400040E85FE30E94250488232CF481E090E0AA
:103550009F8F8E8F3FC068A179A18AA19BA120E097
:103560003FEF4FE757E40E94C50318164CF56CA1D6
:103570007DA18EA19FA120E030E040E251E40E94B5
:103580001F02DC01CB01BC01CD010E944900DC011E
:10359000CB019F8F8E8F0FC088EC90E09D8F8C8F1A
:1035A0008C8D9D8D0197F1F79D8F8C8F8E8D9F8DCA
:1035B00001979F8F8E8F8E8D9F8D009769F724C006
:1035C00068A179A18AA19BA10E944900DC01CB01DD
:1035D0009F8F8E8F8E8D9F8D9B8F8A8F8A8D9B8DD7
:1035E0000197F1F79B8F8A8F0FC069A57AA58BA5EC
:1035F0009CA50E944900DC01CB0188A788A5898F82
:10360000898D8A95F1F7898F83E063E040E00E941D
:103610006E2380E090E0A8E4B3E48D8B9E8BAF8BAB
:10362000B88F6D897E898F89988D2BEA3AEA4AE2B4
:1036300050E40E941F02DC01CB01898B9A8BAB8B7B
:10364000BC8B69897A898B899C8920E030E040E8CD
:103650005FE30E94250488231CF481E0888B91C0DD
:1036600069897A898B899C8920E030E04FE753E4AF
:103670000E94C50318160CF07BC06D897E898F8966
:10368000988D20E030E04AE754E40E941903DC0101
:10369000CB018C879D87AE87BF876C857D858E85A6
:1036A0009F8520E030E04AEF54E40E941F02DC01D5
:1036B000CB0188879987AA87BB87688579858A85A2
:1036C0009B8520E030E040E85FE30E9425048823EA
:1036D0002CF481E090E09F838E833FC068857985DC
:1036E0008A859B8520E03FEF4FE757E40E94C503A2
:1036F00018164CF56C857D858E859F8520E030E021
:1037000040E251E40E941F02DC01CB01BC01CD016B
:103710000E944900DC01CB019F838E830FC088EC9F
:1037200090E09D838C838C819D810197F1F79D832F
:103730008C838E819F8101979F838E838E819F8151
:10374000009769F724C0688579858A859B850E94E2
:103750004900DC01CB019F838E838E819F819B83F7
:103760008A838A819B810197F1F79B838A830FC0AB
:1037700069897A898B899C890E944900DC01CB0187
:10378000888B8889898389818A95F1F78983CF59C4
:10379000DF4F0FB6F894DEBF0FBECDBFCF91DF91E4
:1037A0001F910F910895DF93CF9300D000D0CDB734
:1037B000DEB79B838A836C8319820EC08981282F90
:1037C00030E08A819B81FC01E20FF31F80810E941F
:1037D000651789818F5F898399818C81981770F330
:1037E0000F900F900F900F90CF91DF910895DF937E
:1037F000CF9300D000D0CDB7DEB79B838A836C8394
:1038000019820EC08981282F30E08A819B81FC01BA
:10381000E20FF31F80810E94FE1789818F5F8983E9
:1038200099818C81981770F30F900F900F900F90E3
:10383000CF91DF910895DF93CF9300D000D0CDB723
:10384000DEB789836A8389818031C8F48A81282F11
:1038500030E03C832B838B819C818130910531F05A
:103860002B813C812230310531F009C0898180589B
:103870000E94F71204C0898180540E94F7120F90B1
:103880000F900F900F90CF91DF910895DF93CF931A
:1038900000D000D0CDB7DEB789836A8389818031BB
:1038A000C8F48A81282F30E03C832B838B819C8154
:1038B0008130910531F02B813C812230310531F08E
:1038C00009C0898180580E94901304C08981805466
:1038D0000E9490130F900F900F900F90CF91DF9157
:1038E0000895DF93CF9300D0CDB7DEB789836A8385
:1038F0000F900F90CF91DF910895DF93CF93CDB7C5
:10390000DEB7A0970FB6F894DEBF0FBECDBF9E8F77
:103910008D8F78A36F8FEF8DF8A1808162E00E9478
:10392000461CEF8DF8A18081282F30E08D8D9E8D73
:10393000FC01E20FF31F8081803368F0EF8DF8A166
:103940008081282F30E08D8D9E8DFC01E20FF31FCA
:1039500080818A33A8F1EF8DF8A18081282F30E093
:103960008D8D9E8DFC01E20FF31F8081813468F004
:10397000EF8DF8A18081282F30E08D8D9E8DFC0188
:10398000E20FF31F80818534D8F0EF8DF8A180819C
:10399000282F30E08D8D9E8DFC01E20FF31F80817A
:1039A0008A3271F0EF8DF8A18081282F30E08D8D63
:1039B0009E8DFC01E20FF31F8081833209F001C16B
:1039C000EF8DF8A18081282F30E08D8D9E8DFC0138
:1039D000E20FF31F80810E94FE17EF8DF8A1808116
:1039E00062E00E94461C80E090E0A8E4B3E4898F86
:1039F0009A8FAB8FBC8F698D7A8D8B8D9C8D20E0DB
:103A000030E04AEF54E40E941F02DC01CB018D8BB1
:103A10009E8BAF8BB88F6D897E898F89988D20E0C2
:103A200030E040E85FE30E94250488232CF481E025
:103A300090E09C8B8B8B3FC06D897E898F89988DA0
:103A400020E03FEF4FE757E40E94C50318164CF5FE
:103A5000698D7A8D8B8D9C8D20E030E040E251E4C1
:103A60000E941F02DC01CB01BC01CD010E94490074
:103A7000DC01CB019C8B8B8B0FC088EC90E09A8B88
:103A8000898B89899A890197F1F79A8B898B8B8920
:103A90009C8901979C8B8B8B8B899C89009769F7FC
:103AA00014C06D897E898F89988D0E944900DC0140
:103AB000CB019C8B8B8B8B899C89988B8F878F8577
:103AC00098890197F1F7988B8F878AE20E94FE17F9
:103AD00080E090E0A8ECB2E48B879C87AD87BE873E
:103AE0006B857C858D859E8520E030E04AEF54E42F
:103AF0000E941F02DC01CB018F839887A987BA87B8
:103B00006F81788589859A8520E030E040E85FE321
:103B10000E94250488232CF481E090E09E838D830D
:103B20003FC06F81788589859A8520E03FEF4FE718
:103B300057E40E94C50318164CF56B857C858D856E
:103B40009E8520E030E040E251E40E941F02DC014B
:103B5000CB01BC01CD010E944900DC01CB019E8359
:103B60008D830FC088EC90E09C838B838B819C813C
:103B70000197F1F79C838B838D819E8101979E83B2
:103B80008D838D819E81009769F714C06F81788540
:103B900089859A850E944900DC01CB019E838D8333
:103BA0008D819E819A83898389819A810197F1F71A
:103BB0009A838983EF8DF8A180818F5FEF8DF8A1C3
:103BC0008083A0960FB6F894DEBF0FBECDBFCF9115
:103BD000DF910895DF93CF930F92CDB7DEB71982AF
:103BE00008C084E0698141E00E949A2589818F5F45
:103BF000898389818430A8F384E0898308C083E0C5
:103C0000698141E00E946E2389818F5F8983898168
:103C10008830A8F30F90CF91DF910895DF93CF9371
:103C2000CDB7DEB764970FB6F894DEBF0FBECDBF39
:103C30008FEF8C8B1B8A1A8A198A1F861B8AB6C043
:103C400084E0898B08C083E0698941E00E946E238B
:103C500089898F5F898B89898830A8F38B89982F10
:103C60009C5F83E0692F40E00E946E231A8A94C013
:103C700084E06A890E946124888B80E090E0A0EA59
:103C8000B1E48B879C87AD87BE876B857C858D85EE
:103C90009E8520E030E04AEF54E40E941F02DC01E0
:103CA000CB018F839887A987BA876F8178858985AB
:103CB0009A8520E030E040E85FE30E9425048823F5
:103CC0002CF481E090E09E838D833FC06F817885E6
:103CD00089859A8520E03FEF4FE757E40E94C503AE
:103CE00018164CF56B857C858D859E8520E030E02F
:103CF00040E251E40E941F02DC01CB01BC01CD0176
:103D00000E944900DC01CB019E838D830FC088ECAB
:103D100090E09C838B838B819C810197F1F79C833E
:103D20008B838D819E8101979E838D838D819E8162
:103D3000009769F714C06F81788589859A850E94FC
:103D40004900DC01CB019E838D838D819E819A8306
:103D5000898389819A810197F1F79A838983888978
:103D60008823B9F48A89482F50E08B89282F30E0C6
:103D7000CA01880F991F880F991F820F931FFC019A
:103D8000E153FF4F80818C8B81E08F878F8581305D
:103D900039F08A898F5F8A8B8A89843008F468CFEA
:103DA0008F85813039F08B898F5F8B8B8B89843045
:103DB00008F446CF8C8964960FB6F894DEBF0FBE28
:103DC000CDBFCF91DF910895DF93CF93CDB7DEB70D
:103DD000A5E5B0E0E5E5F0E080818E7F8C93A5E578
:103DE000B0E0E5E5F0E0808182608C93A5E5B0E08D
:103DF000E5E5F0E080818B7F8C93A5E5B0E0E5E51B
:103E0000F0E0808188608C93A4E5B0E0E4E5F0E028
:103E100080818F7B8C93CF91DF910895DF93CF9337
:103E200000D00F92CDB7DEB789838981282F30E08B
:103E30003B832A838A819B818130910589F02A8185
:103E40003B8122303105A1F08A819B810097B9F432
:103E5000ABE5B0E0EBE5F0E0808180648C930FC0CF
:103E6000ABE5B0E0EBE5F0E0808180688C9307C0C3
:103E7000ABE5B0E0EBE5F0E0808180628C930F90E1
:103E80000F900F90CF91DF910895DF93CF9300D0E3
:103E90000F92CDB7DEB789838981282F30E03B832D
:103EA0002A838A819B818130910589F02A813B8117
:103EB00022303105A1F08A819B810097B9F4ABE5EE
:103EC000B0E0EBE5F0E080818F7B8C930FC0ABE539
:103ED000B0E0EBE5F0E080818F778C9307C0ABE535
:103EE000B0E0EBE5F0E080818F7D8C930F900F9038
:103EF0000F90CF91DF910895DF93CF9300D0CDB78E
:103F0000DEB79A83898389819A819093E5008093B3
:103F1000E4000F900F90CF91DF910895DF93CF933E
:103F200000D0CDB7DEB79A83898389819A81909337
:103F3000E7008093E6000F900F90CF91DF910895F6
:103F4000DF93CF9300D0CDB7DEB79A838983898181
:103F50009A819093E9008093E8000F900F90CF91A1
:103F6000DF9108951F920F920FB60F9211242F9395
:103F70003F934F935F936F937F938F939F93AF93F1
:103F8000BF93EF93FF93DF93CF93CDB7DEB7E0916D
:103F9000E400F091E5000995CF91DF91FF91EF9159
:103FA000BF91AF919F918F917F916F915F914F9151
:103FB0003F912F910F900FBE0F901F9018951F9259
:103FC0000F920FB60F9211242F933F934F935F934D
:103FD0006F937F938F939F93AF93BF93EF93FF93D1
:103FE000DF93CF93CDB7DEB7E091E600F091E70025
:103FF0000995CF91DF91FF91EF91BF91AF919F9183
:104000008F917F916F915F914F913F912F910F9081
:104010000FBE0F901F9018951F920F920FB60F9220
:1040200011242F933F934F935F936F937F938F93BD
:104030009F93AF93BF93EF93FF93DF93CF93CDB74E
:10404000DEB7E091E800F091E9000995CF91DF91AA
:10405000FF91EF91BF91AF919F918F917F916F9160
:104060005F914F913F912F910F900FBE0F901F9036
:104070001895DF93CF93CDB7DEB7AFE5B0E0EFE5AE
:10408000F0E0808180688C93CF91DF910895DF9379
:10409000CF93CDB7DEB7AFE5B0E0EFE5F0E08081DC
:1040A0008F778C93CF91DF910895DF93CF9300D0DA
:1040B0000F92CDB7DEB789837B836A830E94F72195
:1040C00080EA0E94592289810E94CF220E942822E0
:1040D00080EA0E9497228A819B810E94FF220E948F
:1040E0003B230F900F900F90CF91DF910895DF93B6
:1040F000CF93CDB7DEB760970FB6F894DEBF0FBE93
:10410000CDBF8F87688B0E94F72180EA0E945922D9
:104110008F850E94CF2288890E94CF220E943B2354
:1041200080E090E0A8E4B3E48B879C87AD87BE87EE
:104130006B857C858D859E8520E030E04AEF54E4D8
:104140000E941F02DC01CB018F839887A987BA8761
:104150006F81788589859A8520E030E040E85FE3CB
:104160000E94250488232CF481E090E09E838D83B7
:104170003FC06F81788589859A8520E03FEF4FE7C2
:1041800057E40E94C50318164CF56B857C858D8518
:104190009E8520E030E040E251E40E941F02DC01F5
:1041A000CB01BC01CD010E944900DC01CB019E8303
:1041B0008D830FC088EC90E09C838B838B819C81E6
:1041C0000197F1F79C838B838D819E8101979E835C
:1041D0008D838D819E81009769F714C06F817885EA
:1041E00089859A850E944900DC01CB019E838D83DD
:1041F0008D819E819A83898389819A810197F1F7C4
:104200009A83898360960FB6F894DEBF0FBECDBF48
:10421000CF91DF910895DF93CF93CDB7DEB763974A
:104220000FB6F894DEBF0FBECDBF888B7A8B698B3B
:104230004B8B0E94F72180EA0E94592288890E94B4
:10424000CF221F8680C08F85282F30E089899A89E8
:10425000FC01E20FF31F80810E94CF2280E090E0FA
:10426000A0EAB0E48B879C87AD87BE876B857C8591
:104270008D859E8520E030E04AEF54E40E941F02C5
:10428000DC01CB018F839887A987BA876F817885F6
:1042900089859A8520E030E040E85FE30E942504AC
:1042A00088232CF481E090E09E838D833FC06F8152
:1042B000788589859A8520E03FEF4FE757E40E9493
:1042C000C50318164CF56B857C858D859E8520E091
:1042D00030E040E251E40E941F02DC01CB01BC014E
:1042E000CD010E944900DC01CB019E838D830FC06C
:1042F00088EC90E09C838B838B819C810197F1F704
:104300009C838B838D819E8101979E838D838D817C
:104310009E81009769F714C06F81788589859A8599
:104320000E944900DC01CB019E838D838D819E819B
:104330009A83898389819A810197F1F79A83898386
:104340008F858F5F8F879F858B89981708F47BCF28
:104350000E943B2363960FB6F894DEBF0FBECDBF1D
:10436000CF91DF910895DF93CF93CDB7DEB7E0E231
:10437000F0E082E08083A1E2B0E0E1E2F0E0808161
:104380008E7F8C93A1E2B0E0E1E2F0E080818D7F4E
:104390008C93A6E5B0E0E6E5F0E0808180648C9344
:1043A000E2E2F0E084E68083A6E5B0E0E6E5F0E056
:1043B000808184608C93CF91DF910895DF93CF93B8
:1043C000CDB7DEB7A6E5B0E0E6E5F0E08081806439
:1043D0008C93E2E2F0E088E28083A6E5B0E0E6E5D7
:1043E000F0E0808184608C93CF91DF910895DF931A
:1043F000CF930F92CDB7DEB71982A6E5B0E0E6E520
:10440000F0E0808180628C93A6E5B0E0E6E5F0E024
:10441000808180688C93A6E5B0E0E6E5F0E08081DD
:1044200084608C93E6E5F0E080818823DCF7E1E2AC
:10443000F0E08081882F90E0887F9070883091052F
:1044400011F081E0898389810F90CF91DF910895E8
:10445000DF93CF930F92CDB7DEB71982A6E5B0E018
:10446000E6E5F0E0808180628C93A6E5B0E0E6E5C9
:10447000F0E0808180688C93A6E5B0E0E6E5F0E0AE
:10448000808184608C93E6E5F0E080818823DCF70E
:10449000E1E2F0E08081882F90E0887F90708031A9
:1044A000910511F082E0898389810F90CF91DF918E
:1044B0000895DF93CF9300D0CDB7DEB78A831982FA
:1044C000E3E2F0E08A818083A6E5B0E0E6E5F0E093
:1044D00080818F7D8C93A3E2B0E0E3E2F0E0808105
:1044E0008E7F8C93A6E5B0E0E6E5F0E08081806801
:1044F0008C93A6E5B0E0E6E5F0E0808184608C93E3
:10450000E6E5F0E080818823DCF7E1E2F0E08081FD
:10451000882F90E0887F90708032910511F483E0BD
:10452000898389810F900F90CF91DF910895DF9358
:10453000CF9300D0CDB7DEB78A831982E3E2F0E0F3
:104540008A8181608083A6E5B0E0E6E5F0E08081C5
:104550008F7D8C93A6E5B0E0E6E5F0E08081806891
:104560008C93A6E5B0E0E6E5F0E0808184608C9372
:10457000E6E5F0E080818823DCF7E1E2F0E080818D
:10458000882F90E0887F90708833910511F484E043
:10459000898389810F900F90CF91DF910895DF93E8
:1045A000CF9300D0CDB7DEB78A831982E3E2F0E083
:1045B0008A818083A6E5B0E0E6E5F0E0808180684E
:1045C0008C93A6E5B0E0E6E5F0E0808184608C9312
:1045D000E6E5F0E080818823DCF7E1E2F0E080812D
:1045E000882F90E0887F90708033910511F485E0EA
:1045F000898389810F900F90CF91DF910895DF9388
:10460000CF9300D00F92CDB7DEB79B838A831982F8
:10461000A6E5B0E0E6E5F0E0808180688C93A6E551
:10462000B0E0E6E5F0E0808184608C93A6E5B0E040
:10463000E6E5F0E080818F7B8C93E6E5F0E0808119
:104640008823DCF7E1E2F0E08081882F90E0887F2A
:1046500090708835910511F486E08983E3E2F0E0FB
:104660008081EA81FB81808389810F900F900F9078
:10467000CF91DF910895DF93CF93CDB7DEB7A6E555
:10468000B0E0E6E5F0E0808180618C93A6E5B0E0E3
:10469000E6E5F0E0808180688C93A6E5B0E0E6E591
:1046A000F0E0808184608C93CF91DF910895DF9357
:1046B000CF93CDB7DEB7EAE3F0E08CEF8083E7E39A
:1046C000F0E08BEB8083E4E3F0E08FEF8083E1E3C5
:1046D000F0E080EF8083CF91DF910895DF93CF9357
:1046E00000D000D00F92CDB7DEB789836A834B83A9
:1046F0008981282F30E03D832C838C819D818230FD
:10470000910509F448C02C813D812330310534F4F2
:104710008C819D818130910571F0CBC02C813D81D0
:104720002330310509F467C08C819D818430910567
:1047300009F491C0BEC08B818130A1F4ABE3B0E03D
:10474000EBE3F0E08081482F8A81282F30E081E080
:1047500090E0022E02C0880F991F0A94E2F7842B82
:104760008C93A7C08B81882309F0A3C0ABE3B0E092
:10477000EBE3F0E08081482F8A81282F30E081E050
:1047800090E0022E02C0880F991F0A94E2F78095EC
:1047900084238C938EC08B818130A1F4A8E3B0E098
:1047A000E8E3F0E08081482F8A81282F30E081E023
:1047B00090E0022E02C0880F991F0A94E2F7842B22
:1047C0008C9377C08B81882309F073C0A8E3B0E095
:1047D000E8E3F0E08081482F8A81282F30E081E0F3
:1047E00090E0022E02C0880F991F0A94E2F780958C
:1047F00084238C935EC08B818130A1F4A5E3B0E06B
:10480000E5E3F0E08081482F8A81282F30E081E0C5
:1048100090E0022E02C0880F991F0A94E2F7842BC1
:104820008C9347C08B81882309F043C0A5E3B0E097
:10483000E5E3F0E08081482F8A81282F30E081E095
:1048400090E0022E02C0880F991F0A94E2F780952B
:1048500084238C932EC08B818130A1F4A2E3B0E03D
:10486000E2E3F0E08081482F8A81282F30E081E068
:1048700090E0022E02C0880F991F0A94E2F7842B61
:104880008C9317C08B818823A1F4A2E3B0E0E2E30C
:10489000F0E08081482F8A81282F30E081E090E08D
:1048A000022E02C0880F991F0A94E2F78095842394
:1048B0008C930F900F900F900F900F90CF91DF91EE
:1048C0000895DF93CF9300D000D00F92CDB7DEB71D
:1048D0008A836B838A81282F30E03D832C834C812F
:1048E0005D814230510541F18C819D81833091057C
:1048F00034F42C813D812130310561F052C04C816E
:104900005D814330510551F18C819D818430910549
:10491000B9F147C0E9E3F0E08081282F30E08B81D6
:10492000882F90E0A90102C0559547958A95E2F736
:10493000CA018170898335C0E6E3F0E08081282FC9
:1049400030E08B81882F90E0A90102C055954795F2
:104950008A95E2F7CA018170898323C0E3E3F0E01E
:104960008081282F30E08B81882F90E0A90102C040
:10497000559547958A95E2F7CA018170898311C0E0
:10498000E0E3F0E08081282F30E08B81882F90E0F9
:10499000A90102C0559547958A95E2F7CA01817031
:1049A000898389810F900F900F900F900F90CF9176
:1049B000DF910895DF93CF9300D000D0CDB7DEB75D
:1049C00089836A838981282F30E03C832B838B8104
:1049D0009C818230910551F12B813C81233031053E
:1049E00034F48B819C818130910561F05AC02B8118
:1049F0003C812330310571F18B819C81843091059C
:104A0000E9F14FC0ABE3B0E0EBE3F0E08081482F89
:104A10008A81282F30E081E090E0022E02C0880FCA
:104A2000991F0A94E2F784278C933BC0A8E3B0E077
:104A3000E8E3F0E08081482F8A81282F30E081E090
:104A400090E0022E02C0880F991F0A94E2F7842793
:104A50008C9327C0A5E3B0E0E5E3F0E08081482F28
:104A60008A81282F30E081E090E0022E02C0880F7A
:104A7000991F0A94E2F784278C9313C0A2E3B0E055
:104A8000E2E3F0E08081482F8A81282F30E081E046
:104A900090E0022E02C0880F991F0A94E2F7842743
:104AA0008C930F900F900F900F90CF91DF910895FE
:104AB000DF93CF9300D000D0CDB7DEB789836A8370
:104AC0008981282F30E03C832B838B819C8182302D
:104AD0009105D9F02B813C812330310534F48B8151
:104AE0009C818130910561F01EC02B813C81233077
:104AF000310581F08B819C818430910581F013C058
:104B0000EBE3F0E08A8180830EC0E8E3F0E08A8185
:104B1000808309C0E5E3F0E08A81808304C0E2E39A
:104B2000F0E08A8180830F900F900F900F90CF91CB
:104B3000DF910895DF93CF9300D000D000D0CDB7A0
:104B4000DEB78A836B834C838A81282F30E03E83D3
:104B50002D834D815E814230510541F18D819E81D1
:104B60008330910534F42D813E812130310561F08F
:104B700052C04D815E814330510551F18D819E813E
:104B800084309105B9F147C0EAE3F0E08081282F35
:104B900030E08B81882F90E0A90102C055954795A0
:104BA0008A95E2F7CA018170898335C0E7E3F0E0B6
:104BB0008081282F30E08B81882F90E0A90102C0EE
:104BC000559547958A95E2F7CA018170898323C07C
:104BD000E4E3F0E08081282F30E08B81882F90E0A3
:104BE000A90102C0559547958A95E2F7CA018170DF
:104BF000898311C0E1E3F0E08081282F30E08B81D0
:104C0000882F90E0A90102C0559547958A95E2F753
:104C1000CA01817089838981882329F48A816B8103
:104C20004C810E946E2326960FB6F894DEBF0FBE0D
:104C3000CDBFCF91DF910895DF93CF93CDB7DEB78E
:104C400081E062E040E00E946E2381E063E041E0A9
:104C50000E946E23CF91DF910895DF93CF93CDB75C
:104C6000DEB781E062E041E00E946E2381E063E014
:104C700040E00E946E23CF91DF910895DF93CF93A0
:104C8000CDB7DEB781E062E040E00E946E2381E0B4
:104C900063E040E00E946E23CF91DF910895DF939F
:104CA000CF93CDB7DEB7A7E2B0E0E7E2F0E08081D6
:104CB0008F778C93A7E2B0E0E7E2F0E08081806438
:104CC0008C93A7E2B0E0E7E2F0E080818F7D8C93E7
:104CD000A6E2B0E0E6E2F0E0808181608C93A6E29B
:104CE000B0E0E6E2F0E0808182608C93A6E2B0E082
:104CF000E6E2F0E0808184608C93A6E2B0E0E6E238
:104D0000F0E0808180688C93CF91DF910895DF93EC
:104D1000CF930F92CDB7DEB78983A7E2B0E0E7E289
:104D2000F0E08081982F907E8981892B8C93A6E278
:104D3000B0E0E6E2F0E0808180648C93E6E2F0E0AF
:104D4000808182958F70882F90E08170907000979D
:104D5000A9F3A6E2B0E0E6E2F0E0808180618C9306
:104D6000E4E2F0E0808191810F90CF91DF9108958E
:104D7000DF93CF930F92CDB7DEB78983E6E2F0E001
:104D800080818295869586958370882F90E08170CA
:104D90009070009789F4A7E2B0E0E7E2F0E080814C
:104DA000982F907E8981892B8C93A6E2B0E0E6E271
:104DB000F0E0808180648C930F90CF91DF91089513
:104DC000DF93CF93CDB7DEB7E4E2F0E0808191814D
:104DD000CF91DF910895DF93CF9300D0CDB7DEB7A9
:104DE0009A83898389819A819093EB008093EA006A
:104DF0000F900F90CF91DF9108951F920F920FB6F1
:104E00000F9211242F933F934F935F936F937F9350
:104E10008F939F93AF93BF93EF93FF93DF93CF93C2
:104E2000CDB7DEB7E091EA00F091EB000995CF91A4
:104E3000DF91FF91EF91BF91AF919F918F917F9102
:104E40006F915F914F913F912F910F900FBE0F90F7
:104E50001F9018950F931F93DF93CF93CDB7DEB7B5
:104E600067970FB6F894DEBF0FBECDBF1E8A1D8AAE
:104E70001C8A1B8A1A8A198A0E9457230E944F266D
:104E80000E944F060E94AC0F0E94B3210E94BA0BF1
:104E90000E94E41E84E067E040E00E946E2382E00E
:104EA00063E040E00E946E2382E062E041E00E9405
:104EB0006E2380E690E06DE00E94F71B85E0888B12
:104EC0001F8A83C08F89082F10E00E94BD06F80159
:104ED000E850FF4F808388EF90E09E01295E3F4FAE
:104EE000B9010E947D1C80E090E0A8E4B3E48B87C8
:104EF0009C87AD87BE876B857C858D859E8520E0F0
:104F000030E04AEF54E40E941F02DC01CB018F83A2
:104F10009887A987BA876F81788589859A8520E0E7
:104F200030E040E85FE30E94250488232CF481E010
:104F300090E09E838D833FC06F81788589859A85B7
:104F400020E03FEF4FE757E40E94C50318164CF5E9
:104F50006B857C858D859E8520E030E040E251E4C4
:104F60000E941F02DC01CB01BC01CD010E9449005F
:104F7000DC01CB019E838D830FC088EC90E09C8385
:104F80008B838B819C810197F1F79C838B838D812F
:104F90009E8101979E838D838D819E81009769F705
:104FA00014C06F81788589859A850E944900DC014B
:104FB000CB019E838D838D819E819A838983898194
:104FC0009A810197F1F79A8389839F898889981735
:104FD00008F478CF1F860EC08F85882F90E0FC01E3
:104FE000E850FF4F90818F85692F0E9477208F8531
:104FF0008F5F8F879F858889981770F381E00E9463
:10500000901386E061E00E94461C8EE690E064E02A
:105010000E94F71B85E062E00E94461C83E790E057
:1050200066E00E94F71B82E00E940E1F89E898E26A
:105030000E94A01F0E94392080910C018823E1F377
:1050400081E00E948726CC01A0E0B0E028E833E1AF
:1050500040E050E0BC01CD010E94232FDC01CB01D8
:10506000072E7AE0B695A795979587957A95D1F70B
:10507000702D9C8B8B8B8B899C892AE030E0B90149
:105080000E94422FCB019E8B8D8B8D899E898A3FFA
:10509000910518F00E942D2602C00E943E2680E055
:1050A0000E948726CC01A0E0B0E028E833E140E090
:1050B00050E0BC01CD010E94232FDC01CB01072E63
:1050C0007AE0B695A795979587957A95D1F7702D43
:1050D0009A8B898B89899A89CC01A0E0B0E02FEF67
:1050E00030E040E050E0BC01CD010E94232FDC0104
:1050F000CB0128E833E140E050E0BC01CD010E9443
:10510000562FDA01C9019A8B898B89890E94180B65
:1051100093CF0F931F93DF93CF93CDB7DEB7C557D0
:10512000D0400FB6F894DEBF0FBECDBFFE01EC58E5
:10513000FF4F1082FE01ED58FF4F85E080830E94F3
:10514000BB0780E29EE40E94770982E00E9451083A
:1051500081E00E94901385E061E00E94461C8AE78E
:1051600090E067E00E94F71BFE01E359FF4F80E0EB
:1051700090E8ABEBB4E480839183A283B3838E0188
:1051800007591F4FFE01E359FF4F608171818281F2
:10519000938120E030E04AEF54E40E941F02DC01DA
:1051A000CB01F80180839183A283B383FE01E75989
:1051B000FF4F608171818281938120E030E040E87F
:1051C0005FE30E942504882344F4FE01E959FF4F60
:1051D00081E090E09183808364C0FE01E759FF4F36
:1051E000608171818281938120E03FEF4FE757E436
:1051F0000E94C50318160CF043C0FE01E359FF4F8F
:10520000608171818281938120E030E040E251E44D
:105210000E941F02DC01CB018E0109591F4FBC0106
:10522000CD010E944900DC01CB01F801918380830C
:105230001FC0FE01EB59FF4F88EC90E09183808303
:10524000FE01EB59FF4F808191810197F1F7FE013B
:10525000EB59FF4F91838083DE01A959BF4FFE01B7
:10526000E959FF4F80819181019711969C938E930C
:10527000FE01E959FF4F808191810097D1F69AC4D0
:105280008E0109591F4FFE01E759FF4F608171815F
:10529000828193810E944900DC01CB01F801918356
:1052A0008083DE01AD59BF4FFE01E959FF4F808178
:1052B000918111969C938E93FE01ED59FF4F808151
:1052C00091810197F1F7FE01ED59FF4F91838083A2
:1052D00071C481E00E94901382E890E06FE00E9428
:1052E000F71B80E062E00E94461CFE01EB58FF4F76
:1052F0001082CFC0FE01EB58FF4F808162E00E9418
:10530000461CFE01EB58FF4F8081082F10E00E94E1
:10531000BD06F801E95FFE4F808387E091E09E01C2
:105320002B583F4FB9010E947D1CFE01E15AFF4FEF
:1053300080E090E0A8E4B3E480839183A283B38308
:105340008E01055A1F4FFE01E15AFF4F60817181A6
:105350008281938120E030E04AEF54E40E941F02F2
:10536000DC01CB01F80180839183A283B383FE012A
:10537000E55AFF4F608171818281938120E030E0A6
:1053800040E85FE30E942504882344F4FE01E75AC5
:10539000FF4F81E090E09183808364C0FE01E55A75
:1053A000FF4F608171818281938120E03FEF4FE761
:1053B00057E40E94C50318160CF043C0FE01E15AE1
:1053C000FF4F608171818281938120E030E040E273
:1053D00051E40E941F02DC01CB018E01075A1F4FCE
:1053E000BC01CD010E944900DC01CB01F801918391
:1053F00080831FC0FE01E95AFF4F88EC90E0918343
:105400008083FE01E95AFF4F808191810197F1F776
:10541000FE01E95AFF4F91838083DE01A75ABF4FF7
:10542000FE01E75AFF4F80819181019711969C936D
:105430008E93FE01E75AFF4F808191810097D1F64C
:1054400028C08E01075A1F4FFE01E55AFF4F6081A9
:105450007181828193810E944900DC01CB01F801B6
:1054600091838083DE01AB5ABF4FFE01E75AFF4FA5
:105470008081918111969C938E93FE01EB5AFF4F90
:10548000808191810197F1F7FE01EB5AFF4F9183E3
:105490008083FE01EB58FF4F9081FE01ED58FF4FD6
:1054A0008081981708F426CFFE01EE58FF4F108236
:1054B0003BC0FE01EE58FF4F8081882F90E09C0199
:1054C0002E5E3E4FFE01EE58FF4F8081B9010E94D3
:1054D0005520FE01EE58FF4F8081082F10E0FE019D
:1054E000EE58FF4F8081882F90E0FC01EE5EFE4F6A
:1054F0002081FE01EE58FF4F8081882F90E0FC0153
:10550000E95FFE4F9081822F692F0E94590CF801AC
:10551000E35FFE4F8083DE01AE58BF4FFE01EE58C1
:10552000FF4F80818F5F8C93FE01EE58FF4FDE01AD
:10553000AD58BF4F90818C91981708F4BACFFE01F7
:10554000EF58FF4F108223C0FE01EF58FF4F8081BC
:10555000882F90E0FC01E35FFE4F8081813051F4A1
:10556000DE01AC58BF4FFE01EC58FF4F80818F5FCA
:105570008C9313C0FE01EC58FF4F1082DE01AF5830
:10558000BF4FFE01EF58FF4F80818F5F8C93FE016C
:10559000EF58FF4F80818530B8F2FE01EC58FF4F85
:1055A0008081882309F4C4C081E00E94901380E0C8
:1055B00061E00E94461C82E990E060E10E94F71BD6
:1055C00085E00E94230CFE01EF5AFF4F80E090E03F
:1055D000AAEFB3E480839183A283B3838E01035B3C
:1055E0001F4FFE01EF5AFF4F6081718182819381CD
:1055F00020E030E04AEF54E40E941F02DC01CB01BE
:10560000F80180839183A283B383FE01E35BFF4FA4
:10561000608171818281938120E030E040E85FE326
:105620000E942504882344F4FE01E55BFF4F81E0DE
:1056300090E09183808364C0FE01E35BFF4F608153
:1056400071818281938120E03FEF4FE757E40E9410
:10565000C50318160CF043C0FE01EF5AFF4F6081DE
:1056600071818281938120E030E040E251E40E9428
:105670001F02DC01CB018E01055B1F4FBC01CD0178
:105680000E944900DC01CB01F801918380831FC097
:10569000FE01E75BFF4F88EC90E091838083FE0181
:1056A000E75BFF4F808191810197F1F7FE01E75B96
:1056B000FF4F91838083DE01A55BBF4FFE01E55B59
:1056C000FF4F80819181019711969C938E93FE01EB
:1056D000E55BFF4F808191810097D1F66BC28E010F
:1056E000055B1F4FFE01E35BFF4F6081718182818B
:1056F00093810E944900DC01CB01F80191838083F2
:10570000DE01A95BBF4FFE01E55BFF4F8081918108
:1057100011969C938E93FE01E95BFF4F80819181EE
:105720000197F1F7FE01E95BFF4F9183808342C24D
:1057300081E00E94901380E061E00E94461C83EAB1
:1057400090E060E10E94F71BFE01ED5BFF4F80E0FF
:1057500090E0AAEFB3E480839183A283B3838E01A8
:10576000015C1F4FFE01ED5BFF4F60817181828103
:10577000938120E030E04AEF54E40E941F02DC01F4
:10578000CB01F80180839183A283B383FE01FF964E
:10579000608171818281938120E030E040E85FE3A5
:1057A0000E94250488232CF481E090E09EAF8DAF09
:1057B00046C0FE01FF96608171818281938120E065
:1057C0003FEF4FE757E40E94C503181664F5FE014A
:1057D000ED5BFF4F608171818281938120E030E039
:1057E00040E251E40E941F02DC01CB01BC01CD016B
:1057F0000E944900DC01CB019EAF8DAF0FC088EC49
:1058000090E09CAF8BAF8BAD9CAD0197F1F79CAF57
:105810008BAF8DAD9EAD01979EAF8DAF8DAD9EAD23
:10582000009769F716C0FE01FF9660817181828141
:1058300093810E944900DC01CB019EAF8DAF8DADFD
:105840009EAD9AAF89AF89AD9AAD0197F1F79AAF46
:1058500089AF8AE00E94230C81E00E94901383E0CC
:1058600061E00E94461C83EB90E06BE00E94F71B16
:1058700081E080930C018EEE92E09093ED00809396
:10588000EC0081C08091EC009091ED000E944909EC
:1058900080E090E0A0E2B1E48DAB9EABAFABB8AFDF
:1058A0006DA97EA98FA998AD20E030E04AEF54E4BD
:1058B0000E941F02DC01CB0189AB9AABABABBCAB46
:1058C00069A97AA98BA99CA920E030E040E85FE3B0
:1058D0000E94250488232CF481E090E098AB8FA7E8
:1058E0003FC069A97AA98BA99CA920E03FEF4FE7A7
:1058F00057E40E94C50318164CF56DA97EA98FA91F
:1059000098AD20E030E040E251E40E941F02DC014B
:10591000CB01BC01CD010E944900DC01CB0198AB59
:105920008FA70FC088EC90E09EA78DA78DA59EA5A0
:105930000197F1F79EA78DA78FA598A9019798AB1E
:105940008FA78FA598A9009769F714C069A97AA9AC
:105950008BA99CA90E944900DC01CB0198AB8FA7C1
:105960008FA598A99CA78BA78BA59CA50197F1F75C
:105970009CA78BA78091EC009091ED0001969093ED
:10598000ED008093EC008091EC009091ED00F6E04A
:1059900088359F0708F476CF84E067E041E00E94F5
:1059A0006E2382E063E041E00E946E2380E090E09D
:1059B000AAEFB4E48FA398A7A9A7BAA76FA178A567
:1059C00089A59AA520E030E04AEF54E40E941F0226
:1059D000DC01CB018BA39CA3ADA3BEA36BA17CA1D7
:1059E0008DA19EA120E030E040E85FE30E94250405
:1059F00088232CF481E090E09AA389A33FC06BA197
:105A00007CA18DA19EA120E03FEF4FE757E40E94CB
:105A1000C50318164CF56FA178A589A59AA520E0B5
:105A200030E040E251E40E941F02DC01CB01BC01E6
:105A3000CD010E944900DC01CB019AA389A30FC0CC
:105A400088EC90E098A38F8F8F8D98A10197F1F744
:105A500098A38F8F89A19AA101979AA389A389A15D
:105A60009AA1009769F714C06BA17CA18DA19EA19A
:105A70000E944900DC01CB019AA389A389A19AA1C4
:105A80009E8F8D8F8D8D9E8D0197F1F79E8F8D8FBF
:105A900088E596E09093ED008093EC0081C08091C2
:105AA000EC009091ED000E94490980E090E0A0E2B6
:105AB000B1E4898F9A8FAB8FBC8F698D7A8D8B8D76
:105AC0009C8D20E030E04AEF54E40E941F02DC018C
:105AD000CB018D8B9E8BAF8BB88F6D897E898F8923
